{
	"did-vaccine.sol": {
		"VaccineCredential": {
			"abi": [
				{
					"inputs": [],
					"stateMutability": "nonpayable",
					"type": "constructor"
				},
				{
					"inputs": [
						{
							"internalType": "address",
							"name": "_address",
							"type": "address"
						},
						{
							"internalType": "uint8",
							"name": "_vaccineType",
							"type": "uint8"
						}
					],
					"name": "claimCredential",
					"outputs": [
						{
							"internalType": "bool",
							"name": "",
							"type": "bool"
						}
					],
					"stateMutability": "nonpayable",
					"type": "function"
				},
				{
					"inputs": [
						{
							"internalType": "address",
							"name": "_address",
							"type": "address"
						}
					],
					"name": "getCredential",
					"outputs": [
						{
							"components": [
								{
									"internalType": "uint256",
									"name": "id",
									"type": "uint256"
								},
								{
									"internalType": "uint256",
									"name": "verifiedTime",
									"type": "uint256"
								},
								{
									"internalType": "address",
									"name": "issuer",
									"type": "address"
								},
								{
									"internalType": "string",
									"name": "vaccineType",
									"type": "string"
								}
							],
							"internalType": "struct VaccineCredential.Credential",
							"name": "",
							"type": "tuple"
						}
					],
					"stateMutability": "view",
					"type": "function"
				}
			],
			"devdoc": {
				"kind": "dev",
				"methods": {},
				"version": 1
			},
			"evm": {
				"assembly": "    /* \"did-vaccine.sol\":61:1242  contract VaccineCredential {... */\n  mstore(0x40, 0x80)\n    /* \"did-vaccine.sol\":399:624  constructor() {... */\n  callvalue\n  dup1\n  iszero\n  tag_1\n  jumpi\n  0x00\n  dup1\n  revert\ntag_1:\n  pop\n    /* \"did-vaccine.sol\":439:449  msg.sender */\n  caller\n    /* \"did-vaccine.sol\":423:436  issuerAddress */\n  0x00\n  dup1\n    /* \"did-vaccine.sol\":423:449  issuerAddress = msg.sender */\n  0x0100\n  exp\n  dup2\n  sload\n  dup2\n  0xffffffffffffffffffffffffffffffffffffffff\n  mul\n  not\n  and\n  swap1\n  dup4\n  0xffffffffffffffffffffffffffffffffffffffff\n  and\n  mul\n  or\n  swap1\n  sstore\n  pop\n    /* \"did-vaccine.sol\":469:470  1 */\n  0x01\n    /* \"did-vaccine.sol\":459:466  idCount */\n  dup1\n    /* \"did-vaccine.sol\":459:470  idCount = 1 */\n  dup2\n  swap1\n  sstore\n  pop\n    /* \"did-vaccine.sol\":480:505  vaccineEnum[0] = \"Pfizer\" */\n  mload(0x40)\n  dup1\n  0x40\n  add\n  0x40\n  mstore\n  dup1\n  0x06\n  dup2\n  mstore\n  0x20\n  add\n  0x5066697a65720000000000000000000000000000000000000000000000000000\n  dup2\n  mstore\n  pop\n    /* \"did-vaccine.sol\":480:491  vaccineEnum */\n  0x02\n    /* \"did-vaccine.sol\":480:494  vaccineEnum[0] */\n  0x00\n    /* \"did-vaccine.sol\":492:493  0 */\n  dup1\n    /* \"did-vaccine.sol\":480:494  vaccineEnum[0] */\n  0xff\n  and\n  dup2\n  mstore\n  0x20\n  add\n  swap1\n  dup2\n  mstore\n  0x20\n  add\n  0x00\n  keccak256\n    /* \"did-vaccine.sol\":480:505  vaccineEnum[0] = \"Pfizer\" */\n  swap1\n  dup1\n  mload\n  swap1\n  0x20\n  add\n  swap1\n  tag_4\n  swap3\n  swap2\n  swap1\n  tag_5\n  jump\t// in\ntag_4:\n  pop\n    /* \"did-vaccine.sol\":515:541  vaccineEnum[1] = \"Moderna\" */\n  mload(0x40)\n  dup1\n  0x40\n  add\n  0x40\n  mstore\n  dup1\n  0x07\n  dup2\n  mstore\n  0x20\n  add\n  0x4d6f6465726e6100000000000000000000000000000000000000000000000000\n  dup2\n  mstore\n  pop\n    /* \"did-vaccine.sol\":515:526  vaccineEnum */\n  0x02\n    /* \"did-vaccine.sol\":515:529  vaccineEnum[1] */\n  0x00\n    /* \"did-vaccine.sol\":527:528  1 */\n  0x01\n    /* \"did-vaccine.sol\":515:529  vaccineEnum[1] */\n  0xff\n  and\n  dup2\n  mstore\n  0x20\n  add\n  swap1\n  dup2\n  mstore\n  0x20\n  add\n  0x00\n  keccak256\n    /* \"did-vaccine.sol\":515:541  vaccineEnum[1] = \"Moderna\" */\n  swap1\n  dup1\n  mload\n  swap1\n  0x20\n  add\n  swap1\n  tag_6\n  swap3\n  swap2\n  swap1\n  tag_5\n  jump\t// in\ntag_6:\n  pop\n    /* \"did-vaccine.sol\":551:581  vaccineEnum[2] = \"AstraZeneca\" */\n  mload(0x40)\n  dup1\n  0x40\n  add\n  0x40\n  mstore\n  dup1\n  0x0b\n  dup2\n  mstore\n  0x20\n  add\n  0x41737472615a656e656361000000000000000000000000000000000000000000\n  dup2\n  mstore\n  pop\n    /* \"did-vaccine.sol\":551:562  vaccineEnum */\n  0x02\n    /* \"did-vaccine.sol\":551:565  vaccineEnum[2] */\n  0x00\n    /* \"did-vaccine.sol\":563:564  2 */\n  0x02\n    /* \"did-vaccine.sol\":551:565  vaccineEnum[2] */\n  0xff\n  and\n  dup2\n  mstore\n  0x20\n  add\n  swap1\n  dup2\n  mstore\n  0x20\n  add\n  0x00\n  keccak256\n    /* \"did-vaccine.sol\":551:581  vaccineEnum[2] = \"AstraZeneca\" */\n  swap1\n  dup1\n  mload\n  swap1\n  0x20\n  add\n  swap1\n  tag_7\n  swap3\n  swap2\n  swap1\n  tag_5\n  jump\t// in\ntag_7:\n  pop\n    /* \"did-vaccine.sol\":591:617  vaccineEnum[3] = \"Janssen\" */\n  mload(0x40)\n  dup1\n  0x40\n  add\n  0x40\n  mstore\n  dup1\n  0x07\n  dup2\n  mstore\n  0x20\n  add\n  0x4a616e7373656e00000000000000000000000000000000000000000000000000\n  dup2\n  mstore\n  pop\n    /* \"did-vaccine.sol\":591:602  vaccineEnum */\n  0x02\n    /* \"did-vaccine.sol\":591:605  vaccineEnum[3] */\n  0x00\n    /* \"did-vaccine.sol\":603:604  3 */\n  0x03\n    /* \"did-vaccine.sol\":591:605  vaccineEnum[3] */\n  0xff\n  and\n  dup2\n  mstore\n  0x20\n  add\n  swap1\n  dup2\n  mstore\n  0x20\n  add\n  0x00\n  keccak256\n    /* \"did-vaccine.sol\":591:617  vaccineEnum[3] = \"Janssen\" */\n  swap1\n  dup1\n  mload\n  swap1\n  0x20\n  add\n  swap1\n  tag_8\n  swap3\n  swap2\n  swap1\n  tag_5\n  jump\t// in\ntag_8:\n  pop\n    /* \"did-vaccine.sol\":61:1242  contract VaccineCredential {... */\n  jump(tag_9)\ntag_5:\n  dup3\n  dup1\n  sload\n  tag_10\n  swap1\n  tag_11\n  jump\t// in\ntag_10:\n  swap1\n  0x00\n  mstore\n  keccak256(0x00, 0x20)\n  swap1\n  0x1f\n  add\n  0x20\n  swap1\n  div\n  dup2\n  add\n  swap3\n  dup3\n  tag_13\n  jumpi\n  0x00\n  dup6\n  sstore\n  jump(tag_12)\ntag_13:\n  dup3\n  0x1f\n  lt\n  tag_14\n  jumpi\n  dup1\n  mload\n  not(0xff)\n  and\n  dup4\n  dup1\n  add\n  or\n  dup6\n  sstore\n  jump(tag_12)\ntag_14:\n  dup3\n  dup1\n  add\n  0x01\n  add\n  dup6\n  sstore\n  dup3\n  iszero\n  tag_12\n  jumpi\n  swap2\n  dup3\n  add\ntag_15:\n  dup3\n  dup2\n  gt\n  iszero\n  tag_16\n  jumpi\n  dup3\n  mload\n  dup3\n  sstore\n  swap2\n  0x20\n  add\n  swap2\n  swap1\n  0x01\n  add\n  swap1\n  jump(tag_15)\ntag_16:\ntag_12:\n  pop\n  swap1\n  pop\n  tag_17\n  swap2\n  swap1\n  tag_18\n  jump\t// in\ntag_17:\n  pop\n  swap1\n  jump\t// out\ntag_18:\ntag_19:\n  dup1\n  dup3\n  gt\n  iszero\n  tag_20\n  jumpi\n  0x00\n  dup2\n  0x00\n  swap1\n  sstore\n  pop\n  0x01\n  add\n  jump(tag_19)\ntag_20:\n  pop\n  swap1\n  jump\t// out\n    /* \"#utility.yul\":7:187   */\ntag_21:\n    /* \"#utility.yul\":55:132   */\n  0x4e487b7100000000000000000000000000000000000000000000000000000000\n    /* \"#utility.yul\":52:53   */\n  0x00\n    /* \"#utility.yul\":45:133   */\n  mstore\n    /* \"#utility.yul\":152:156   */\n  0x22\n    /* \"#utility.yul\":149:150   */\n  0x04\n    /* \"#utility.yul\":142:157   */\n  mstore\n    /* \"#utility.yul\":176:180   */\n  0x24\n    /* \"#utility.yul\":173:174   */\n  0x00\n    /* \"#utility.yul\":166:181   */\n  revert\n    /* \"#utility.yul\":193:513   */\ntag_11:\n    /* \"#utility.yul\":237:243   */\n  0x00\n    /* \"#utility.yul\":274:275   */\n  0x02\n    /* \"#utility.yul\":268:272   */\n  dup3\n    /* \"#utility.yul\":264:276   */\n  div\n    /* \"#utility.yul\":254:276   */\n  swap1\n  pop\n    /* \"#utility.yul\":321:322   */\n  0x01\n    /* \"#utility.yul\":315:319   */\n  dup3\n    /* \"#utility.yul\":311:323   */\n  and\n    /* \"#utility.yul\":342:360   */\n  dup1\n    /* \"#utility.yul\":332:413   */\n  tag_25\n  jumpi\n    /* \"#utility.yul\":398:402   */\n  0x7f\n    /* \"#utility.yul\":390:396   */\n  dup3\n    /* \"#utility.yul\":386:403   */\n  and\n    /* \"#utility.yul\":376:403   */\n  swap2\n  pop\n    /* \"#utility.yul\":332:413   */\ntag_25:\n    /* \"#utility.yul\":460:462   */\n  0x20\n    /* \"#utility.yul\":452:458   */\n  dup3\n    /* \"#utility.yul\":449:463   */\n  lt\n    /* \"#utility.yul\":429:447   */\n  dup2\n    /* \"#utility.yul\":426:464   */\n  eq\n    /* \"#utility.yul\":423:507   */\n  iszero\n  tag_26\n  jumpi\n    /* \"#utility.yul\":479:497   */\n  tag_27\n  tag_21\n  jump\t// in\ntag_27:\n    /* \"#utility.yul\":423:507   */\ntag_26:\n    /* \"#utility.yul\":244:513   */\n  pop\n    /* \"#utility.yul\":193:513   */\n  swap2\n  swap1\n  pop\n  jump\t// out\n    /* \"did-vaccine.sol\":61:1242  contract VaccineCredential {... */\ntag_9:\n  dataSize(sub_0)\n  dup1\n  dataOffset(sub_0)\n  0x00\n  codecopy\n  0x00\n  return\nstop\n\nsub_0: assembly {\n        /* \"did-vaccine.sol\":61:1242  contract VaccineCredential {... */\n      mstore(0x40, 0x80)\n      callvalue\n      dup1\n      iszero\n      tag_1\n      jumpi\n      0x00\n      dup1\n      revert\n    tag_1:\n      pop\n      jumpi(tag_2, lt(calldatasize, 0x04))\n      shr(0xe0, calldataload(0x00))\n      dup1\n      0xccdad14b\n      eq\n      tag_3\n      jumpi\n      dup1\n      0xdefa395e\n      eq\n      tag_4\n      jumpi\n    tag_2:\n      0x00\n      dup1\n      revert\n        /* \"did-vaccine.sol\":1115:1240  function getCredential(address _address) public view returns(Credential memory) {... */\n    tag_3:\n      tag_5\n      0x04\n      dup1\n      calldatasize\n      sub\n      dup2\n      add\n      swap1\n      tag_6\n      swap2\n      swap1\n      tag_7\n      jump\t// in\n    tag_6:\n      tag_8\n      jump\t// in\n    tag_5:\n      mload(0x40)\n      tag_9\n      swap2\n      swap1\n      tag_10\n      jump\t// in\n    tag_9:\n      mload(0x40)\n      dup1\n      swap2\n      sub\n      swap1\n      return\n        /* \"did-vaccine.sol\":630:1109  function claimCredential(address _address, uint8 _vaccineType) public returns(bool) {... */\n    tag_4:\n      tag_11\n      0x04\n      dup1\n      calldatasize\n      sub\n      dup2\n      add\n      swap1\n      tag_12\n      swap2\n      swap1\n      tag_13\n      jump\t// in\n    tag_12:\n      tag_14\n      jump\t// in\n    tag_11:\n      mload(0x40)\n      tag_15\n      swap2\n      swap1\n      tag_16\n      jump\t// in\n    tag_15:\n      mload(0x40)\n      dup1\n      swap2\n      sub\n      swap1\n      return\n        /* \"did-vaccine.sol\":1115:1240  function getCredential(address _address) public view returns(Credential memory) {... */\n    tag_8:\n        /* \"did-vaccine.sol\":1176:1193  Credential memory */\n      tag_17\n      tag_18\n      jump\t// in\n    tag_17:\n        /* \"did-vaccine.sol\":1212:1223  credentials */\n      0x03\n        /* \"did-vaccine.sol\":1212:1233  credentials[_address] */\n      0x00\n        /* \"did-vaccine.sol\":1224:1232  _address */\n      dup4\n        /* \"did-vaccine.sol\":1212:1233  credentials[_address] */\n      0xffffffffffffffffffffffffffffffffffffffff\n      and\n      0xffffffffffffffffffffffffffffffffffffffff\n      and\n      dup2\n      mstore\n      0x20\n      add\n      swap1\n      dup2\n      mstore\n      0x20\n      add\n      0x00\n      keccak256\n        /* \"did-vaccine.sol\":1205:1233  return credentials[_address] */\n      mload(0x40)\n      dup1\n      0x80\n      add\n      0x40\n      mstore\n      swap1\n      dup2\n      0x00\n      dup3\n      add\n      sload\n      dup2\n      mstore\n      0x20\n      add\n      0x01\n      dup3\n      add\n      sload\n      dup2\n      mstore\n      0x20\n      add\n      0x02\n      dup3\n      add\n      0x00\n      swap1\n      sload\n      swap1\n      0x0100\n      exp\n      swap1\n      div\n      0xffffffffffffffffffffffffffffffffffffffff\n      and\n      0xffffffffffffffffffffffffffffffffffffffff\n      and\n      0xffffffffffffffffffffffffffffffffffffffff\n      and\n      dup2\n      mstore\n      0x20\n      add\n      0x03\n      dup3\n      add\n      dup1\n      sload\n      tag_20\n      swap1\n      tag_21\n      jump\t// in\n    tag_20:\n      dup1\n      0x1f\n      add\n      0x20\n      dup1\n      swap2\n      div\n      mul\n      0x20\n      add\n      mload(0x40)\n      swap1\n      dup2\n      add\n      0x40\n      mstore\n      dup1\n      swap3\n      swap2\n      swap1\n      dup2\n      dup2\n      mstore\n      0x20\n      add\n      dup3\n      dup1\n      sload\n      tag_22\n      swap1\n      tag_21\n      jump\t// in\n    tag_22:\n      dup1\n      iszero\n      tag_23\n      jumpi\n      dup1\n      0x1f\n      lt\n      tag_24\n      jumpi\n      0x0100\n      dup1\n      dup4\n      sload\n      div\n      mul\n      dup4\n      mstore\n      swap2\n      0x20\n      add\n      swap2\n      jump(tag_23)\n    tag_24:\n      dup3\n      add\n      swap2\n      swap1\n      0x00\n      mstore\n      keccak256(0x00, 0x20)\n      swap1\n    tag_25:\n      dup2\n      sload\n      dup2\n      mstore\n      swap1\n      0x01\n      add\n      swap1\n      0x20\n      add\n      dup1\n      dup4\n      gt\n      tag_25\n      jumpi\n      dup3\n      swap1\n      sub\n      0x1f\n      and\n      dup3\n      add\n      swap2\n    tag_23:\n      pop\n      pop\n      pop\n      pop\n      pop\n      dup2\n      mstore\n      pop\n      pop\n      swap1\n      pop\n        /* \"did-vaccine.sol\":1115:1240  function getCredential(address _address) public view returns(Credential memory) {... */\n      swap2\n      swap1\n      pop\n      jump\t// out\n        /* \"did-vaccine.sol\":630:1109  function claimCredential(address _address, uint8 _vaccineType) public returns(bool) {... */\n    tag_14:\n        /* \"did-vaccine.sol\":708:712  bool */\n      0x00\n        /* \"did-vaccine.sol\":749:759  msg.sender */\n      caller\n        /* \"did-vaccine.sol\":732:759  issuerAddress == msg.sender */\n      0xffffffffffffffffffffffffffffffffffffffff\n      and\n        /* \"did-vaccine.sol\":732:745  issuerAddress */\n      0x00\n      dup1\n      sload\n      swap1\n      0x0100\n      exp\n      swap1\n      div\n      0xffffffffffffffffffffffffffffffffffffffff\n      and\n        /* \"did-vaccine.sol\":732:759  issuerAddress == msg.sender */\n      0xffffffffffffffffffffffffffffffffffffffff\n      and\n      eq\n        /* \"did-vaccine.sol\":724:774  require(issuerAddress == msg.sender, \"Not Issuer\") */\n      tag_27\n      jumpi\n      mload(0x40)\n      0x08c379a000000000000000000000000000000000000000000000000000000000\n      dup2\n      mstore\n      0x04\n      add\n      tag_28\n      swap1\n      tag_29\n      jump\t// in\n    tag_28:\n      mload(0x40)\n      dup1\n      swap2\n      sub\n      swap1\n      revert\n    tag_27:\n        /* \"did-vaccine.sol\":784:813  Credential storage credential */\n      0x00\n        /* \"did-vaccine.sol\":816:827  credentials */\n      0x03\n        /* \"did-vaccine.sol\":816:837  credentials[_address] */\n      0x00\n        /* \"did-vaccine.sol\":828:836  _address */\n      dup6\n        /* \"did-vaccine.sol\":816:837  credentials[_address] */\n      0xffffffffffffffffffffffffffffffffffffffff\n      and\n      0xffffffffffffffffffffffffffffffffffffffff\n      and\n      dup2\n      mstore\n      0x20\n      add\n      swap1\n      dup2\n      mstore\n      0x20\n      add\n      0x00\n      keccak256\n        /* \"did-vaccine.sol\":784:837  Credential storage credential = credentials[_address] */\n      swap1\n      pop\n        /* \"did-vaccine.sol\":872:873  0 */\n      0x00\n        /* \"did-vaccine.sol\":855:865  credential */\n      dup2\n        /* \"did-vaccine.sol\":855:868  credential.id */\n      0x00\n      add\n      sload\n        /* \"did-vaccine.sol\":855:873  credential.id == 0 */\n      eq\n        /* \"did-vaccine.sol\":847:874  require(credential.id == 0) */\n      tag_30\n      jumpi\n      0x00\n      dup1\n      revert\n    tag_30:\n        /* \"did-vaccine.sol\":900:907  idCount */\n      sload(0x01)\n        /* \"did-vaccine.sol\":884:894  credential */\n      dup2\n        /* \"did-vaccine.sol\":884:897  credential.id */\n      0x00\n      add\n        /* \"did-vaccine.sol\":884:907  credential.id = idCount */\n      dup2\n      swap1\n      sstore\n      pop\n        /* \"did-vaccine.sol\":937:947  msg.sender */\n      caller\n        /* \"did-vaccine.sol\":917:927  credential */\n      dup2\n        /* \"did-vaccine.sol\":917:934  credential.issuer */\n      0x02\n      add\n      0x00\n        /* \"did-vaccine.sol\":917:947  credential.issuer = msg.sender */\n      0x0100\n      exp\n      dup2\n      sload\n      dup2\n      0xffffffffffffffffffffffffffffffffffffffff\n      mul\n      not\n      and\n      swap1\n      dup4\n      0xffffffffffffffffffffffffffffffffffffffff\n      and\n      mul\n      or\n      swap1\n      sstore\n      pop\n        /* \"did-vaccine.sol\":982:993  vaccineEnum */\n      0x02\n        /* \"did-vaccine.sol\":982:1007  vaccineEnum[_vaccineType] */\n      0x00\n        /* \"did-vaccine.sol\":994:1006  _vaccineType */\n      dup5\n        /* \"did-vaccine.sol\":982:1007  vaccineEnum[_vaccineType] */\n      0xff\n      and\n      0xff\n      and\n      dup2\n      mstore\n      0x20\n      add\n      swap1\n      dup2\n      mstore\n      0x20\n      add\n      0x00\n      keccak256\n        /* \"did-vaccine.sol\":957:967  credential */\n      dup2\n        /* \"did-vaccine.sol\":957:979  credential.vaccineType */\n      0x03\n      add\n        /* \"did-vaccine.sol\":957:1007  credential.vaccineType = vaccineEnum[_vaccineType] */\n      swap1\n      dup1\n      sload\n      tag_31\n      swap1\n      tag_21\n      jump\t// in\n    tag_31:\n      tag_32\n      swap3\n      swap2\n      swap1\n      tag_33\n      jump\t// in\n    tag_32:\n      pop\n        /* \"did-vaccine.sol\":1043:1058  block.timestamp */\n      timestamp\n        /* \"did-vaccine.sol\":1017:1027  credential */\n      dup2\n        /* \"did-vaccine.sol\":1017:1040  credential.verifiedTime */\n      0x01\n      add\n        /* \"did-vaccine.sol\":1017:1058  credential.verifiedTime = block.timestamp */\n      dup2\n      swap1\n      sstore\n      pop\n        /* \"did-vaccine.sol\":1080:1081  1 */\n      0x01\n        /* \"did-vaccine.sol\":1069:1076  idCount */\n      dup1\n      0x00\n        /* \"did-vaccine.sol\":1069:1081  idCount += 1 */\n      dup3\n      dup3\n      sload\n      tag_34\n      swap2\n      swap1\n      tag_35\n      jump\t// in\n    tag_34:\n      swap3\n      pop\n      pop\n      dup2\n      swap1\n      sstore\n      pop\n        /* \"did-vaccine.sol\":1098:1102  true */\n      0x01\n        /* \"did-vaccine.sol\":1091:1102  return true */\n      swap2\n      pop\n      pop\n        /* \"did-vaccine.sol\":630:1109  function claimCredential(address _address, uint8 _vaccineType) public returns(bool) {... */\n      swap3\n      swap2\n      pop\n      pop\n      jump\t// out\n    tag_18:\n      mload(0x40)\n      dup1\n      0x80\n      add\n      0x40\n      mstore\n      dup1\n      0x00\n      dup2\n      mstore\n      0x20\n      add\n      0x00\n      dup2\n      mstore\n      0x20\n      add\n      and(0xffffffffffffffffffffffffffffffffffffffff, 0x00)\n      dup2\n      mstore\n      0x20\n      add\n      0x60\n      dup2\n      mstore\n      pop\n      swap1\n      jump\t// out\n    tag_33:\n      dup3\n      dup1\n      sload\n      tag_36\n      swap1\n      tag_21\n      jump\t// in\n    tag_36:\n      swap1\n      0x00\n      mstore\n      keccak256(0x00, 0x20)\n      swap1\n      0x1f\n      add\n      0x20\n      swap1\n      div\n      dup2\n      add\n      swap3\n      dup3\n      tag_38\n      jumpi\n      0x00\n      dup6\n      sstore\n      jump(tag_37)\n    tag_38:\n      dup3\n      0x1f\n      lt\n      tag_39\n      jumpi\n      dup1\n      sload\n      dup6\n      sstore\n      jump(tag_37)\n    tag_39:\n      dup3\n      dup1\n      add\n      0x01\n      add\n      dup6\n      sstore\n      dup3\n      iszero\n      tag_37\n      jumpi\n      0x00\n      mstore\n      keccak256(0x00, 0x20)\n      swap2\n      0x1f\n      add\n      0x20\n      swap1\n      div\n      dup3\n      add\n    tag_40:\n      dup3\n      dup2\n      gt\n      iszero\n      tag_41\n      jumpi\n      dup3\n      sload\n      dup3\n      sstore\n      swap2\n      0x01\n      add\n      swap2\n      swap1\n      0x01\n      add\n      swap1\n      jump(tag_40)\n    tag_41:\n    tag_37:\n      pop\n      swap1\n      pop\n      tag_42\n      swap2\n      swap1\n      tag_43\n      jump\t// in\n    tag_42:\n      pop\n      swap1\n      jump\t// out\n    tag_43:\n    tag_44:\n      dup1\n      dup3\n      gt\n      iszero\n      tag_45\n      jumpi\n      0x00\n      dup2\n      0x00\n      swap1\n      sstore\n      pop\n      0x01\n      add\n      jump(tag_44)\n    tag_45:\n      pop\n      swap1\n      jump\t// out\n        /* \"#utility.yul\":88:205   */\n    tag_47:\n        /* \"#utility.yul\":197:198   */\n      0x00\n        /* \"#utility.yul\":194:195   */\n      dup1\n        /* \"#utility.yul\":187:199   */\n      revert\n        /* \"#utility.yul\":334:460   */\n    tag_49:\n        /* \"#utility.yul\":371:378   */\n      0x00\n        /* \"#utility.yul\":411:453   */\n      0xffffffffffffffffffffffffffffffffffffffff\n        /* \"#utility.yul\":404:409   */\n      dup3\n        /* \"#utility.yul\":400:454   */\n      and\n        /* \"#utility.yul\":389:454   */\n      swap1\n      pop\n        /* \"#utility.yul\":334:460   */\n      swap2\n      swap1\n      pop\n      jump\t// out\n        /* \"#utility.yul\":466:562   */\n    tag_50:\n        /* \"#utility.yul\":503:510   */\n      0x00\n        /* \"#utility.yul\":532:556   */\n      tag_78\n        /* \"#utility.yul\":550:555   */\n      dup3\n        /* \"#utility.yul\":532:556   */\n      tag_49\n      jump\t// in\n    tag_78:\n        /* \"#utility.yul\":521:556   */\n      swap1\n      pop\n        /* \"#utility.yul\":466:562   */\n      swap2\n      swap1\n      pop\n      jump\t// out\n        /* \"#utility.yul\":568:690   */\n    tag_51:\n        /* \"#utility.yul\":641:665   */\n      tag_80\n        /* \"#utility.yul\":659:664   */\n      dup2\n        /* \"#utility.yul\":641:665   */\n      tag_50\n      jump\t// in\n    tag_80:\n        /* \"#utility.yul\":634:639   */\n      dup2\n        /* \"#utility.yul\":631:666   */\n      eq\n        /* \"#utility.yul\":621:684   */\n      tag_81\n      jumpi\n        /* \"#utility.yul\":680:681   */\n      0x00\n        /* \"#utility.yul\":677:678   */\n      dup1\n        /* \"#utility.yul\":670:682   */\n      revert\n        /* \"#utility.yul\":621:684   */\n    tag_81:\n        /* \"#utility.yul\":568:690   */\n      pop\n      jump\t// out\n        /* \"#utility.yul\":696:835   */\n    tag_52:\n        /* \"#utility.yul\":742:747   */\n      0x00\n        /* \"#utility.yul\":780:786   */\n      dup2\n        /* \"#utility.yul\":767:787   */\n      calldataload\n        /* \"#utility.yul\":758:787   */\n      swap1\n      pop\n        /* \"#utility.yul\":796:829   */\n      tag_83\n        /* \"#utility.yul\":823:828   */\n      dup2\n        /* \"#utility.yul\":796:829   */\n      tag_51\n      jump\t// in\n    tag_83:\n        /* \"#utility.yul\":696:835   */\n      swap3\n      swap2\n      pop\n      pop\n      jump\t// out\n        /* \"#utility.yul\":841:1170   */\n    tag_7:\n        /* \"#utility.yul\":900:906   */\n      0x00\n        /* \"#utility.yul\":949:951   */\n      0x20\n        /* \"#utility.yul\":937:946   */\n      dup3\n        /* \"#utility.yul\":928:935   */\n      dup5\n        /* \"#utility.yul\":924:947   */\n      sub\n        /* \"#utility.yul\":920:952   */\n      slt\n        /* \"#utility.yul\":917:1036   */\n      iszero\n      tag_85\n      jumpi\n        /* \"#utility.yul\":955:1034   */\n      tag_86\n      tag_47\n      jump\t// in\n    tag_86:\n        /* \"#utility.yul\":917:1036   */\n    tag_85:\n        /* \"#utility.yul\":1075:1076   */\n      0x00\n        /* \"#utility.yul\":1100:1153   */\n      tag_87\n        /* \"#utility.yul\":1145:1152   */\n      dup5\n        /* \"#utility.yul\":1136:1142   */\n      dup3\n        /* \"#utility.yul\":1125:1134   */\n      dup6\n        /* \"#utility.yul\":1121:1143   */\n      add\n        /* \"#utility.yul\":1100:1153   */\n      tag_52\n      jump\t// in\n    tag_87:\n        /* \"#utility.yul\":1090:1153   */\n      swap2\n      pop\n        /* \"#utility.yul\":1046:1163   */\n      pop\n        /* \"#utility.yul\":841:1170   */\n      swap3\n      swap2\n      pop\n      pop\n      jump\t// out\n        /* \"#utility.yul\":1176:1253   */\n    tag_53:\n        /* \"#utility.yul\":1213:1220   */\n      0x00\n        /* \"#utility.yul\":1242:1247   */\n      dup2\n        /* \"#utility.yul\":1231:1247   */\n      swap1\n      pop\n        /* \"#utility.yul\":1176:1253   */\n      swap2\n      swap1\n      pop\n      jump\t// out\n        /* \"#utility.yul\":1259:1367   */\n    tag_54:\n        /* \"#utility.yul\":1336:1360   */\n      tag_90\n        /* \"#utility.yul\":1354:1359   */\n      dup2\n        /* \"#utility.yul\":1336:1360   */\n      tag_53\n      jump\t// in\n    tag_90:\n        /* \"#utility.yul\":1331:1334   */\n      dup3\n        /* \"#utility.yul\":1324:1361   */\n      mstore\n        /* \"#utility.yul\":1259:1367   */\n      pop\n      pop\n      jump\t// out\n        /* \"#utility.yul\":1373:1481   */\n    tag_55:\n        /* \"#utility.yul\":1450:1474   */\n      tag_92\n        /* \"#utility.yul\":1468:1473   */\n      dup2\n        /* \"#utility.yul\":1450:1474   */\n      tag_50\n      jump\t// in\n    tag_92:\n        /* \"#utility.yul\":1445:1448   */\n      dup3\n        /* \"#utility.yul\":1438:1475   */\n      mstore\n        /* \"#utility.yul\":1373:1481   */\n      pop\n      pop\n      jump\t// out\n        /* \"#utility.yul\":1487:1586   */\n    tag_56:\n        /* \"#utility.yul\":1539:1545   */\n      0x00\n        /* \"#utility.yul\":1573:1578   */\n      dup2\n        /* \"#utility.yul\":1567:1579   */\n      mload\n        /* \"#utility.yul\":1557:1579   */\n      swap1\n      pop\n        /* \"#utility.yul\":1487:1586   */\n      swap2\n      swap1\n      pop\n      jump\t// out\n        /* \"#utility.yul\":1592:1751   */\n    tag_57:\n        /* \"#utility.yul\":1666:1677   */\n      0x00\n        /* \"#utility.yul\":1700:1706   */\n      dup3\n        /* \"#utility.yul\":1695:1698   */\n      dup3\n        /* \"#utility.yul\":1688:1707   */\n      mstore\n        /* \"#utility.yul\":1740:1744   */\n      0x20\n        /* \"#utility.yul\":1735:1738   */\n      dup3\n        /* \"#utility.yul\":1731:1745   */\n      add\n        /* \"#utility.yul\":1716:1745   */\n      swap1\n      pop\n        /* \"#utility.yul\":1592:1751   */\n      swap3\n      swap2\n      pop\n      pop\n      jump\t// out\n        /* \"#utility.yul\":1757:2064   */\n    tag_58:\n        /* \"#utility.yul\":1825:1826   */\n      0x00\n        /* \"#utility.yul\":1835:1948   */\n    tag_96:\n        /* \"#utility.yul\":1849:1855   */\n      dup4\n        /* \"#utility.yul\":1846:1847   */\n      dup2\n        /* \"#utility.yul\":1843:1856   */\n      lt\n        /* \"#utility.yul\":1835:1948   */\n      iszero\n      tag_98\n      jumpi\n        /* \"#utility.yul\":1934:1935   */\n      dup1\n        /* \"#utility.yul\":1929:1932   */\n      dup3\n        /* \"#utility.yul\":1925:1936   */\n      add\n        /* \"#utility.yul\":1919:1937   */\n      mload\n        /* \"#utility.yul\":1915:1916   */\n      dup2\n        /* \"#utility.yul\":1910:1913   */\n      dup5\n        /* \"#utility.yul\":1906:1917   */\n      add\n        /* \"#utility.yul\":1899:1938   */\n      mstore\n        /* \"#utility.yul\":1871:1873   */\n      0x20\n        /* \"#utility.yul\":1868:1869   */\n      dup2\n        /* \"#utility.yul\":1864:1874   */\n      add\n        /* \"#utility.yul\":1859:1874   */\n      swap1\n      pop\n        /* \"#utility.yul\":1835:1948   */\n      jump(tag_96)\n    tag_98:\n        /* \"#utility.yul\":1966:1972   */\n      dup4\n        /* \"#utility.yul\":1963:1964   */\n      dup2\n        /* \"#utility.yul\":1960:1973   */\n      gt\n        /* \"#utility.yul\":1957:2058   */\n      iszero\n      tag_99\n      jumpi\n        /* \"#utility.yul\":2046:2047   */\n      0x00\n        /* \"#utility.yul\":2037:2043   */\n      dup5\n        /* \"#utility.yul\":2032:2035   */\n      dup5\n        /* \"#utility.yul\":2028:2044   */\n      add\n        /* \"#utility.yul\":2021:2048   */\n      mstore\n        /* \"#utility.yul\":1957:2058   */\n    tag_99:\n        /* \"#utility.yul\":1806:2064   */\n      pop\n        /* \"#utility.yul\":1757:2064   */\n      pop\n      pop\n      pop\n      jump\t// out\n        /* \"#utility.yul\":2070:2172   */\n    tag_59:\n        /* \"#utility.yul\":2111:2117   */\n      0x00\n        /* \"#utility.yul\":2162:2164   */\n      0x1f\n        /* \"#utility.yul\":2158:2165   */\n      not\n        /* \"#utility.yul\":2153:2155   */\n      0x1f\n        /* \"#utility.yul\":2146:2151   */\n      dup4\n        /* \"#utility.yul\":2142:2156   */\n      add\n        /* \"#utility.yul\":2138:2166   */\n      and\n        /* \"#utility.yul\":2128:2166   */\n      swap1\n      pop\n        /* \"#utility.yul\":2070:2172   */\n      swap2\n      swap1\n      pop\n      jump\t// out\n        /* \"#utility.yul\":2178:2522   */\n    tag_60:\n        /* \"#utility.yul\":2256:2259   */\n      0x00\n        /* \"#utility.yul\":2284:2323   */\n      tag_102\n        /* \"#utility.yul\":2317:2322   */\n      dup3\n        /* \"#utility.yul\":2284:2323   */\n      tag_56\n      jump\t// in\n    tag_102:\n        /* \"#utility.yul\":2339:2400   */\n      tag_103\n        /* \"#utility.yul\":2393:2399   */\n      dup2\n        /* \"#utility.yul\":2388:2391   */\n      dup6\n        /* \"#utility.yul\":2339:2400   */\n      tag_57\n      jump\t// in\n    tag_103:\n        /* \"#utility.yul\":2332:2400   */\n      swap4\n      pop\n        /* \"#utility.yul\":2409:2461   */\n      tag_104\n        /* \"#utility.yul\":2454:2460   */\n      dup2\n        /* \"#utility.yul\":2449:2452   */\n      dup6\n        /* \"#utility.yul\":2442:2446   */\n      0x20\n        /* \"#utility.yul\":2435:2440   */\n      dup7\n        /* \"#utility.yul\":2431:2447   */\n      add\n        /* \"#utility.yul\":2409:2461   */\n      tag_58\n      jump\t// in\n    tag_104:\n        /* \"#utility.yul\":2486:2515   */\n      tag_105\n        /* \"#utility.yul\":2508:2514   */\n      dup2\n        /* \"#utility.yul\":2486:2515   */\n      tag_59\n      jump\t// in\n    tag_105:\n        /* \"#utility.yul\":2481:2484   */\n      dup5\n        /* \"#utility.yul\":2477:2516   */\n      add\n        /* \"#utility.yul\":2470:2516   */\n      swap2\n      pop\n        /* \"#utility.yul\":2260:2522   */\n      pop\n        /* \"#utility.yul\":2178:2522   */\n      swap3\n      swap2\n      pop\n      pop\n      jump\t// out\n        /* \"#utility.yul\":2610:3581   */\n    tag_61:\n        /* \"#utility.yul\":2731:2734   */\n      0x00\n        /* \"#utility.yul\":2767:2771   */\n      0x80\n        /* \"#utility.yul\":2762:2765   */\n      dup4\n        /* \"#utility.yul\":2758:2772   */\n      add\n        /* \"#utility.yul\":2852:2856   */\n      0x00\n        /* \"#utility.yul\":2845:2850   */\n      dup4\n        /* \"#utility.yul\":2841:2857   */\n      add\n        /* \"#utility.yul\":2835:2858   */\n      mload\n        /* \"#utility.yul\":2871:2934   */\n      tag_107\n        /* \"#utility.yul\":2928:2932   */\n      0x00\n        /* \"#utility.yul\":2923:2926   */\n      dup7\n        /* \"#utility.yul\":2919:2933   */\n      add\n        /* \"#utility.yul\":2905:2917   */\n      dup3\n        /* \"#utility.yul\":2871:2934   */\n      tag_54\n      jump\t// in\n    tag_107:\n        /* \"#utility.yul\":2782:2944   */\n      pop\n        /* \"#utility.yul\":3034:3038   */\n      0x20\n        /* \"#utility.yul\":3027:3032   */\n      dup4\n        /* \"#utility.yul\":3023:3039   */\n      add\n        /* \"#utility.yul\":3017:3040   */\n      mload\n        /* \"#utility.yul\":3053:3116   */\n      tag_108\n        /* \"#utility.yul\":3110:3114   */\n      0x20\n        /* \"#utility.yul\":3105:3108   */\n      dup7\n        /* \"#utility.yul\":3101:3115   */\n      add\n        /* \"#utility.yul\":3087:3099   */\n      dup3\n        /* \"#utility.yul\":3053:3116   */\n      tag_54\n      jump\t// in\n    tag_108:\n        /* \"#utility.yul\":2954:3126   */\n      pop\n        /* \"#utility.yul\":3210:3214   */\n      0x40\n        /* \"#utility.yul\":3203:3208   */\n      dup4\n        /* \"#utility.yul\":3199:3215   */\n      add\n        /* \"#utility.yul\":3193:3216   */\n      mload\n        /* \"#utility.yul\":3229:3292   */\n      tag_109\n        /* \"#utility.yul\":3286:3290   */\n      0x40\n        /* \"#utility.yul\":3281:3284   */\n      dup7\n        /* \"#utility.yul\":3277:3291   */\n      add\n        /* \"#utility.yul\":3263:3275   */\n      dup3\n        /* \"#utility.yul\":3229:3292   */\n      tag_55\n      jump\t// in\n    tag_109:\n        /* \"#utility.yul\":3136:3302   */\n      pop\n        /* \"#utility.yul\":3391:3395   */\n      0x60\n        /* \"#utility.yul\":3384:3389   */\n      dup4\n        /* \"#utility.yul\":3380:3396   */\n      add\n        /* \"#utility.yul\":3374:3397   */\n      mload\n        /* \"#utility.yul\":3444:3447   */\n      dup5\n        /* \"#utility.yul\":3438:3442   */\n      dup3\n        /* \"#utility.yul\":3434:3448   */\n      sub\n        /* \"#utility.yul\":3427:3431   */\n      0x60\n        /* \"#utility.yul\":3422:3425   */\n      dup7\n        /* \"#utility.yul\":3418:3432   */\n      add\n        /* \"#utility.yul\":3411:3449   */\n      mstore\n        /* \"#utility.yul\":3470:3543   */\n      tag_110\n        /* \"#utility.yul\":3538:3542   */\n      dup3\n        /* \"#utility.yul\":3524:3536   */\n      dup3\n        /* \"#utility.yul\":3470:3543   */\n      tag_60\n      jump\t// in\n    tag_110:\n        /* \"#utility.yul\":3462:3543   */\n      swap2\n      pop\n        /* \"#utility.yul\":3312:3554   */\n      pop\n        /* \"#utility.yul\":3571:3575   */\n      dup1\n        /* \"#utility.yul\":3564:3575   */\n      swap2\n      pop\n        /* \"#utility.yul\":2736:3581   */\n      pop\n        /* \"#utility.yul\":2610:3581   */\n      swap3\n      swap2\n      pop\n      pop\n      jump\t// out\n        /* \"#utility.yul\":3587:3964   */\n    tag_10:\n        /* \"#utility.yul\":3732:3736   */\n      0x00\n        /* \"#utility.yul\":3770:3772   */\n      0x20\n        /* \"#utility.yul\":3759:3768   */\n      dup3\n        /* \"#utility.yul\":3755:3773   */\n      add\n        /* \"#utility.yul\":3747:3773   */\n      swap1\n      pop\n        /* \"#utility.yul\":3819:3828   */\n      dup2\n        /* \"#utility.yul\":3813:3817   */\n      dup2\n        /* \"#utility.yul\":3809:3829   */\n      sub\n        /* \"#utility.yul\":3805:3806   */\n      0x00\n        /* \"#utility.yul\":3794:3803   */\n      dup4\n        /* \"#utility.yul\":3790:3807   */\n      add\n        /* \"#utility.yul\":3783:3830   */\n      mstore\n        /* \"#utility.yul\":3847:3957   */\n      tag_112\n        /* \"#utility.yul\":3952:3956   */\n      dup2\n        /* \"#utility.yul\":3943:3949   */\n      dup5\n        /* \"#utility.yul\":3847:3957   */\n      tag_61\n      jump\t// in\n    tag_112:\n        /* \"#utility.yul\":3839:3957   */\n      swap1\n      pop\n        /* \"#utility.yul\":3587:3964   */\n      swap3\n      swap2\n      pop\n      pop\n      jump\t// out\n        /* \"#utility.yul\":3970:4056   */\n    tag_62:\n        /* \"#utility.yul\":4005:4012   */\n      0x00\n        /* \"#utility.yul\":4045:4049   */\n      0xff\n        /* \"#utility.yul\":4038:4043   */\n      dup3\n        /* \"#utility.yul\":4034:4050   */\n      and\n        /* \"#utility.yul\":4023:4050   */\n      swap1\n      pop\n        /* \"#utility.yul\":3970:4056   */\n      swap2\n      swap1\n      pop\n      jump\t// out\n        /* \"#utility.yul\":4062:4180   */\n    tag_63:\n        /* \"#utility.yul\":4133:4155   */\n      tag_115\n        /* \"#utility.yul\":4149:4154   */\n      dup2\n        /* \"#utility.yul\":4133:4155   */\n      tag_62\n      jump\t// in\n    tag_115:\n        /* \"#utility.yul\":4126:4131   */\n      dup2\n        /* \"#utility.yul\":4123:4156   */\n      eq\n        /* \"#utility.yul\":4113:4174   */\n      tag_116\n      jumpi\n        /* \"#utility.yul\":4170:4171   */\n      0x00\n        /* \"#utility.yul\":4167:4168   */\n      dup1\n        /* \"#utility.yul\":4160:4172   */\n      revert\n        /* \"#utility.yul\":4113:4174   */\n    tag_116:\n        /* \"#utility.yul\":4062:4180   */\n      pop\n      jump\t// out\n        /* \"#utility.yul\":4186:4321   */\n    tag_64:\n        /* \"#utility.yul\":4230:4235   */\n      0x00\n        /* \"#utility.yul\":4268:4274   */\n      dup2\n        /* \"#utility.yul\":4255:4275   */\n      calldataload\n        /* \"#utility.yul\":4246:4275   */\n      swap1\n      pop\n        /* \"#utility.yul\":4284:4315   */\n      tag_118\n        /* \"#utility.yul\":4309:4314   */\n      dup2\n        /* \"#utility.yul\":4284:4315   */\n      tag_63\n      jump\t// in\n    tag_118:\n        /* \"#utility.yul\":4186:4321   */\n      swap3\n      swap2\n      pop\n      pop\n      jump\t// out\n        /* \"#utility.yul\":4327:4797   */\n    tag_13:\n        /* \"#utility.yul\":4393:4399   */\n      0x00\n        /* \"#utility.yul\":4401:4407   */\n      dup1\n        /* \"#utility.yul\":4450:4452   */\n      0x40\n        /* \"#utility.yul\":4438:4447   */\n      dup4\n        /* \"#utility.yul\":4429:4436   */\n      dup6\n        /* \"#utility.yul\":4425:4448   */\n      sub\n        /* \"#utility.yul\":4421:4453   */\n      slt\n        /* \"#utility.yul\":4418:4537   */\n      iszero\n      tag_120\n      jumpi\n        /* \"#utility.yul\":4456:4535   */\n      tag_121\n      tag_47\n      jump\t// in\n    tag_121:\n        /* \"#utility.yul\":4418:4537   */\n    tag_120:\n        /* \"#utility.yul\":4576:4577   */\n      0x00\n        /* \"#utility.yul\":4601:4654   */\n      tag_122\n        /* \"#utility.yul\":4646:4653   */\n      dup6\n        /* \"#utility.yul\":4637:4643   */\n      dup3\n        /* \"#utility.yul\":4626:4635   */\n      dup7\n        /* \"#utility.yul\":4622:4644   */\n      add\n        /* \"#utility.yul\":4601:4654   */\n      tag_52\n      jump\t// in\n    tag_122:\n        /* \"#utility.yul\":4591:4654   */\n      swap3\n      pop\n        /* \"#utility.yul\":4547:4664   */\n      pop\n        /* \"#utility.yul\":4703:4705   */\n      0x20\n        /* \"#utility.yul\":4729:4780   */\n      tag_123\n        /* \"#utility.yul\":4772:4779   */\n      dup6\n        /* \"#utility.yul\":4763:4769   */\n      dup3\n        /* \"#utility.yul\":4752:4761   */\n      dup7\n        /* \"#utility.yul\":4748:4770   */\n      add\n        /* \"#utility.yul\":4729:4780   */\n      tag_64\n      jump\t// in\n    tag_123:\n        /* \"#utility.yul\":4719:4780   */\n      swap2\n      pop\n        /* \"#utility.yul\":4674:4790   */\n      pop\n        /* \"#utility.yul\":4327:4797   */\n      swap3\n      pop\n      swap3\n      swap1\n      pop\n      jump\t// out\n        /* \"#utility.yul\":4803:4893   */\n    tag_65:\n        /* \"#utility.yul\":4837:4844   */\n      0x00\n        /* \"#utility.yul\":4880:4885   */\n      dup2\n        /* \"#utility.yul\":4873:4886   */\n      iszero\n        /* \"#utility.yul\":4866:4887   */\n      iszero\n        /* \"#utility.yul\":4855:4887   */\n      swap1\n      pop\n        /* \"#utility.yul\":4803:4893   */\n      swap2\n      swap1\n      pop\n      jump\t// out\n        /* \"#utility.yul\":4899:5008   */\n    tag_66:\n        /* \"#utility.yul\":4980:5001   */\n      tag_126\n        /* \"#utility.yul\":4995:5000   */\n      dup2\n        /* \"#utility.yul\":4980:5001   */\n      tag_65\n      jump\t// in\n    tag_126:\n        /* \"#utility.yul\":4975:4978   */\n      dup3\n        /* \"#utility.yul\":4968:5002   */\n      mstore\n        /* \"#utility.yul\":4899:5008   */\n      pop\n      pop\n      jump\t// out\n        /* \"#utility.yul\":5014:5224   */\n    tag_16:\n        /* \"#utility.yul\":5101:5105   */\n      0x00\n        /* \"#utility.yul\":5139:5141   */\n      0x20\n        /* \"#utility.yul\":5128:5137   */\n      dup3\n        /* \"#utility.yul\":5124:5142   */\n      add\n        /* \"#utility.yul\":5116:5142   */\n      swap1\n      pop\n        /* \"#utility.yul\":5152:5217   */\n      tag_128\n        /* \"#utility.yul\":5214:5215   */\n      0x00\n        /* \"#utility.yul\":5203:5212   */\n      dup4\n        /* \"#utility.yul\":5199:5216   */\n      add\n        /* \"#utility.yul\":5190:5196   */\n      dup5\n        /* \"#utility.yul\":5152:5217   */\n      tag_66\n      jump\t// in\n    tag_128:\n        /* \"#utility.yul\":5014:5224   */\n      swap3\n      swap2\n      pop\n      pop\n      jump\t// out\n        /* \"#utility.yul\":5230:5410   */\n    tag_67:\n        /* \"#utility.yul\":5278:5355   */\n      0x4e487b7100000000000000000000000000000000000000000000000000000000\n        /* \"#utility.yul\":5275:5276   */\n      0x00\n        /* \"#utility.yul\":5268:5356   */\n      mstore\n        /* \"#utility.yul\":5375:5379   */\n      0x22\n        /* \"#utility.yul\":5372:5373   */\n      0x04\n        /* \"#utility.yul\":5365:5380   */\n      mstore\n        /* \"#utility.yul\":5399:5403   */\n      0x24\n        /* \"#utility.yul\":5396:5397   */\n      0x00\n        /* \"#utility.yul\":5389:5404   */\n      revert\n        /* \"#utility.yul\":5416:5736   */\n    tag_21:\n        /* \"#utility.yul\":5460:5466   */\n      0x00\n        /* \"#utility.yul\":5497:5498   */\n      0x02\n        /* \"#utility.yul\":5491:5495   */\n      dup3\n        /* \"#utility.yul\":5487:5499   */\n      div\n        /* \"#utility.yul\":5477:5499   */\n      swap1\n      pop\n        /* \"#utility.yul\":5544:5545   */\n      0x01\n        /* \"#utility.yul\":5538:5542   */\n      dup3\n        /* \"#utility.yul\":5534:5546   */\n      and\n        /* \"#utility.yul\":5565:5583   */\n      dup1\n        /* \"#utility.yul\":5555:5636   */\n      tag_131\n      jumpi\n        /* \"#utility.yul\":5621:5625   */\n      0x7f\n        /* \"#utility.yul\":5613:5619   */\n      dup3\n        /* \"#utility.yul\":5609:5626   */\n      and\n        /* \"#utility.yul\":5599:5626   */\n      swap2\n      pop\n        /* \"#utility.yul\":5555:5636   */\n    tag_131:\n        /* \"#utility.yul\":5683:5685   */\n      0x20\n        /* \"#utility.yul\":5675:5681   */\n      dup3\n        /* \"#utility.yul\":5672:5686   */\n      lt\n        /* \"#utility.yul\":5652:5670   */\n      dup2\n        /* \"#utility.yul\":5649:5687   */\n      eq\n        /* \"#utility.yul\":5646:5730   */\n      iszero\n      tag_132\n      jumpi\n        /* \"#utility.yul\":5702:5720   */\n      tag_133\n      tag_67\n      jump\t// in\n    tag_133:\n        /* \"#utility.yul\":5646:5730   */\n    tag_132:\n        /* \"#utility.yul\":5467:5736   */\n      pop\n        /* \"#utility.yul\":5416:5736   */\n      swap2\n      swap1\n      pop\n      jump\t// out\n        /* \"#utility.yul\":5742:5911   */\n    tag_68:\n        /* \"#utility.yul\":5826:5837   */\n      0x00\n        /* \"#utility.yul\":5860:5866   */\n      dup3\n        /* \"#utility.yul\":5855:5858   */\n      dup3\n        /* \"#utility.yul\":5848:5867   */\n      mstore\n        /* \"#utility.yul\":5900:5904   */\n      0x20\n        /* \"#utility.yul\":5895:5898   */\n      dup3\n        /* \"#utility.yul\":5891:5905   */\n      add\n        /* \"#utility.yul\":5876:5905   */\n      swap1\n      pop\n        /* \"#utility.yul\":5742:5911   */\n      swap3\n      swap2\n      pop\n      pop\n      jump\t// out\n        /* \"#utility.yul\":5917:6077   */\n    tag_69:\n        /* \"#utility.yul\":6057:6069   */\n      0x4e6f742049737375657200000000000000000000000000000000000000000000\n        /* \"#utility.yul\":6053:6054   */\n      0x00\n        /* \"#utility.yul\":6045:6051   */\n      dup3\n        /* \"#utility.yul\":6041:6055   */\n      add\n        /* \"#utility.yul\":6034:6070   */\n      mstore\n        /* \"#utility.yul\":5917:6077   */\n      pop\n      jump\t// out\n        /* \"#utility.yul\":6083:6449   */\n    tag_70:\n        /* \"#utility.yul\":6225:6228   */\n      0x00\n        /* \"#utility.yul\":6246:6313   */\n      tag_137\n        /* \"#utility.yul\":6310:6312   */\n      0x0a\n        /* \"#utility.yul\":6305:6308   */\n      dup4\n        /* \"#utility.yul\":6246:6313   */\n      tag_68\n      jump\t// in\n    tag_137:\n        /* \"#utility.yul\":6239:6313   */\n      swap2\n      pop\n        /* \"#utility.yul\":6322:6415   */\n      tag_138\n        /* \"#utility.yul\":6411:6414   */\n      dup3\n        /* \"#utility.yul\":6322:6415   */\n      tag_69\n      jump\t// in\n    tag_138:\n        /* \"#utility.yul\":6440:6442   */\n      0x20\n        /* \"#utility.yul\":6435:6438   */\n      dup3\n        /* \"#utility.yul\":6431:6443   */\n      add\n        /* \"#utility.yul\":6424:6443   */\n      swap1\n      pop\n        /* \"#utility.yul\":6083:6449   */\n      swap2\n      swap1\n      pop\n      jump\t// out\n        /* \"#utility.yul\":6455:6874   */\n    tag_29:\n        /* \"#utility.yul\":6621:6625   */\n      0x00\n        /* \"#utility.yul\":6659:6661   */\n      0x20\n        /* \"#utility.yul\":6648:6657   */\n      dup3\n        /* \"#utility.yul\":6644:6662   */\n      add\n        /* \"#utility.yul\":6636:6662   */\n      swap1\n      pop\n        /* \"#utility.yul\":6708:6717   */\n      dup2\n        /* \"#utility.yul\":6702:6706   */\n      dup2\n        /* \"#utility.yul\":6698:6718   */\n      sub\n        /* \"#utility.yul\":6694:6695   */\n      0x00\n        /* \"#utility.yul\":6683:6692   */\n      dup4\n        /* \"#utility.yul\":6679:6696   */\n      add\n        /* \"#utility.yul\":6672:6719   */\n      mstore\n        /* \"#utility.yul\":6736:6867   */\n      tag_140\n        /* \"#utility.yul\":6862:6866   */\n      dup2\n        /* \"#utility.yul\":6736:6867   */\n      tag_70\n      jump\t// in\n    tag_140:\n        /* \"#utility.yul\":6728:6867   */\n      swap1\n      pop\n        /* \"#utility.yul\":6455:6874   */\n      swap2\n      swap1\n      pop\n      jump\t// out\n        /* \"#utility.yul\":6880:7060   */\n    tag_71:\n        /* \"#utility.yul\":6928:7005   */\n      0x4e487b7100000000000000000000000000000000000000000000000000000000\n        /* \"#utility.yul\":6925:6926   */\n      0x00\n        /* \"#utility.yul\":6918:7006   */\n      mstore\n        /* \"#utility.yul\":7025:7029   */\n      0x11\n        /* \"#utility.yul\":7022:7023   */\n      0x04\n        /* \"#utility.yul\":7015:7030   */\n      mstore\n        /* \"#utility.yul\":7049:7053   */\n      0x24\n        /* \"#utility.yul\":7046:7047   */\n      0x00\n        /* \"#utility.yul\":7039:7054   */\n      revert\n        /* \"#utility.yul\":7066:7371   */\n    tag_35:\n        /* \"#utility.yul\":7106:7109   */\n      0x00\n        /* \"#utility.yul\":7125:7145   */\n      tag_143\n        /* \"#utility.yul\":7143:7144   */\n      dup3\n        /* \"#utility.yul\":7125:7145   */\n      tag_53\n      jump\t// in\n    tag_143:\n        /* \"#utility.yul\":7120:7145   */\n      swap2\n      pop\n        /* \"#utility.yul\":7159:7179   */\n      tag_144\n        /* \"#utility.yul\":7177:7178   */\n      dup4\n        /* \"#utility.yul\":7159:7179   */\n      tag_53\n      jump\t// in\n    tag_144:\n        /* \"#utility.yul\":7154:7179   */\n      swap3\n      pop\n        /* \"#utility.yul\":7313:7314   */\n      dup3\n        /* \"#utility.yul\":7245:7311   */\n      0xffffffffffffffffffffffffffffffffffffffffffffffffffffffffffffffff\n        /* \"#utility.yul\":7241:7315   */\n      sub\n        /* \"#utility.yul\":7238:7239   */\n      dup3\n        /* \"#utility.yul\":7235:7316   */\n      gt\n        /* \"#utility.yul\":7232:7339   */\n      iszero\n      tag_145\n      jumpi\n        /* \"#utility.yul\":7319:7337   */\n      tag_146\n      tag_71\n      jump\t// in\n    tag_146:\n        /* \"#utility.yul\":7232:7339   */\n    tag_145:\n        /* \"#utility.yul\":7363:7364   */\n      dup3\n        /* \"#utility.yul\":7360:7361   */\n      dup3\n        /* \"#utility.yul\":7356:7365   */\n      add\n        /* \"#utility.yul\":7349:7365   */\n      swap1\n      pop\n        /* \"#utility.yul\":7066:7371   */\n      swap3\n      swap2\n      pop\n      pop\n      jump\t// out\n\n    auxdata: 0xa2646970667358221220b043945486297fcd274958963bbb51bd2d55f18653fea5fe6a92001b4aaf6b7c64736f6c634300080a0033\n}\n",
				"bytecode": {
					"linkReferences": {},
					"object": "608060405234801561001057600080fd5b50336000806101000a81548173ffffffffffffffffffffffffffffffffffffffff021916908373ffffffffffffffffffffffffffffffffffffffff160217905550600180819055506040518060400160405280600681526020017f5066697a65720000000000000000000000000000000000000000000000000000815250600260008060ff16815260200190815260200160002090805190602001906100b79291906101e0565b506040518060400160405280600781526020017f4d6f6465726e610000000000000000000000000000000000000000000000000081525060026000600160ff16815260200190815260200160002090805190602001906101189291906101e0565b506040518060400160405280600b81526020017f41737472615a656e65636100000000000000000000000000000000000000000081525060026000600260ff16815260200190815260200160002090805190602001906101799291906101e0565b506040518060400160405280600781526020017f4a616e7373656e0000000000000000000000000000000000000000000000000081525060026000600360ff16815260200190815260200160002090805190602001906101da9291906101e0565b506102e4565b8280546101ec906102b2565b90600052602060002090601f01602090048101928261020e5760008555610255565b82601f1061022757805160ff1916838001178555610255565b82800160010185558215610255579182015b82811115610254578251825591602001919060010190610239565b5b5090506102629190610266565b5090565b5b8082111561027f576000816000905550600101610267565b5090565b7f4e487b7100000000000000000000000000000000000000000000000000000000600052602260045260246000fd5b600060028204905060018216806102ca57607f821691505b602082108114156102de576102dd610283565b5b50919050565b61088a806102f36000396000f3fe608060405234801561001057600080fd5b50600436106100365760003560e01c8063ccdad14b1461003b578063defa395e1461006b575b600080fd5b610055600480360381019061005091906104cf565b61009b565b6040516100629190610620565b60405180910390f35b6100856004803603810190610080919061067b565b6101f0565b60405161009291906106d6565b60405180910390f35b6100a3610384565b600360008373ffffffffffffffffffffffffffffffffffffffff1673ffffffffffffffffffffffffffffffffffffffff16815260200190815260200160002060405180608001604052908160008201548152602001600182015481526020016002820160009054906101000a900473ffffffffffffffffffffffffffffffffffffffff1673ffffffffffffffffffffffffffffffffffffffff1673ffffffffffffffffffffffffffffffffffffffff16815260200160038201805461016790610720565b80601f016020809104026020016040519081016040528092919081815260200182805461019390610720565b80156101e05780601f106101b5576101008083540402835291602001916101e0565b820191906000526020600020905b8154815290600101906020018083116101c357829003601f168201915b5050505050815250509050919050565b60003373ffffffffffffffffffffffffffffffffffffffff1660008054906101000a900473ffffffffffffffffffffffffffffffffffffffff1673ffffffffffffffffffffffffffffffffffffffff1614610280576040517f08c379a0000000000000000000000000000000000000000000000000000000008152600401610277906107af565b60405180910390fd5b6000600360008573ffffffffffffffffffffffffffffffffffffffff1673ffffffffffffffffffffffffffffffffffffffff168152602001908152602001600020905060008160000154146102d457600080fd5b6001548160000181905550338160020160006101000a81548173ffffffffffffffffffffffffffffffffffffffff021916908373ffffffffffffffffffffffffffffffffffffffff160217905550600260008460ff1660ff1681526020019081526020016000208160030190805461034b90610720565b6103569291906103c2565b50428160010181905550600180600082825461037291906107fe565b92505081905550600191505092915050565b60405180608001604052806000815260200160008152602001600073ffffffffffffffffffffffffffffffffffffffff168152602001606081525090565b8280546103ce90610720565b90600052602060002090601f0160209004810192826103f0576000855561043e565b82601f10610401578054855561043e565b8280016001018555821561043e57600052602060002091601f016020900482015b8281111561043d578254825591600101919060010190610422565b5b50905061044b919061044f565b5090565b5b80821115610468576000816000905550600101610450565b5090565b600080fd5b600073ffffffffffffffffffffffffffffffffffffffff82169050919050565b600061049c82610471565b9050919050565b6104ac81610491565b81146104b757600080fd5b50565b6000813590506104c9816104a3565b92915050565b6000602082840312156104e5576104e461046c565b5b60006104f3848285016104ba565b91505092915050565b6000819050919050565b61050f816104fc565b82525050565b61051e81610491565b82525050565b600081519050919050565b600082825260208201905092915050565b60005b8381101561055e578082015181840152602081019050610543565b8381111561056d576000848401525b50505050565b6000601f19601f8301169050919050565b600061058f82610524565b610599818561052f565b93506105a9818560208601610540565b6105b281610573565b840191505092915050565b60006080830160008301516105d56000860182610506565b5060208301516105e86020860182610506565b5060408301516105fb6040860182610515565b50606083015184820360608601526106138282610584565b9150508091505092915050565b6000602082019050818103600083015261063a81846105bd565b905092915050565b600060ff82169050919050565b61065881610642565b811461066357600080fd5b50565b6000813590506106758161064f565b92915050565b600080604083850312156106925761069161046c565b5b60006106a0858286016104ba565b92505060206106b185828601610666565b9150509250929050565b60008115159050919050565b6106d0816106bb565b82525050565b60006020820190506106eb60008301846106c7565b92915050565b7f4e487b7100000000000000000000000000000000000000000000000000000000600052602260045260246000fd5b6000600282049050600182168061073857607f821691505b6020821081141561074c5761074b6106f1565b5b50919050565b600082825260208201905092915050565b7f4e6f742049737375657200000000000000000000000000000000000000000000600082015250565b6000610799600a83610752565b91506107a482610763565b602082019050919050565b600060208201905081810360008301526107c88161078c565b9050919050565b7f4e487b7100000000000000000000000000000000000000000000000000000000600052601160045260246000fd5b6000610809826104fc565b9150610814836104fc565b9250827fffffffffffffffffffffffffffffffffffffffffffffffffffffffffffffffff03821115610849576108486107cf565b5b82820190509291505056fea2646970667358221220b043945486297fcd274958963bbb51bd2d55f18653fea5fe6a92001b4aaf6b7c64736f6c634300080a0033",
					"opcodes": "PUSH1 0x80 PUSH1 0x40 MSTORE CALLVALUE DUP1 ISZERO PUSH2 0x10 JUMPI PUSH1 0x0 DUP1 REVERT JUMPDEST POP CALLER PUSH1 0x0 DUP1 PUSH2 0x100 EXP DUP2 SLOAD DUP2 PUSH20 0xFFFFFFFFFFFFFFFFFFFFFFFFFFFFFFFFFFFFFFFF MUL NOT AND SWAP1 DUP4 PUSH20 0xFFFFFFFFFFFFFFFFFFFFFFFFFFFFFFFFFFFFFFFF AND MUL OR SWAP1 SSTORE POP PUSH1 0x1 DUP1 DUP2 SWAP1 SSTORE POP PUSH1 0x40 MLOAD DUP1 PUSH1 0x40 ADD PUSH1 0x40 MSTORE DUP1 PUSH1 0x6 DUP2 MSTORE PUSH1 0x20 ADD PUSH32 0x5066697A65720000000000000000000000000000000000000000000000000000 DUP2 MSTORE POP PUSH1 0x2 PUSH1 0x0 DUP1 PUSH1 0xFF AND DUP2 MSTORE PUSH1 0x20 ADD SWAP1 DUP2 MSTORE PUSH1 0x20 ADD PUSH1 0x0 KECCAK256 SWAP1 DUP1 MLOAD SWAP1 PUSH1 0x20 ADD SWAP1 PUSH2 0xB7 SWAP3 SWAP2 SWAP1 PUSH2 0x1E0 JUMP JUMPDEST POP PUSH1 0x40 MLOAD DUP1 PUSH1 0x40 ADD PUSH1 0x40 MSTORE DUP1 PUSH1 0x7 DUP2 MSTORE PUSH1 0x20 ADD PUSH32 0x4D6F6465726E6100000000000000000000000000000000000000000000000000 DUP2 MSTORE POP PUSH1 0x2 PUSH1 0x0 PUSH1 0x1 PUSH1 0xFF AND DUP2 MSTORE PUSH1 0x20 ADD SWAP1 DUP2 MSTORE PUSH1 0x20 ADD PUSH1 0x0 KECCAK256 SWAP1 DUP1 MLOAD SWAP1 PUSH1 0x20 ADD SWAP1 PUSH2 0x118 SWAP3 SWAP2 SWAP1 PUSH2 0x1E0 JUMP JUMPDEST POP PUSH1 0x40 MLOAD DUP1 PUSH1 0x40 ADD PUSH1 0x40 MSTORE DUP1 PUSH1 0xB DUP2 MSTORE PUSH1 0x20 ADD PUSH32 0x41737472615A656E656361000000000000000000000000000000000000000000 DUP2 MSTORE POP PUSH1 0x2 PUSH1 0x0 PUSH1 0x2 PUSH1 0xFF AND DUP2 MSTORE PUSH1 0x20 ADD SWAP1 DUP2 MSTORE PUSH1 0x20 ADD PUSH1 0x0 KECCAK256 SWAP1 DUP1 MLOAD SWAP1 PUSH1 0x20 ADD SWAP1 PUSH2 0x179 SWAP3 SWAP2 SWAP1 PUSH2 0x1E0 JUMP JUMPDEST POP PUSH1 0x40 MLOAD DUP1 PUSH1 0x40 ADD PUSH1 0x40 MSTORE DUP1 PUSH1 0x7 DUP2 MSTORE PUSH1 0x20 ADD PUSH32 0x4A616E7373656E00000000000000000000000000000000000000000000000000 DUP2 MSTORE POP PUSH1 0x2 PUSH1 0x0 PUSH1 0x3 PUSH1 0xFF AND DUP2 MSTORE PUSH1 0x20 ADD SWAP1 DUP2 MSTORE PUSH1 0x20 ADD PUSH1 0x0 KECCAK256 SWAP1 DUP1 MLOAD SWAP1 PUSH1 0x20 ADD SWAP1 PUSH2 0x1DA SWAP3 SWAP2 SWAP1 PUSH2 0x1E0 JUMP JUMPDEST POP PUSH2 0x2E4 JUMP JUMPDEST DUP3 DUP1 SLOAD PUSH2 0x1EC SWAP1 PUSH2 0x2B2 JUMP JUMPDEST SWAP1 PUSH1 0x0 MSTORE PUSH1 0x20 PUSH1 0x0 KECCAK256 SWAP1 PUSH1 0x1F ADD PUSH1 0x20 SWAP1 DIV DUP2 ADD SWAP3 DUP3 PUSH2 0x20E JUMPI PUSH1 0x0 DUP6 SSTORE PUSH2 0x255 JUMP JUMPDEST DUP3 PUSH1 0x1F LT PUSH2 0x227 JUMPI DUP1 MLOAD PUSH1 0xFF NOT AND DUP4 DUP1 ADD OR DUP6 SSTORE PUSH2 0x255 JUMP JUMPDEST DUP3 DUP1 ADD PUSH1 0x1 ADD DUP6 SSTORE DUP3 ISZERO PUSH2 0x255 JUMPI SWAP2 DUP3 ADD JUMPDEST DUP3 DUP2 GT ISZERO PUSH2 0x254 JUMPI DUP3 MLOAD DUP3 SSTORE SWAP2 PUSH1 0x20 ADD SWAP2 SWAP1 PUSH1 0x1 ADD SWAP1 PUSH2 0x239 JUMP JUMPDEST JUMPDEST POP SWAP1 POP PUSH2 0x262 SWAP2 SWAP1 PUSH2 0x266 JUMP JUMPDEST POP SWAP1 JUMP JUMPDEST JUMPDEST DUP1 DUP3 GT ISZERO PUSH2 0x27F JUMPI PUSH1 0x0 DUP2 PUSH1 0x0 SWAP1 SSTORE POP PUSH1 0x1 ADD PUSH2 0x267 JUMP JUMPDEST POP SWAP1 JUMP JUMPDEST PUSH32 0x4E487B7100000000000000000000000000000000000000000000000000000000 PUSH1 0x0 MSTORE PUSH1 0x22 PUSH1 0x4 MSTORE PUSH1 0x24 PUSH1 0x0 REVERT JUMPDEST PUSH1 0x0 PUSH1 0x2 DUP3 DIV SWAP1 POP PUSH1 0x1 DUP3 AND DUP1 PUSH2 0x2CA JUMPI PUSH1 0x7F DUP3 AND SWAP2 POP JUMPDEST PUSH1 0x20 DUP3 LT DUP2 EQ ISZERO PUSH2 0x2DE JUMPI PUSH2 0x2DD PUSH2 0x283 JUMP JUMPDEST JUMPDEST POP SWAP2 SWAP1 POP JUMP JUMPDEST PUSH2 0x88A DUP1 PUSH2 0x2F3 PUSH1 0x0 CODECOPY PUSH1 0x0 RETURN INVALID PUSH1 0x80 PUSH1 0x40 MSTORE CALLVALUE DUP1 ISZERO PUSH2 0x10 JUMPI PUSH1 0x0 DUP1 REVERT JUMPDEST POP PUSH1 0x4 CALLDATASIZE LT PUSH2 0x36 JUMPI PUSH1 0x0 CALLDATALOAD PUSH1 0xE0 SHR DUP1 PUSH4 0xCCDAD14B EQ PUSH2 0x3B JUMPI DUP1 PUSH4 0xDEFA395E EQ PUSH2 0x6B JUMPI JUMPDEST PUSH1 0x0 DUP1 REVERT JUMPDEST PUSH2 0x55 PUSH1 0x4 DUP1 CALLDATASIZE SUB DUP2 ADD SWAP1 PUSH2 0x50 SWAP2 SWAP1 PUSH2 0x4CF JUMP JUMPDEST PUSH2 0x9B JUMP JUMPDEST PUSH1 0x40 MLOAD PUSH2 0x62 SWAP2 SWAP1 PUSH2 0x620 JUMP JUMPDEST PUSH1 0x40 MLOAD DUP1 SWAP2 SUB SWAP1 RETURN JUMPDEST PUSH2 0x85 PUSH1 0x4 DUP1 CALLDATASIZE SUB DUP2 ADD SWAP1 PUSH2 0x80 SWAP2 SWAP1 PUSH2 0x67B JUMP JUMPDEST PUSH2 0x1F0 JUMP JUMPDEST PUSH1 0x40 MLOAD PUSH2 0x92 SWAP2 SWAP1 PUSH2 0x6D6 JUMP JUMPDEST PUSH1 0x40 MLOAD DUP1 SWAP2 SUB SWAP1 RETURN JUMPDEST PUSH2 0xA3 PUSH2 0x384 JUMP JUMPDEST PUSH1 0x3 PUSH1 0x0 DUP4 PUSH20 0xFFFFFFFFFFFFFFFFFFFFFFFFFFFFFFFFFFFFFFFF AND PUSH20 0xFFFFFFFFFFFFFFFFFFFFFFFFFFFFFFFFFFFFFFFF AND DUP2 MSTORE PUSH1 0x20 ADD SWAP1 DUP2 MSTORE PUSH1 0x20 ADD PUSH1 0x0 KECCAK256 PUSH1 0x40 MLOAD DUP1 PUSH1 0x80 ADD PUSH1 0x40 MSTORE SWAP1 DUP2 PUSH1 0x0 DUP3 ADD SLOAD DUP2 MSTORE PUSH1 0x20 ADD PUSH1 0x1 DUP3 ADD SLOAD DUP2 MSTORE PUSH1 0x20 ADD PUSH1 0x2 DUP3 ADD PUSH1 0x0 SWAP1 SLOAD SWAP1 PUSH2 0x100 EXP SWAP1 DIV PUSH20 0xFFFFFFFFFFFFFFFFFFFFFFFFFFFFFFFFFFFFFFFF AND PUSH20 0xFFFFFFFFFFFFFFFFFFFFFFFFFFFFFFFFFFFFFFFF AND PUSH20 0xFFFFFFFFFFFFFFFFFFFFFFFFFFFFFFFFFFFFFFFF AND DUP2 MSTORE PUSH1 0x20 ADD PUSH1 0x3 DUP3 ADD DUP1 SLOAD PUSH2 0x167 SWAP1 PUSH2 0x720 JUMP JUMPDEST DUP1 PUSH1 0x1F ADD PUSH1 0x20 DUP1 SWAP2 DIV MUL PUSH1 0x20 ADD PUSH1 0x40 MLOAD SWAP1 DUP2 ADD PUSH1 0x40 MSTORE DUP1 SWAP3 SWAP2 SWAP1 DUP2 DUP2 MSTORE PUSH1 0x20 ADD DUP3 DUP1 SLOAD PUSH2 0x193 SWAP1 PUSH2 0x720 JUMP JUMPDEST DUP1 ISZERO PUSH2 0x1E0 JUMPI DUP1 PUSH1 0x1F LT PUSH2 0x1B5 JUMPI PUSH2 0x100 DUP1 DUP4 SLOAD DIV MUL DUP4 MSTORE SWAP2 PUSH1 0x20 ADD SWAP2 PUSH2 0x1E0 JUMP JUMPDEST DUP3 ADD SWAP2 SWAP1 PUSH1 0x0 MSTORE PUSH1 0x20 PUSH1 0x0 KECCAK256 SWAP1 JUMPDEST DUP2 SLOAD DUP2 MSTORE SWAP1 PUSH1 0x1 ADD SWAP1 PUSH1 0x20 ADD DUP1 DUP4 GT PUSH2 0x1C3 JUMPI DUP3 SWAP1 SUB PUSH1 0x1F AND DUP3 ADD SWAP2 JUMPDEST POP POP POP POP POP DUP2 MSTORE POP POP SWAP1 POP SWAP2 SWAP1 POP JUMP JUMPDEST PUSH1 0x0 CALLER PUSH20 0xFFFFFFFFFFFFFFFFFFFFFFFFFFFFFFFFFFFFFFFF AND PUSH1 0x0 DUP1 SLOAD SWAP1 PUSH2 0x100 EXP SWAP1 DIV PUSH20 0xFFFFFFFFFFFFFFFFFFFFFFFFFFFFFFFFFFFFFFFF AND PUSH20 0xFFFFFFFFFFFFFFFFFFFFFFFFFFFFFFFFFFFFFFFF AND EQ PUSH2 0x280 JUMPI PUSH1 0x40 MLOAD PUSH32 0x8C379A000000000000000000000000000000000000000000000000000000000 DUP2 MSTORE PUSH1 0x4 ADD PUSH2 0x277 SWAP1 PUSH2 0x7AF JUMP JUMPDEST PUSH1 0x40 MLOAD DUP1 SWAP2 SUB SWAP1 REVERT JUMPDEST PUSH1 0x0 PUSH1 0x3 PUSH1 0x0 DUP6 PUSH20 0xFFFFFFFFFFFFFFFFFFFFFFFFFFFFFFFFFFFFFFFF AND PUSH20 0xFFFFFFFFFFFFFFFFFFFFFFFFFFFFFFFFFFFFFFFF AND DUP2 MSTORE PUSH1 0x20 ADD SWAP1 DUP2 MSTORE PUSH1 0x20 ADD PUSH1 0x0 KECCAK256 SWAP1 POP PUSH1 0x0 DUP2 PUSH1 0x0 ADD SLOAD EQ PUSH2 0x2D4 JUMPI PUSH1 0x0 DUP1 REVERT JUMPDEST PUSH1 0x1 SLOAD DUP2 PUSH1 0x0 ADD DUP2 SWAP1 SSTORE POP CALLER DUP2 PUSH1 0x2 ADD PUSH1 0x0 PUSH2 0x100 EXP DUP2 SLOAD DUP2 PUSH20 0xFFFFFFFFFFFFFFFFFFFFFFFFFFFFFFFFFFFFFFFF MUL NOT AND SWAP1 DUP4 PUSH20 0xFFFFFFFFFFFFFFFFFFFFFFFFFFFFFFFFFFFFFFFF AND MUL OR SWAP1 SSTORE POP PUSH1 0x2 PUSH1 0x0 DUP5 PUSH1 0xFF AND PUSH1 0xFF AND DUP2 MSTORE PUSH1 0x20 ADD SWAP1 DUP2 MSTORE PUSH1 0x20 ADD PUSH1 0x0 KECCAK256 DUP2 PUSH1 0x3 ADD SWAP1 DUP1 SLOAD PUSH2 0x34B SWAP1 PUSH2 0x720 JUMP JUMPDEST PUSH2 0x356 SWAP3 SWAP2 SWAP1 PUSH2 0x3C2 JUMP JUMPDEST POP TIMESTAMP DUP2 PUSH1 0x1 ADD DUP2 SWAP1 SSTORE POP PUSH1 0x1 DUP1 PUSH1 0x0 DUP3 DUP3 SLOAD PUSH2 0x372 SWAP2 SWAP1 PUSH2 0x7FE JUMP JUMPDEST SWAP3 POP POP DUP2 SWAP1 SSTORE POP PUSH1 0x1 SWAP2 POP POP SWAP3 SWAP2 POP POP JUMP JUMPDEST PUSH1 0x40 MLOAD DUP1 PUSH1 0x80 ADD PUSH1 0x40 MSTORE DUP1 PUSH1 0x0 DUP2 MSTORE PUSH1 0x20 ADD PUSH1 0x0 DUP2 MSTORE PUSH1 0x20 ADD PUSH1 0x0 PUSH20 0xFFFFFFFFFFFFFFFFFFFFFFFFFFFFFFFFFFFFFFFF AND DUP2 MSTORE PUSH1 0x20 ADD PUSH1 0x60 DUP2 MSTORE POP SWAP1 JUMP JUMPDEST DUP3 DUP1 SLOAD PUSH2 0x3CE SWAP1 PUSH2 0x720 JUMP JUMPDEST SWAP1 PUSH1 0x0 MSTORE PUSH1 0x20 PUSH1 0x0 KECCAK256 SWAP1 PUSH1 0x1F ADD PUSH1 0x20 SWAP1 DIV DUP2 ADD SWAP3 DUP3 PUSH2 0x3F0 JUMPI PUSH1 0x0 DUP6 SSTORE PUSH2 0x43E JUMP JUMPDEST DUP3 PUSH1 0x1F LT PUSH2 0x401 JUMPI DUP1 SLOAD DUP6 SSTORE PUSH2 0x43E JUMP JUMPDEST DUP3 DUP1 ADD PUSH1 0x1 ADD DUP6 SSTORE DUP3 ISZERO PUSH2 0x43E JUMPI PUSH1 0x0 MSTORE PUSH1 0x20 PUSH1 0x0 KECCAK256 SWAP2 PUSH1 0x1F ADD PUSH1 0x20 SWAP1 DIV DUP3 ADD JUMPDEST DUP3 DUP2 GT ISZERO PUSH2 0x43D JUMPI DUP3 SLOAD DUP3 SSTORE SWAP2 PUSH1 0x1 ADD SWAP2 SWAP1 PUSH1 0x1 ADD SWAP1 PUSH2 0x422 JUMP JUMPDEST JUMPDEST POP SWAP1 POP PUSH2 0x44B SWAP2 SWAP1 PUSH2 0x44F JUMP JUMPDEST POP SWAP1 JUMP JUMPDEST JUMPDEST DUP1 DUP3 GT ISZERO PUSH2 0x468 JUMPI PUSH1 0x0 DUP2 PUSH1 0x0 SWAP1 SSTORE POP PUSH1 0x1 ADD PUSH2 0x450 JUMP JUMPDEST POP SWAP1 JUMP JUMPDEST PUSH1 0x0 DUP1 REVERT JUMPDEST PUSH1 0x0 PUSH20 0xFFFFFFFFFFFFFFFFFFFFFFFFFFFFFFFFFFFFFFFF DUP3 AND SWAP1 POP SWAP2 SWAP1 POP JUMP JUMPDEST PUSH1 0x0 PUSH2 0x49C DUP3 PUSH2 0x471 JUMP JUMPDEST SWAP1 POP SWAP2 SWAP1 POP JUMP JUMPDEST PUSH2 0x4AC DUP2 PUSH2 0x491 JUMP JUMPDEST DUP2 EQ PUSH2 0x4B7 JUMPI PUSH1 0x0 DUP1 REVERT JUMPDEST POP JUMP JUMPDEST PUSH1 0x0 DUP2 CALLDATALOAD SWAP1 POP PUSH2 0x4C9 DUP2 PUSH2 0x4A3 JUMP JUMPDEST SWAP3 SWAP2 POP POP JUMP JUMPDEST PUSH1 0x0 PUSH1 0x20 DUP3 DUP5 SUB SLT ISZERO PUSH2 0x4E5 JUMPI PUSH2 0x4E4 PUSH2 0x46C JUMP JUMPDEST JUMPDEST PUSH1 0x0 PUSH2 0x4F3 DUP5 DUP3 DUP6 ADD PUSH2 0x4BA JUMP JUMPDEST SWAP2 POP POP SWAP3 SWAP2 POP POP JUMP JUMPDEST PUSH1 0x0 DUP2 SWAP1 POP SWAP2 SWAP1 POP JUMP JUMPDEST PUSH2 0x50F DUP2 PUSH2 0x4FC JUMP JUMPDEST DUP3 MSTORE POP POP JUMP JUMPDEST PUSH2 0x51E DUP2 PUSH2 0x491 JUMP JUMPDEST DUP3 MSTORE POP POP JUMP JUMPDEST PUSH1 0x0 DUP2 MLOAD SWAP1 POP SWAP2 SWAP1 POP JUMP JUMPDEST PUSH1 0x0 DUP3 DUP3 MSTORE PUSH1 0x20 DUP3 ADD SWAP1 POP SWAP3 SWAP2 POP POP JUMP JUMPDEST PUSH1 0x0 JUMPDEST DUP4 DUP2 LT ISZERO PUSH2 0x55E JUMPI DUP1 DUP3 ADD MLOAD DUP2 DUP5 ADD MSTORE PUSH1 0x20 DUP2 ADD SWAP1 POP PUSH2 0x543 JUMP JUMPDEST DUP4 DUP2 GT ISZERO PUSH2 0x56D JUMPI PUSH1 0x0 DUP5 DUP5 ADD MSTORE JUMPDEST POP POP POP POP JUMP JUMPDEST PUSH1 0x0 PUSH1 0x1F NOT PUSH1 0x1F DUP4 ADD AND SWAP1 POP SWAP2 SWAP1 POP JUMP JUMPDEST PUSH1 0x0 PUSH2 0x58F DUP3 PUSH2 0x524 JUMP JUMPDEST PUSH2 0x599 DUP2 DUP6 PUSH2 0x52F JUMP JUMPDEST SWAP4 POP PUSH2 0x5A9 DUP2 DUP6 PUSH1 0x20 DUP7 ADD PUSH2 0x540 JUMP JUMPDEST PUSH2 0x5B2 DUP2 PUSH2 0x573 JUMP JUMPDEST DUP5 ADD SWAP2 POP POP SWAP3 SWAP2 POP POP JUMP JUMPDEST PUSH1 0x0 PUSH1 0x80 DUP4 ADD PUSH1 0x0 DUP4 ADD MLOAD PUSH2 0x5D5 PUSH1 0x0 DUP7 ADD DUP3 PUSH2 0x506 JUMP JUMPDEST POP PUSH1 0x20 DUP4 ADD MLOAD PUSH2 0x5E8 PUSH1 0x20 DUP7 ADD DUP3 PUSH2 0x506 JUMP JUMPDEST POP PUSH1 0x40 DUP4 ADD MLOAD PUSH2 0x5FB PUSH1 0x40 DUP7 ADD DUP3 PUSH2 0x515 JUMP JUMPDEST POP PUSH1 0x60 DUP4 ADD MLOAD DUP5 DUP3 SUB PUSH1 0x60 DUP7 ADD MSTORE PUSH2 0x613 DUP3 DUP3 PUSH2 0x584 JUMP JUMPDEST SWAP2 POP POP DUP1 SWAP2 POP POP SWAP3 SWAP2 POP POP JUMP JUMPDEST PUSH1 0x0 PUSH1 0x20 DUP3 ADD SWAP1 POP DUP2 DUP2 SUB PUSH1 0x0 DUP4 ADD MSTORE PUSH2 0x63A DUP2 DUP5 PUSH2 0x5BD JUMP JUMPDEST SWAP1 POP SWAP3 SWAP2 POP POP JUMP JUMPDEST PUSH1 0x0 PUSH1 0xFF DUP3 AND SWAP1 POP SWAP2 SWAP1 POP JUMP JUMPDEST PUSH2 0x658 DUP2 PUSH2 0x642 JUMP JUMPDEST DUP2 EQ PUSH2 0x663 JUMPI PUSH1 0x0 DUP1 REVERT JUMPDEST POP JUMP JUMPDEST PUSH1 0x0 DUP2 CALLDATALOAD SWAP1 POP PUSH2 0x675 DUP2 PUSH2 0x64F JUMP JUMPDEST SWAP3 SWAP2 POP POP JUMP JUMPDEST PUSH1 0x0 DUP1 PUSH1 0x40 DUP4 DUP6 SUB SLT ISZERO PUSH2 0x692 JUMPI PUSH2 0x691 PUSH2 0x46C JUMP JUMPDEST JUMPDEST PUSH1 0x0 PUSH2 0x6A0 DUP6 DUP3 DUP7 ADD PUSH2 0x4BA JUMP JUMPDEST SWAP3 POP POP PUSH1 0x20 PUSH2 0x6B1 DUP6 DUP3 DUP7 ADD PUSH2 0x666 JUMP JUMPDEST SWAP2 POP POP SWAP3 POP SWAP3 SWAP1 POP JUMP JUMPDEST PUSH1 0x0 DUP2 ISZERO ISZERO SWAP1 POP SWAP2 SWAP1 POP JUMP JUMPDEST PUSH2 0x6D0 DUP2 PUSH2 0x6BB JUMP JUMPDEST DUP3 MSTORE POP POP JUMP JUMPDEST PUSH1 0x0 PUSH1 0x20 DUP3 ADD SWAP1 POP PUSH2 0x6EB PUSH1 0x0 DUP4 ADD DUP5 PUSH2 0x6C7 JUMP JUMPDEST SWAP3 SWAP2 POP POP JUMP JUMPDEST PUSH32 0x4E487B7100000000000000000000000000000000000000000000000000000000 PUSH1 0x0 MSTORE PUSH1 0x22 PUSH1 0x4 MSTORE PUSH1 0x24 PUSH1 0x0 REVERT JUMPDEST PUSH1 0x0 PUSH1 0x2 DUP3 DIV SWAP1 POP PUSH1 0x1 DUP3 AND DUP1 PUSH2 0x738 JUMPI PUSH1 0x7F DUP3 AND SWAP2 POP JUMPDEST PUSH1 0x20 DUP3 LT DUP2 EQ ISZERO PUSH2 0x74C JUMPI PUSH2 0x74B PUSH2 0x6F1 JUMP JUMPDEST JUMPDEST POP SWAP2 SWAP1 POP JUMP JUMPDEST PUSH1 0x0 DUP3 DUP3 MSTORE PUSH1 0x20 DUP3 ADD SWAP1 POP SWAP3 SWAP2 POP POP JUMP JUMPDEST PUSH32 0x4E6F742049737375657200000000000000000000000000000000000000000000 PUSH1 0x0 DUP3 ADD MSTORE POP JUMP JUMPDEST PUSH1 0x0 PUSH2 0x799 PUSH1 0xA DUP4 PUSH2 0x752 JUMP JUMPDEST SWAP2 POP PUSH2 0x7A4 DUP3 PUSH2 0x763 JUMP JUMPDEST PUSH1 0x20 DUP3 ADD SWAP1 POP SWAP2 SWAP1 POP JUMP JUMPDEST PUSH1 0x0 PUSH1 0x20 DUP3 ADD SWAP1 POP DUP2 DUP2 SUB PUSH1 0x0 DUP4 ADD MSTORE PUSH2 0x7C8 DUP2 PUSH2 0x78C JUMP JUMPDEST SWAP1 POP SWAP2 SWAP1 POP JUMP JUMPDEST PUSH32 0x4E487B7100000000000000000000000000000000000000000000000000000000 PUSH1 0x0 MSTORE PUSH1 0x11 PUSH1 0x4 MSTORE PUSH1 0x24 PUSH1 0x0 REVERT JUMPDEST PUSH1 0x0 PUSH2 0x809 DUP3 PUSH2 0x4FC JUMP JUMPDEST SWAP2 POP PUSH2 0x814 DUP4 PUSH2 0x4FC JUMP JUMPDEST SWAP3 POP DUP3 PUSH32 0xFFFFFFFFFFFFFFFFFFFFFFFFFFFFFFFFFFFFFFFFFFFFFFFFFFFFFFFFFFFFFFFF SUB DUP3 GT ISZERO PUSH2 0x849 JUMPI PUSH2 0x848 PUSH2 0x7CF JUMP JUMPDEST JUMPDEST DUP3 DUP3 ADD SWAP1 POP SWAP3 SWAP2 POP POP JUMP INVALID LOG2 PUSH5 0x6970667358 0x22 SLT KECCAK256 0xB0 NUMBER SWAP5 SLOAD DUP7 0x29 PUSH32 0xCD274958963BBB51BD2D55F18653FEA5FE6A92001B4AAF6B7C64736F6C634300 ADDMOD EXP STOP CALLER "
				},
				"gasEstimates": {
					"creation": {
						"codeDepositCost": "437200",
						"executionCost": "infinite",
						"totalCost": "infinite"
					},
					"external": {
						"claimCredential(address,uint8)": "infinite",
						"getCredential(address)": "infinite"
					}
				},
				"methodIdentifiers": {
					"claimCredential(address,uint8)": "defa395e",
					"getCredential(address)": "ccdad14b"
				}
			},
			"userdoc": {
				"kind": "user",
				"methods": {},
				"version": 1
			}
		}
	}
}