{
	"did-vaccine.sol": {
		"VaccineCredential": {
			"abi": [
				{
					"inputs": [],
					"stateMutability": "nonpayable",
					"type": "constructor"
				},
				{
					"inputs": [
						{
							"internalType": "address",
							"name": "_applicantAddress",
							"type": "address"
						},
						{
							"internalType": "uint8",
							"name": "_vaccineType",
							"type": "uint8"
						},
						{
							"internalType": "string",
							"name": "_value",
							"type": "string"
						}
					],
					"name": "claimCredential",
					"outputs": [
						{
							"internalType": "bool",
							"name": "",
							"type": "bool"
						}
					],
					"stateMutability": "nonpayable",
					"type": "function"
				},
				{
					"inputs": [
						{
							"internalType": "address",
							"name": "_applicantAddress",
							"type": "address"
						}
					],
					"name": "getCredential",
					"outputs": [
						{
							"components": [
								{
									"internalType": "uint256",
									"name": "id",
									"type": "uint256"
								},
								{
									"internalType": "address",
									"name": "issuer",
									"type": "address"
								},
								{
									"internalType": "uint8",
									"name": "vaccineType",
									"type": "uint8"
								},
								{
									"internalType": "string",
									"name": "value",
									"type": "string"
								}
							],
							"internalType": "struct VaccineCredential.Credential",
							"name": "",
							"type": "tuple"
						}
					],
					"stateMutability": "view",
					"type": "function"
				}
			],
			"devdoc": {
				"kind": "dev",
				"methods": {},
				"version": 1
			},
			"evm": {
				"assembly": "    /* \"did-vaccine.sol\":61:1226  contract VaccineCredential {... */\n  mstore(0x40, 0x80)\n    /* \"did-vaccine.sol\":390:615  constructor() {... */\n  callvalue\n  dup1\n  iszero\n  tag_1\n  jumpi\n  0x00\n  dup1\n  revert\ntag_1:\n  pop\n    /* \"did-vaccine.sol\":430:440  msg.sender */\n  caller\n    /* \"did-vaccine.sol\":414:427  issuerAddress */\n  0x00\n  dup1\n    /* \"did-vaccine.sol\":414:440  issuerAddress = msg.sender */\n  0x0100\n  exp\n  dup2\n  sload\n  dup2\n  0xffffffffffffffffffffffffffffffffffffffff\n  mul\n  not\n  and\n  swap1\n  dup4\n  0xffffffffffffffffffffffffffffffffffffffff\n  and\n  mul\n  or\n  swap1\n  sstore\n  pop\n    /* \"did-vaccine.sol\":460:461  1 */\n  0x01\n    /* \"did-vaccine.sol\":450:457  idCount */\n  dup1\n    /* \"did-vaccine.sol\":450:461  idCount = 1 */\n  dup2\n  swap1\n  sstore\n  pop\n    /* \"did-vaccine.sol\":471:496  vaccineEnum[0] = \"Pfizer\" */\n  mload(0x40)\n  dup1\n  0x40\n  add\n  0x40\n  mstore\n  dup1\n  0x06\n  dup2\n  mstore\n  0x20\n  add\n  0x5066697a65720000000000000000000000000000000000000000000000000000\n  dup2\n  mstore\n  pop\n    /* \"did-vaccine.sol\":471:482  vaccineEnum */\n  0x02\n    /* \"did-vaccine.sol\":471:485  vaccineEnum[0] */\n  0x00\n    /* \"did-vaccine.sol\":483:484  0 */\n  dup1\n    /* \"did-vaccine.sol\":471:485  vaccineEnum[0] */\n  0xff\n  and\n  dup2\n  mstore\n  0x20\n  add\n  swap1\n  dup2\n  mstore\n  0x20\n  add\n  0x00\n  keccak256\n    /* \"did-vaccine.sol\":471:496  vaccineEnum[0] = \"Pfizer\" */\n  swap1\n  dup1\n  mload\n  swap1\n  0x20\n  add\n  swap1\n  tag_4\n  swap3\n  swap2\n  swap1\n  tag_5\n  jump\t// in\ntag_4:\n  pop\n    /* \"did-vaccine.sol\":506:532  vaccineEnum[1] = \"Moderna\" */\n  mload(0x40)\n  dup1\n  0x40\n  add\n  0x40\n  mstore\n  dup1\n  0x07\n  dup2\n  mstore\n  0x20\n  add\n  0x4d6f6465726e6100000000000000000000000000000000000000000000000000\n  dup2\n  mstore\n  pop\n    /* \"did-vaccine.sol\":506:517  vaccineEnum */\n  0x02\n    /* \"did-vaccine.sol\":506:520  vaccineEnum[1] */\n  0x00\n    /* \"did-vaccine.sol\":518:519  1 */\n  0x01\n    /* \"did-vaccine.sol\":506:520  vaccineEnum[1] */\n  0xff\n  and\n  dup2\n  mstore\n  0x20\n  add\n  swap1\n  dup2\n  mstore\n  0x20\n  add\n  0x00\n  keccak256\n    /* \"did-vaccine.sol\":506:532  vaccineEnum[1] = \"Moderna\" */\n  swap1\n  dup1\n  mload\n  swap1\n  0x20\n  add\n  swap1\n  tag_6\n  swap3\n  swap2\n  swap1\n  tag_5\n  jump\t// in\ntag_6:\n  pop\n    /* \"did-vaccine.sol\":542:572  vaccineEnum[2] = \"AstraZeneca\" */\n  mload(0x40)\n  dup1\n  0x40\n  add\n  0x40\n  mstore\n  dup1\n  0x0b\n  dup2\n  mstore\n  0x20\n  add\n  0x41737472615a656e656361000000000000000000000000000000000000000000\n  dup2\n  mstore\n  pop\n    /* \"did-vaccine.sol\":542:553  vaccineEnum */\n  0x02\n    /* \"did-vaccine.sol\":542:556  vaccineEnum[2] */\n  0x00\n    /* \"did-vaccine.sol\":554:555  2 */\n  0x02\n    /* \"did-vaccine.sol\":542:556  vaccineEnum[2] */\n  0xff\n  and\n  dup2\n  mstore\n  0x20\n  add\n  swap1\n  dup2\n  mstore\n  0x20\n  add\n  0x00\n  keccak256\n    /* \"did-vaccine.sol\":542:572  vaccineEnum[2] = \"AstraZeneca\" */\n  swap1\n  dup1\n  mload\n  swap1\n  0x20\n  add\n  swap1\n  tag_7\n  swap3\n  swap2\n  swap1\n  tag_5\n  jump\t// in\ntag_7:\n  pop\n    /* \"did-vaccine.sol\":582:608  vaccineEnum[3] = \"Janssen\" */\n  mload(0x40)\n  dup1\n  0x40\n  add\n  0x40\n  mstore\n  dup1\n  0x07\n  dup2\n  mstore\n  0x20\n  add\n  0x4a616e7373656e00000000000000000000000000000000000000000000000000\n  dup2\n  mstore\n  pop\n    /* \"did-vaccine.sol\":582:593  vaccineEnum */\n  0x02\n    /* \"did-vaccine.sol\":582:596  vaccineEnum[3] */\n  0x00\n    /* \"did-vaccine.sol\":594:595  3 */\n  0x03\n    /* \"did-vaccine.sol\":582:596  vaccineEnum[3] */\n  0xff\n  and\n  dup2\n  mstore\n  0x20\n  add\n  swap1\n  dup2\n  mstore\n  0x20\n  add\n  0x00\n  keccak256\n    /* \"did-vaccine.sol\":582:608  vaccineEnum[3] = \"Janssen\" */\n  swap1\n  dup1\n  mload\n  swap1\n  0x20\n  add\n  swap1\n  tag_8\n  swap3\n  swap2\n  swap1\n  tag_5\n  jump\t// in\ntag_8:\n  pop\n    /* \"did-vaccine.sol\":61:1226  contract VaccineCredential {... */\n  jump(tag_9)\ntag_5:\n  dup3\n  dup1\n  sload\n  tag_10\n  swap1\n  tag_11\n  jump\t// in\ntag_10:\n  swap1\n  0x00\n  mstore\n  keccak256(0x00, 0x20)\n  swap1\n  0x1f\n  add\n  0x20\n  swap1\n  div\n  dup2\n  add\n  swap3\n  dup3\n  tag_13\n  jumpi\n  0x00\n  dup6\n  sstore\n  jump(tag_12)\ntag_13:\n  dup3\n  0x1f\n  lt\n  tag_14\n  jumpi\n  dup1\n  mload\n  not(0xff)\n  and\n  dup4\n  dup1\n  add\n  or\n  dup6\n  sstore\n  jump(tag_12)\ntag_14:\n  dup3\n  dup1\n  add\n  0x01\n  add\n  dup6\n  sstore\n  dup3\n  iszero\n  tag_12\n  jumpi\n  swap2\n  dup3\n  add\ntag_15:\n  dup3\n  dup2\n  gt\n  iszero\n  tag_16\n  jumpi\n  dup3\n  mload\n  dup3\n  sstore\n  swap2\n  0x20\n  add\n  swap2\n  swap1\n  0x01\n  add\n  swap1\n  jump(tag_15)\ntag_16:\ntag_12:\n  pop\n  swap1\n  pop\n  tag_17\n  swap2\n  swap1\n  tag_18\n  jump\t// in\ntag_17:\n  pop\n  swap1\n  jump\t// out\ntag_18:\ntag_19:\n  dup1\n  dup3\n  gt\n  iszero\n  tag_20\n  jumpi\n  0x00\n  dup2\n  0x00\n  swap1\n  sstore\n  pop\n  0x01\n  add\n  jump(tag_19)\ntag_20:\n  pop\n  swap1\n  jump\t// out\n    /* \"#utility.yul\":7:187   */\ntag_21:\n    /* \"#utility.yul\":55:132   */\n  0x4e487b7100000000000000000000000000000000000000000000000000000000\n    /* \"#utility.yul\":52:53   */\n  0x00\n    /* \"#utility.yul\":45:133   */\n  mstore\n    /* \"#utility.yul\":152:156   */\n  0x22\n    /* \"#utility.yul\":149:150   */\n  0x04\n    /* \"#utility.yul\":142:157   */\n  mstore\n    /* \"#utility.yul\":176:180   */\n  0x24\n    /* \"#utility.yul\":173:174   */\n  0x00\n    /* \"#utility.yul\":166:181   */\n  revert\n    /* \"#utility.yul\":193:513   */\ntag_11:\n    /* \"#utility.yul\":237:243   */\n  0x00\n    /* \"#utility.yul\":274:275   */\n  0x02\n    /* \"#utility.yul\":268:272   */\n  dup3\n    /* \"#utility.yul\":264:276   */\n  div\n    /* \"#utility.yul\":254:276   */\n  swap1\n  pop\n    /* \"#utility.yul\":321:322   */\n  0x01\n    /* \"#utility.yul\":315:319   */\n  dup3\n    /* \"#utility.yul\":311:323   */\n  and\n    /* \"#utility.yul\":342:360   */\n  dup1\n    /* \"#utility.yul\":332:413   */\n  tag_25\n  jumpi\n    /* \"#utility.yul\":398:402   */\n  0x7f\n    /* \"#utility.yul\":390:396   */\n  dup3\n    /* \"#utility.yul\":386:403   */\n  and\n    /* \"#utility.yul\":376:403   */\n  swap2\n  pop\n    /* \"#utility.yul\":332:413   */\ntag_25:\n    /* \"#utility.yul\":460:462   */\n  0x20\n    /* \"#utility.yul\":452:458   */\n  dup3\n    /* \"#utility.yul\":449:463   */\n  lt\n    /* \"#utility.yul\":429:447   */\n  dup2\n    /* \"#utility.yul\":426:464   */\n  eq\n    /* \"#utility.yul\":423:507   */\n  iszero\n  tag_26\n  jumpi\n    /* \"#utility.yul\":479:497   */\n  tag_27\n  tag_21\n  jump\t// in\ntag_27:\n    /* \"#utility.yul\":423:507   */\ntag_26:\n    /* \"#utility.yul\":244:513   */\n  pop\n    /* \"#utility.yul\":193:513   */\n  swap2\n  swap1\n  pop\n  jump\t// out\n    /* \"did-vaccine.sol\":61:1226  contract VaccineCredential {... */\ntag_9:\n  dataSize(sub_0)\n  dup1\n  dataOffset(sub_0)\n  0x00\n  codecopy\n  0x00\n  return\nstop\n\nsub_0: assembly {\n        /* \"did-vaccine.sol\":61:1226  contract VaccineCredential {... */\n      mstore(0x40, 0x80)\n      callvalue\n      dup1\n      iszero\n      tag_1\n      jumpi\n      0x00\n      dup1\n      revert\n    tag_1:\n      pop\n      jumpi(tag_2, lt(calldatasize, 0x04))\n      shr(0xe0, calldataload(0x00))\n      dup1\n      0x617ae364\n      eq\n      tag_3\n      jumpi\n      dup1\n      0xccdad14b\n      eq\n      tag_4\n      jumpi\n    tag_2:\n      0x00\n      dup1\n      revert\n        /* \"did-vaccine.sol\":621:1113  function claimCredential(address _applicantAddress, uint8 _vaccineType, string calldata _value) public returns(bool) {... */\n    tag_3:\n      tag_5\n      0x04\n      dup1\n      calldatasize\n      sub\n      dup2\n      add\n      swap1\n      tag_6\n      swap2\n      swap1\n      tag_7\n      jump\t// in\n    tag_6:\n      tag_8\n      jump\t// in\n    tag_5:\n      mload(0x40)\n      tag_9\n      swap2\n      swap1\n      tag_10\n      jump\t// in\n    tag_9:\n      mload(0x40)\n      dup1\n      swap2\n      sub\n      swap1\n      return\n        /* \"did-vaccine.sol\":1119:1224  function getCredential(address _applicantAddress) public view returns(Credential memory) {... */\n    tag_4:\n      tag_11\n      0x04\n      dup1\n      calldatasize\n      sub\n      dup2\n      add\n      swap1\n      tag_12\n      swap2\n      swap1\n      tag_13\n      jump\t// in\n    tag_12:\n      tag_14\n      jump\t// in\n    tag_11:\n      mload(0x40)\n      tag_15\n      swap2\n      swap1\n      tag_16\n      jump\t// in\n    tag_15:\n      mload(0x40)\n      dup1\n      swap2\n      sub\n      swap1\n      return\n        /* \"did-vaccine.sol\":621:1113  function claimCredential(address _applicantAddress, uint8 _vaccineType, string calldata _value) public returns(bool) {... */\n    tag_8:\n        /* \"did-vaccine.sol\":732:736  bool */\n      0x00\n        /* \"did-vaccine.sol\":773:783  msg.sender */\n      caller\n        /* \"did-vaccine.sol\":756:783  issuerAddress == msg.sender */\n      0xffffffffffffffffffffffffffffffffffffffff\n      and\n        /* \"did-vaccine.sol\":756:769  issuerAddress */\n      0x00\n      dup1\n      sload\n      swap1\n      0x0100\n      exp\n      swap1\n      div\n      0xffffffffffffffffffffffffffffffffffffffff\n      and\n        /* \"did-vaccine.sol\":756:783  issuerAddress == msg.sender */\n      0xffffffffffffffffffffffffffffffffffffffff\n      and\n      eq\n        /* \"did-vaccine.sol\":748:798  require(issuerAddress == msg.sender, \"Not Issuer\") */\n      tag_18\n      jumpi\n      mload(0x40)\n      0x08c379a000000000000000000000000000000000000000000000000000000000\n      dup2\n      mstore\n      0x04\n      add\n      tag_19\n      swap1\n      tag_20\n      jump\t// in\n    tag_19:\n      mload(0x40)\n      dup1\n      swap2\n      sub\n      swap1\n      revert\n    tag_18:\n        /* \"did-vaccine.sol\":808:837  Credential storage credential */\n      0x00\n        /* \"did-vaccine.sol\":840:851  credentials */\n      0x03\n        /* \"did-vaccine.sol\":840:870  credentials[_applicantAddress] */\n      0x00\n        /* \"did-vaccine.sol\":852:869  _applicantAddress */\n      dup8\n        /* \"did-vaccine.sol\":840:870  credentials[_applicantAddress] */\n      0xffffffffffffffffffffffffffffffffffffffff\n      and\n      0xffffffffffffffffffffffffffffffffffffffff\n      and\n      dup2\n      mstore\n      0x20\n      add\n      swap1\n      dup2\n      mstore\n      0x20\n      add\n      0x00\n      keccak256\n        /* \"did-vaccine.sol\":808:870  Credential storage credential = credentials[_applicantAddress] */\n      swap1\n      pop\n        /* \"did-vaccine.sol\":905:906  0 */\n      0x00\n        /* \"did-vaccine.sol\":888:898  credential */\n      dup2\n        /* \"did-vaccine.sol\":888:901  credential.id */\n      0x00\n      add\n      sload\n        /* \"did-vaccine.sol\":888:906  credential.id == 0 */\n      eq\n        /* \"did-vaccine.sol\":880:907  require(credential.id == 0) */\n      tag_21\n      jumpi\n      0x00\n      dup1\n      revert\n    tag_21:\n        /* \"did-vaccine.sol\":933:940  idCount */\n      sload(0x01)\n        /* \"did-vaccine.sol\":917:927  credential */\n      dup2\n        /* \"did-vaccine.sol\":917:930  credential.id */\n      0x00\n      add\n        /* \"did-vaccine.sol\":917:940  credential.id = idCount */\n      dup2\n      swap1\n      sstore\n      pop\n        /* \"did-vaccine.sol\":970:980  msg.sender */\n      caller\n        /* \"did-vaccine.sol\":950:960  credential */\n      dup2\n        /* \"did-vaccine.sol\":950:967  credential.issuer */\n      0x01\n      add\n      0x00\n        /* \"did-vaccine.sol\":950:980  credential.issuer = msg.sender */\n      0x0100\n      exp\n      dup2\n      sload\n      dup2\n      0xffffffffffffffffffffffffffffffffffffffff\n      mul\n      not\n      and\n      swap1\n      dup4\n      0xffffffffffffffffffffffffffffffffffffffff\n      and\n      mul\n      or\n      swap1\n      sstore\n      pop\n        /* \"did-vaccine.sol\":1015:1027  _vaccineType */\n      dup5\n        /* \"did-vaccine.sol\":990:1000  credential */\n      dup2\n        /* \"did-vaccine.sol\":990:1012  credential.vaccineType */\n      0x01\n      add\n      0x14\n        /* \"did-vaccine.sol\":990:1027  credential.vaccineType = _vaccineType */\n      0x0100\n      exp\n      dup2\n      sload\n      dup2\n      0xff\n      mul\n      not\n      and\n      swap1\n      dup4\n      0xff\n      and\n      mul\n      or\n      swap1\n      sstore\n      pop\n        /* \"did-vaccine.sol\":1056:1062  _value */\n      dup4\n      dup4\n        /* \"did-vaccine.sol\":1037:1047  credential */\n      dup3\n        /* \"did-vaccine.sol\":1037:1053  credential.value */\n      0x02\n      add\n        /* \"did-vaccine.sol\":1037:1062  credential.value = _value */\n      swap2\n      swap1\n      tag_22\n      swap3\n      swap2\n      swap1\n      tag_23\n      jump\t// in\n    tag_22:\n      pop\n        /* \"did-vaccine.sol\":1084:1085  1 */\n      0x01\n        /* \"did-vaccine.sol\":1073:1080  idCount */\n      dup1\n      0x00\n        /* \"did-vaccine.sol\":1073:1085  idCount += 1 */\n      dup3\n      dup3\n      sload\n      tag_24\n      swap2\n      swap1\n      tag_25\n      jump\t// in\n    tag_24:\n      swap3\n      pop\n      pop\n      dup2\n      swap1\n      sstore\n      pop\n        /* \"did-vaccine.sol\":1102:1106  true */\n      0x01\n        /* \"did-vaccine.sol\":1095:1106  return true */\n      swap2\n      pop\n      pop\n        /* \"did-vaccine.sol\":621:1113  function claimCredential(address _applicantAddress, uint8 _vaccineType, string calldata _value) public returns(bool) {... */\n      swap5\n      swap4\n      pop\n      pop\n      pop\n      pop\n      jump\t// out\n        /* \"did-vaccine.sol\":1119:1224  function getCredential(address _applicantAddress) public view returns(Credential memory) {... */\n    tag_14:\n        /* \"did-vaccine.sol\":1189:1206  Credential memory */\n      tag_26\n      tag_27\n      jump\t// in\n    tag_26:\n        /* \"did-vaccine.sol\":1119:1224  function getCredential(address _applicantAddress) public view returns(Credential memory) {... */\n      swap2\n      swap1\n      pop\n      jump\t// out\n    tag_23:\n      dup3\n      dup1\n      sload\n      tag_29\n      swap1\n      tag_30\n      jump\t// in\n    tag_29:\n      swap1\n      0x00\n      mstore\n      keccak256(0x00, 0x20)\n      swap1\n      0x1f\n      add\n      0x20\n      swap1\n      div\n      dup2\n      add\n      swap3\n      dup3\n      tag_32\n      jumpi\n      0x00\n      dup6\n      sstore\n      jump(tag_31)\n    tag_32:\n      dup3\n      0x1f\n      lt\n      tag_33\n      jumpi\n      dup1\n      calldataload\n      not(0xff)\n      and\n      dup4\n      dup1\n      add\n      or\n      dup6\n      sstore\n      jump(tag_31)\n    tag_33:\n      dup3\n      dup1\n      add\n      0x01\n      add\n      dup6\n      sstore\n      dup3\n      iszero\n      tag_31\n      jumpi\n      swap2\n      dup3\n      add\n    tag_34:\n      dup3\n      dup2\n      gt\n      iszero\n      tag_35\n      jumpi\n      dup3\n      calldataload\n      dup3\n      sstore\n      swap2\n      0x20\n      add\n      swap2\n      swap1\n      0x01\n      add\n      swap1\n      jump(tag_34)\n    tag_35:\n    tag_31:\n      pop\n      swap1\n      pop\n      tag_36\n      swap2\n      swap1\n      tag_37\n      jump\t// in\n    tag_36:\n      pop\n      swap1\n      jump\t// out\n    tag_27:\n      mload(0x40)\n      dup1\n      0x80\n      add\n      0x40\n      mstore\n      dup1\n      0x00\n      dup2\n      mstore\n      0x20\n      add\n      and(0xffffffffffffffffffffffffffffffffffffffff, 0x00)\n      dup2\n      mstore\n      0x20\n      add\n      and(0xff, 0x00)\n      dup2\n      mstore\n      0x20\n      add\n      0x60\n      dup2\n      mstore\n      pop\n      swap1\n      jump\t// out\n    tag_37:\n    tag_38:\n      dup1\n      dup3\n      gt\n      iszero\n      tag_39\n      jumpi\n      0x00\n      dup2\n      0x00\n      swap1\n      sstore\n      pop\n      0x01\n      add\n      jump(tag_38)\n    tag_39:\n      pop\n      swap1\n      jump\t// out\n        /* \"#utility.yul\":88:205   */\n    tag_41:\n        /* \"#utility.yul\":197:198   */\n      0x00\n        /* \"#utility.yul\":194:195   */\n      dup1\n        /* \"#utility.yul\":187:199   */\n      revert\n        /* \"#utility.yul\":211:328   */\n    tag_42:\n        /* \"#utility.yul\":320:321   */\n      0x00\n        /* \"#utility.yul\":317:318   */\n      dup1\n        /* \"#utility.yul\":310:322   */\n      revert\n        /* \"#utility.yul\":334:460   */\n    tag_43:\n        /* \"#utility.yul\":371:378   */\n      0x00\n        /* \"#utility.yul\":411:453   */\n      0xffffffffffffffffffffffffffffffffffffffff\n        /* \"#utility.yul\":404:409   */\n      dup3\n        /* \"#utility.yul\":400:454   */\n      and\n        /* \"#utility.yul\":389:454   */\n      swap1\n      pop\n        /* \"#utility.yul\":334:460   */\n      swap2\n      swap1\n      pop\n      jump\t// out\n        /* \"#utility.yul\":466:562   */\n    tag_44:\n        /* \"#utility.yul\":503:510   */\n      0x00\n        /* \"#utility.yul\":532:556   */\n      tag_77\n        /* \"#utility.yul\":550:555   */\n      dup3\n        /* \"#utility.yul\":532:556   */\n      tag_43\n      jump\t// in\n    tag_77:\n        /* \"#utility.yul\":521:556   */\n      swap1\n      pop\n        /* \"#utility.yul\":466:562   */\n      swap2\n      swap1\n      pop\n      jump\t// out\n        /* \"#utility.yul\":568:690   */\n    tag_45:\n        /* \"#utility.yul\":641:665   */\n      tag_79\n        /* \"#utility.yul\":659:664   */\n      dup2\n        /* \"#utility.yul\":641:665   */\n      tag_44\n      jump\t// in\n    tag_79:\n        /* \"#utility.yul\":634:639   */\n      dup2\n        /* \"#utility.yul\":631:666   */\n      eq\n        /* \"#utility.yul\":621:684   */\n      tag_80\n      jumpi\n        /* \"#utility.yul\":680:681   */\n      0x00\n        /* \"#utility.yul\":677:678   */\n      dup1\n        /* \"#utility.yul\":670:682   */\n      revert\n        /* \"#utility.yul\":621:684   */\n    tag_80:\n        /* \"#utility.yul\":568:690   */\n      pop\n      jump\t// out\n        /* \"#utility.yul\":696:835   */\n    tag_46:\n        /* \"#utility.yul\":742:747   */\n      0x00\n        /* \"#utility.yul\":780:786   */\n      dup2\n        /* \"#utility.yul\":767:787   */\n      calldataload\n        /* \"#utility.yul\":758:787   */\n      swap1\n      pop\n        /* \"#utility.yul\":796:829   */\n      tag_82\n        /* \"#utility.yul\":823:828   */\n      dup2\n        /* \"#utility.yul\":796:829   */\n      tag_45\n      jump\t// in\n    tag_82:\n        /* \"#utility.yul\":696:835   */\n      swap3\n      swap2\n      pop\n      pop\n      jump\t// out\n        /* \"#utility.yul\":841:927   */\n    tag_47:\n        /* \"#utility.yul\":876:883   */\n      0x00\n        /* \"#utility.yul\":916:920   */\n      0xff\n        /* \"#utility.yul\":909:914   */\n      dup3\n        /* \"#utility.yul\":905:921   */\n      and\n        /* \"#utility.yul\":894:921   */\n      swap1\n      pop\n        /* \"#utility.yul\":841:927   */\n      swap2\n      swap1\n      pop\n      jump\t// out\n        /* \"#utility.yul\":933:1051   */\n    tag_48:\n        /* \"#utility.yul\":1004:1026   */\n      tag_85\n        /* \"#utility.yul\":1020:1025   */\n      dup2\n        /* \"#utility.yul\":1004:1026   */\n      tag_47\n      jump\t// in\n    tag_85:\n        /* \"#utility.yul\":997:1002   */\n      dup2\n        /* \"#utility.yul\":994:1027   */\n      eq\n        /* \"#utility.yul\":984:1045   */\n      tag_86\n      jumpi\n        /* \"#utility.yul\":1041:1042   */\n      0x00\n        /* \"#utility.yul\":1038:1039   */\n      dup1\n        /* \"#utility.yul\":1031:1043   */\n      revert\n        /* \"#utility.yul\":984:1045   */\n    tag_86:\n        /* \"#utility.yul\":933:1051   */\n      pop\n      jump\t// out\n        /* \"#utility.yul\":1057:1192   */\n    tag_49:\n        /* \"#utility.yul\":1101:1106   */\n      0x00\n        /* \"#utility.yul\":1139:1145   */\n      dup2\n        /* \"#utility.yul\":1126:1146   */\n      calldataload\n        /* \"#utility.yul\":1117:1146   */\n      swap1\n      pop\n        /* \"#utility.yul\":1155:1186   */\n      tag_88\n        /* \"#utility.yul\":1180:1185   */\n      dup2\n        /* \"#utility.yul\":1155:1186   */\n      tag_48\n      jump\t// in\n    tag_88:\n        /* \"#utility.yul\":1057:1192   */\n      swap3\n      swap2\n      pop\n      pop\n      jump\t// out\n        /* \"#utility.yul\":1198:1315   */\n    tag_50:\n        /* \"#utility.yul\":1307:1308   */\n      0x00\n        /* \"#utility.yul\":1304:1305   */\n      dup1\n        /* \"#utility.yul\":1297:1309   */\n      revert\n        /* \"#utility.yul\":1321:1438   */\n    tag_51:\n        /* \"#utility.yul\":1430:1431   */\n      0x00\n        /* \"#utility.yul\":1427:1428   */\n      dup1\n        /* \"#utility.yul\":1420:1432   */\n      revert\n        /* \"#utility.yul\":1444:1561   */\n    tag_52:\n        /* \"#utility.yul\":1553:1554   */\n      0x00\n        /* \"#utility.yul\":1550:1551   */\n      dup1\n        /* \"#utility.yul\":1543:1555   */\n      revert\n        /* \"#utility.yul\":1581:2134   */\n    tag_53:\n        /* \"#utility.yul\":1639:1647   */\n      0x00\n        /* \"#utility.yul\":1649:1655   */\n      dup1\n        /* \"#utility.yul\":1699:1702   */\n      dup4\n        /* \"#utility.yul\":1692:1696   */\n      0x1f\n        /* \"#utility.yul\":1684:1690   */\n      dup5\n        /* \"#utility.yul\":1680:1697   */\n      add\n        /* \"#utility.yul\":1676:1703   */\n      slt\n        /* \"#utility.yul\":1666:1788   */\n      tag_93\n      jumpi\n        /* \"#utility.yul\":1707:1786   */\n      tag_94\n      tag_50\n      jump\t// in\n    tag_94:\n        /* \"#utility.yul\":1666:1788   */\n    tag_93:\n        /* \"#utility.yul\":1820:1826   */\n      dup3\n        /* \"#utility.yul\":1807:1827   */\n      calldataload\n        /* \"#utility.yul\":1797:1827   */\n      swap1\n      pop\n        /* \"#utility.yul\":1850:1868   */\n      0xffffffffffffffff\n        /* \"#utility.yul\":1842:1848   */\n      dup2\n        /* \"#utility.yul\":1839:1869   */\n      gt\n        /* \"#utility.yul\":1836:1953   */\n      iszero\n      tag_95\n      jumpi\n        /* \"#utility.yul\":1872:1951   */\n      tag_96\n      tag_51\n      jump\t// in\n    tag_96:\n        /* \"#utility.yul\":1836:1953   */\n    tag_95:\n        /* \"#utility.yul\":1986:1990   */\n      0x20\n        /* \"#utility.yul\":1978:1984   */\n      dup4\n        /* \"#utility.yul\":1974:1991   */\n      add\n        /* \"#utility.yul\":1962:1991   */\n      swap2\n      pop\n        /* \"#utility.yul\":2040:2043   */\n      dup4\n        /* \"#utility.yul\":2032:2036   */\n      0x01\n        /* \"#utility.yul\":2024:2030   */\n      dup3\n        /* \"#utility.yul\":2020:2037   */\n      mul\n        /* \"#utility.yul\":2010:2018   */\n      dup4\n        /* \"#utility.yul\":2006:2038   */\n      add\n        /* \"#utility.yul\":2003:2044   */\n      gt\n        /* \"#utility.yul\":2000:2128   */\n      iszero\n      tag_97\n      jumpi\n        /* \"#utility.yul\":2047:2126   */\n      tag_98\n      tag_52\n      jump\t// in\n    tag_98:\n        /* \"#utility.yul\":2000:2128   */\n    tag_97:\n        /* \"#utility.yul\":1581:2134   */\n      swap3\n      pop\n      swap3\n      swap1\n      pop\n      jump\t// out\n        /* \"#utility.yul\":2140:2955   */\n    tag_7:\n        /* \"#utility.yul\":2227:2233   */\n      0x00\n        /* \"#utility.yul\":2235:2241   */\n      dup1\n        /* \"#utility.yul\":2243:2249   */\n      0x00\n        /* \"#utility.yul\":2251:2257   */\n      dup1\n        /* \"#utility.yul\":2300:2302   */\n      0x60\n        /* \"#utility.yul\":2288:2297   */\n      dup6\n        /* \"#utility.yul\":2279:2286   */\n      dup8\n        /* \"#utility.yul\":2275:2298   */\n      sub\n        /* \"#utility.yul\":2271:2303   */\n      slt\n        /* \"#utility.yul\":2268:2387   */\n      iszero\n      tag_100\n      jumpi\n        /* \"#utility.yul\":2306:2385   */\n      tag_101\n      tag_41\n      jump\t// in\n    tag_101:\n        /* \"#utility.yul\":2268:2387   */\n    tag_100:\n        /* \"#utility.yul\":2426:2427   */\n      0x00\n        /* \"#utility.yul\":2451:2504   */\n      tag_102\n        /* \"#utility.yul\":2496:2503   */\n      dup8\n        /* \"#utility.yul\":2487:2493   */\n      dup3\n        /* \"#utility.yul\":2476:2485   */\n      dup9\n        /* \"#utility.yul\":2472:2494   */\n      add\n        /* \"#utility.yul\":2451:2504   */\n      tag_46\n      jump\t// in\n    tag_102:\n        /* \"#utility.yul\":2441:2504   */\n      swap5\n      pop\n        /* \"#utility.yul\":2397:2514   */\n      pop\n        /* \"#utility.yul\":2553:2555   */\n      0x20\n        /* \"#utility.yul\":2579:2630   */\n      tag_103\n        /* \"#utility.yul\":2622:2629   */\n      dup8\n        /* \"#utility.yul\":2613:2619   */\n      dup3\n        /* \"#utility.yul\":2602:2611   */\n      dup9\n        /* \"#utility.yul\":2598:2620   */\n      add\n        /* \"#utility.yul\":2579:2630   */\n      tag_49\n      jump\t// in\n    tag_103:\n        /* \"#utility.yul\":2569:2630   */\n      swap4\n      pop\n        /* \"#utility.yul\":2524:2640   */\n      pop\n        /* \"#utility.yul\":2707:2709   */\n      0x40\n        /* \"#utility.yul\":2696:2705   */\n      dup6\n        /* \"#utility.yul\":2692:2710   */\n      add\n        /* \"#utility.yul\":2679:2711   */\n      calldataload\n        /* \"#utility.yul\":2738:2756   */\n      0xffffffffffffffff\n        /* \"#utility.yul\":2730:2736   */\n      dup2\n        /* \"#utility.yul\":2727:2757   */\n      gt\n        /* \"#utility.yul\":2724:2841   */\n      iszero\n      tag_104\n      jumpi\n        /* \"#utility.yul\":2760:2839   */\n      tag_105\n      tag_42\n      jump\t// in\n    tag_105:\n        /* \"#utility.yul\":2724:2841   */\n    tag_104:\n        /* \"#utility.yul\":2873:2938   */\n      tag_106\n        /* \"#utility.yul\":2930:2937   */\n      dup8\n        /* \"#utility.yul\":2921:2927   */\n      dup3\n        /* \"#utility.yul\":2910:2919   */\n      dup9\n        /* \"#utility.yul\":2906:2928   */\n      add\n        /* \"#utility.yul\":2873:2938   */\n      tag_53\n      jump\t// in\n    tag_106:\n        /* \"#utility.yul\":2855:2938   */\n      swap3\n      pop\n      swap3\n      pop\n        /* \"#utility.yul\":2650:2948   */\n      pop\n        /* \"#utility.yul\":2140:2955   */\n      swap3\n      swap6\n      swap2\n      swap5\n      pop\n      swap3\n      pop\n      jump\t// out\n        /* \"#utility.yul\":2961:3051   */\n    tag_54:\n        /* \"#utility.yul\":2995:3002   */\n      0x00\n        /* \"#utility.yul\":3038:3043   */\n      dup2\n        /* \"#utility.yul\":3031:3044   */\n      iszero\n        /* \"#utility.yul\":3024:3045   */\n      iszero\n        /* \"#utility.yul\":3013:3045   */\n      swap1\n      pop\n        /* \"#utility.yul\":2961:3051   */\n      swap2\n      swap1\n      pop\n      jump\t// out\n        /* \"#utility.yul\":3057:3166   */\n    tag_55:\n        /* \"#utility.yul\":3138:3159   */\n      tag_109\n        /* \"#utility.yul\":3153:3158   */\n      dup2\n        /* \"#utility.yul\":3138:3159   */\n      tag_54\n      jump\t// in\n    tag_109:\n        /* \"#utility.yul\":3133:3136   */\n      dup3\n        /* \"#utility.yul\":3126:3160   */\n      mstore\n        /* \"#utility.yul\":3057:3166   */\n      pop\n      pop\n      jump\t// out\n        /* \"#utility.yul\":3172:3382   */\n    tag_10:\n        /* \"#utility.yul\":3259:3263   */\n      0x00\n        /* \"#utility.yul\":3297:3299   */\n      0x20\n        /* \"#utility.yul\":3286:3295   */\n      dup3\n        /* \"#utility.yul\":3282:3300   */\n      add\n        /* \"#utility.yul\":3274:3300   */\n      swap1\n      pop\n        /* \"#utility.yul\":3310:3375   */\n      tag_111\n        /* \"#utility.yul\":3372:3373   */\n      0x00\n        /* \"#utility.yul\":3361:3370   */\n      dup4\n        /* \"#utility.yul\":3357:3374   */\n      add\n        /* \"#utility.yul\":3348:3354   */\n      dup5\n        /* \"#utility.yul\":3310:3375   */\n      tag_55\n      jump\t// in\n    tag_111:\n        /* \"#utility.yul\":3172:3382   */\n      swap3\n      swap2\n      pop\n      pop\n      jump\t// out\n        /* \"#utility.yul\":3388:3717   */\n    tag_13:\n        /* \"#utility.yul\":3447:3453   */\n      0x00\n        /* \"#utility.yul\":3496:3498   */\n      0x20\n        /* \"#utility.yul\":3484:3493   */\n      dup3\n        /* \"#utility.yul\":3475:3482   */\n      dup5\n        /* \"#utility.yul\":3471:3494   */\n      sub\n        /* \"#utility.yul\":3467:3499   */\n      slt\n        /* \"#utility.yul\":3464:3583   */\n      iszero\n      tag_113\n      jumpi\n        /* \"#utility.yul\":3502:3581   */\n      tag_114\n      tag_41\n      jump\t// in\n    tag_114:\n        /* \"#utility.yul\":3464:3583   */\n    tag_113:\n        /* \"#utility.yul\":3622:3623   */\n      0x00\n        /* \"#utility.yul\":3647:3700   */\n      tag_115\n        /* \"#utility.yul\":3692:3699   */\n      dup5\n        /* \"#utility.yul\":3683:3689   */\n      dup3\n        /* \"#utility.yul\":3672:3681   */\n      dup6\n        /* \"#utility.yul\":3668:3690   */\n      add\n        /* \"#utility.yul\":3647:3700   */\n      tag_46\n      jump\t// in\n    tag_115:\n        /* \"#utility.yul\":3637:3700   */\n      swap2\n      pop\n        /* \"#utility.yul\":3593:3710   */\n      pop\n        /* \"#utility.yul\":3388:3717   */\n      swap3\n      swap2\n      pop\n      pop\n      jump\t// out\n        /* \"#utility.yul\":3723:3800   */\n    tag_56:\n        /* \"#utility.yul\":3760:3767   */\n      0x00\n        /* \"#utility.yul\":3789:3794   */\n      dup2\n        /* \"#utility.yul\":3778:3794   */\n      swap1\n      pop\n        /* \"#utility.yul\":3723:3800   */\n      swap2\n      swap1\n      pop\n      jump\t// out\n        /* \"#utility.yul\":3806:3914   */\n    tag_57:\n        /* \"#utility.yul\":3883:3907   */\n      tag_118\n        /* \"#utility.yul\":3901:3906   */\n      dup2\n        /* \"#utility.yul\":3883:3907   */\n      tag_56\n      jump\t// in\n    tag_118:\n        /* \"#utility.yul\":3878:3881   */\n      dup3\n        /* \"#utility.yul\":3871:3908   */\n      mstore\n        /* \"#utility.yul\":3806:3914   */\n      pop\n      pop\n      jump\t// out\n        /* \"#utility.yul\":3920:4028   */\n    tag_58:\n        /* \"#utility.yul\":3997:4021   */\n      tag_120\n        /* \"#utility.yul\":4015:4020   */\n      dup2\n        /* \"#utility.yul\":3997:4021   */\n      tag_44\n      jump\t// in\n    tag_120:\n        /* \"#utility.yul\":3992:3995   */\n      dup3\n        /* \"#utility.yul\":3985:4022   */\n      mstore\n        /* \"#utility.yul\":3920:4028   */\n      pop\n      pop\n      jump\t// out\n        /* \"#utility.yul\":4034:4136   */\n    tag_59:\n        /* \"#utility.yul\":4107:4129   */\n      tag_122\n        /* \"#utility.yul\":4123:4128   */\n      dup2\n        /* \"#utility.yul\":4107:4129   */\n      tag_47\n      jump\t// in\n    tag_122:\n        /* \"#utility.yul\":4102:4105   */\n      dup3\n        /* \"#utility.yul\":4095:4130   */\n      mstore\n        /* \"#utility.yul\":4034:4136   */\n      pop\n      pop\n      jump\t// out\n        /* \"#utility.yul\":4142:4241   */\n    tag_60:\n        /* \"#utility.yul\":4194:4200   */\n      0x00\n        /* \"#utility.yul\":4228:4233   */\n      dup2\n        /* \"#utility.yul\":4222:4234   */\n      mload\n        /* \"#utility.yul\":4212:4234   */\n      swap1\n      pop\n        /* \"#utility.yul\":4142:4241   */\n      swap2\n      swap1\n      pop\n      jump\t// out\n        /* \"#utility.yul\":4247:4406   */\n    tag_61:\n        /* \"#utility.yul\":4321:4332   */\n      0x00\n        /* \"#utility.yul\":4355:4361   */\n      dup3\n        /* \"#utility.yul\":4350:4353   */\n      dup3\n        /* \"#utility.yul\":4343:4362   */\n      mstore\n        /* \"#utility.yul\":4395:4399   */\n      0x20\n        /* \"#utility.yul\":4390:4393   */\n      dup3\n        /* \"#utility.yul\":4386:4400   */\n      add\n        /* \"#utility.yul\":4371:4400   */\n      swap1\n      pop\n        /* \"#utility.yul\":4247:4406   */\n      swap3\n      swap2\n      pop\n      pop\n      jump\t// out\n        /* \"#utility.yul\":4412:4719   */\n    tag_62:\n        /* \"#utility.yul\":4480:4481   */\n      0x00\n        /* \"#utility.yul\":4490:4603   */\n    tag_126:\n        /* \"#utility.yul\":4504:4510   */\n      dup4\n        /* \"#utility.yul\":4501:4502   */\n      dup2\n        /* \"#utility.yul\":4498:4511   */\n      lt\n        /* \"#utility.yul\":4490:4603   */\n      iszero\n      tag_128\n      jumpi\n        /* \"#utility.yul\":4589:4590   */\n      dup1\n        /* \"#utility.yul\":4584:4587   */\n      dup3\n        /* \"#utility.yul\":4580:4591   */\n      add\n        /* \"#utility.yul\":4574:4592   */\n      mload\n        /* \"#utility.yul\":4570:4571   */\n      dup2\n        /* \"#utility.yul\":4565:4568   */\n      dup5\n        /* \"#utility.yul\":4561:4572   */\n      add\n        /* \"#utility.yul\":4554:4593   */\n      mstore\n        /* \"#utility.yul\":4526:4528   */\n      0x20\n        /* \"#utility.yul\":4523:4524   */\n      dup2\n        /* \"#utility.yul\":4519:4529   */\n      add\n        /* \"#utility.yul\":4514:4529   */\n      swap1\n      pop\n        /* \"#utility.yul\":4490:4603   */\n      jump(tag_126)\n    tag_128:\n        /* \"#utility.yul\":4621:4627   */\n      dup4\n        /* \"#utility.yul\":4618:4619   */\n      dup2\n        /* \"#utility.yul\":4615:4628   */\n      gt\n        /* \"#utility.yul\":4612:4713   */\n      iszero\n      tag_129\n      jumpi\n        /* \"#utility.yul\":4701:4702   */\n      0x00\n        /* \"#utility.yul\":4692:4698   */\n      dup5\n        /* \"#utility.yul\":4687:4690   */\n      dup5\n        /* \"#utility.yul\":4683:4699   */\n      add\n        /* \"#utility.yul\":4676:4703   */\n      mstore\n        /* \"#utility.yul\":4612:4713   */\n    tag_129:\n        /* \"#utility.yul\":4461:4719   */\n      pop\n        /* \"#utility.yul\":4412:4719   */\n      pop\n      pop\n      pop\n      jump\t// out\n        /* \"#utility.yul\":4725:4827   */\n    tag_63:\n        /* \"#utility.yul\":4766:4772   */\n      0x00\n        /* \"#utility.yul\":4817:4819   */\n      0x1f\n        /* \"#utility.yul\":4813:4820   */\n      not\n        /* \"#utility.yul\":4808:4810   */\n      0x1f\n        /* \"#utility.yul\":4801:4806   */\n      dup4\n        /* \"#utility.yul\":4797:4811   */\n      add\n        /* \"#utility.yul\":4793:4821   */\n      and\n        /* \"#utility.yul\":4783:4821   */\n      swap1\n      pop\n        /* \"#utility.yul\":4725:4827   */\n      swap2\n      swap1\n      pop\n      jump\t// out\n        /* \"#utility.yul\":4833:5177   */\n    tag_64:\n        /* \"#utility.yul\":4911:4914   */\n      0x00\n        /* \"#utility.yul\":4939:4978   */\n      tag_132\n        /* \"#utility.yul\":4972:4977   */\n      dup3\n        /* \"#utility.yul\":4939:4978   */\n      tag_60\n      jump\t// in\n    tag_132:\n        /* \"#utility.yul\":4994:5055   */\n      tag_133\n        /* \"#utility.yul\":5048:5054   */\n      dup2\n        /* \"#utility.yul\":5043:5046   */\n      dup6\n        /* \"#utility.yul\":4994:5055   */\n      tag_61\n      jump\t// in\n    tag_133:\n        /* \"#utility.yul\":4987:5055   */\n      swap4\n      pop\n        /* \"#utility.yul\":5064:5116   */\n      tag_134\n        /* \"#utility.yul\":5109:5115   */\n      dup2\n        /* \"#utility.yul\":5104:5107   */\n      dup6\n        /* \"#utility.yul\":5097:5101   */\n      0x20\n        /* \"#utility.yul\":5090:5095   */\n      dup7\n        /* \"#utility.yul\":5086:5102   */\n      add\n        /* \"#utility.yul\":5064:5116   */\n      tag_62\n      jump\t// in\n    tag_134:\n        /* \"#utility.yul\":5141:5170   */\n      tag_135\n        /* \"#utility.yul\":5163:5169   */\n      dup2\n        /* \"#utility.yul\":5141:5170   */\n      tag_63\n      jump\t// in\n    tag_135:\n        /* \"#utility.yul\":5136:5139   */\n      dup5\n        /* \"#utility.yul\":5132:5171   */\n      add\n        /* \"#utility.yul\":5125:5171   */\n      swap2\n      pop\n        /* \"#utility.yul\":4915:5177   */\n      pop\n        /* \"#utility.yul\":4833:5177   */\n      swap3\n      swap2\n      pop\n      pop\n      jump\t// out\n        /* \"#utility.yul\":5265:6225   */\n    tag_65:\n        /* \"#utility.yul\":5386:5389   */\n      0x00\n        /* \"#utility.yul\":5422:5426   */\n      0x80\n        /* \"#utility.yul\":5417:5420   */\n      dup4\n        /* \"#utility.yul\":5413:5427   */\n      add\n        /* \"#utility.yul\":5507:5511   */\n      0x00\n        /* \"#utility.yul\":5500:5505   */\n      dup4\n        /* \"#utility.yul\":5496:5512   */\n      add\n        /* \"#utility.yul\":5490:5513   */\n      mload\n        /* \"#utility.yul\":5526:5589   */\n      tag_137\n        /* \"#utility.yul\":5583:5587   */\n      0x00\n        /* \"#utility.yul\":5578:5581   */\n      dup7\n        /* \"#utility.yul\":5574:5588   */\n      add\n        /* \"#utility.yul\":5560:5572   */\n      dup3\n        /* \"#utility.yul\":5526:5589   */\n      tag_57\n      jump\t// in\n    tag_137:\n        /* \"#utility.yul\":5437:5599   */\n      pop\n        /* \"#utility.yul\":5683:5687   */\n      0x20\n        /* \"#utility.yul\":5676:5681   */\n      dup4\n        /* \"#utility.yul\":5672:5688   */\n      add\n        /* \"#utility.yul\":5666:5689   */\n      mload\n        /* \"#utility.yul\":5702:5765   */\n      tag_138\n        /* \"#utility.yul\":5759:5763   */\n      0x20\n        /* \"#utility.yul\":5754:5757   */\n      dup7\n        /* \"#utility.yul\":5750:5764   */\n      add\n        /* \"#utility.yul\":5736:5748   */\n      dup3\n        /* \"#utility.yul\":5702:5765   */\n      tag_58\n      jump\t// in\n    tag_138:\n        /* \"#utility.yul\":5609:5775   */\n      pop\n        /* \"#utility.yul\":5864:5868   */\n      0x40\n        /* \"#utility.yul\":5857:5862   */\n      dup4\n        /* \"#utility.yul\":5853:5869   */\n      add\n        /* \"#utility.yul\":5847:5870   */\n      mload\n        /* \"#utility.yul\":5883:5942   */\n      tag_139\n        /* \"#utility.yul\":5936:5940   */\n      0x40\n        /* \"#utility.yul\":5931:5934   */\n      dup7\n        /* \"#utility.yul\":5927:5941   */\n      add\n        /* \"#utility.yul\":5913:5925   */\n      dup3\n        /* \"#utility.yul\":5883:5942   */\n      tag_59\n      jump\t// in\n    tag_139:\n        /* \"#utility.yul\":5785:5952   */\n      pop\n        /* \"#utility.yul\":6035:6039   */\n      0x60\n        /* \"#utility.yul\":6028:6033   */\n      dup4\n        /* \"#utility.yul\":6024:6040   */\n      add\n        /* \"#utility.yul\":6018:6041   */\n      mload\n        /* \"#utility.yul\":6088:6091   */\n      dup5\n        /* \"#utility.yul\":6082:6086   */\n      dup3\n        /* \"#utility.yul\":6078:6092   */\n      sub\n        /* \"#utility.yul\":6071:6075   */\n      0x60\n        /* \"#utility.yul\":6066:6069   */\n      dup7\n        /* \"#utility.yul\":6062:6076   */\n      add\n        /* \"#utility.yul\":6055:6093   */\n      mstore\n        /* \"#utility.yul\":6114:6187   */\n      tag_140\n        /* \"#utility.yul\":6182:6186   */\n      dup3\n        /* \"#utility.yul\":6168:6180   */\n      dup3\n        /* \"#utility.yul\":6114:6187   */\n      tag_64\n      jump\t// in\n    tag_140:\n        /* \"#utility.yul\":6106:6187   */\n      swap2\n      pop\n        /* \"#utility.yul\":5962:6198   */\n      pop\n        /* \"#utility.yul\":6215:6219   */\n      dup1\n        /* \"#utility.yul\":6208:6219   */\n      swap2\n      pop\n        /* \"#utility.yul\":5391:6225   */\n      pop\n        /* \"#utility.yul\":5265:6225   */\n      swap3\n      swap2\n      pop\n      pop\n      jump\t// out\n        /* \"#utility.yul\":6231:6608   */\n    tag_16:\n        /* \"#utility.yul\":6376:6380   */\n      0x00\n        /* \"#utility.yul\":6414:6416   */\n      0x20\n        /* \"#utility.yul\":6403:6412   */\n      dup3\n        /* \"#utility.yul\":6399:6417   */\n      add\n        /* \"#utility.yul\":6391:6417   */\n      swap1\n      pop\n        /* \"#utility.yul\":6463:6472   */\n      dup2\n        /* \"#utility.yul\":6457:6461   */\n      dup2\n        /* \"#utility.yul\":6453:6473   */\n      sub\n        /* \"#utility.yul\":6449:6450   */\n      0x00\n        /* \"#utility.yul\":6438:6447   */\n      dup4\n        /* \"#utility.yul\":6434:6451   */\n      add\n        /* \"#utility.yul\":6427:6474   */\n      mstore\n        /* \"#utility.yul\":6491:6601   */\n      tag_142\n        /* \"#utility.yul\":6596:6600   */\n      dup2\n        /* \"#utility.yul\":6587:6593   */\n      dup5\n        /* \"#utility.yul\":6491:6601   */\n      tag_65\n      jump\t// in\n    tag_142:\n        /* \"#utility.yul\":6483:6601   */\n      swap1\n      pop\n        /* \"#utility.yul\":6231:6608   */\n      swap3\n      swap2\n      pop\n      pop\n      jump\t// out\n        /* \"#utility.yul\":6614:6783   */\n    tag_66:\n        /* \"#utility.yul\":6698:6709   */\n      0x00\n        /* \"#utility.yul\":6732:6738   */\n      dup3\n        /* \"#utility.yul\":6727:6730   */\n      dup3\n        /* \"#utility.yul\":6720:6739   */\n      mstore\n        /* \"#utility.yul\":6772:6776   */\n      0x20\n        /* \"#utility.yul\":6767:6770   */\n      dup3\n        /* \"#utility.yul\":6763:6777   */\n      add\n        /* \"#utility.yul\":6748:6777   */\n      swap1\n      pop\n        /* \"#utility.yul\":6614:6783   */\n      swap3\n      swap2\n      pop\n      pop\n      jump\t// out\n        /* \"#utility.yul\":6789:6949   */\n    tag_67:\n        /* \"#utility.yul\":6929:6941   */\n      0x4e6f742049737375657200000000000000000000000000000000000000000000\n        /* \"#utility.yul\":6925:6926   */\n      0x00\n        /* \"#utility.yul\":6917:6923   */\n      dup3\n        /* \"#utility.yul\":6913:6927   */\n      add\n        /* \"#utility.yul\":6906:6942   */\n      mstore\n        /* \"#utility.yul\":6789:6949   */\n      pop\n      jump\t// out\n        /* \"#utility.yul\":6955:7321   */\n    tag_68:\n        /* \"#utility.yul\":7097:7100   */\n      0x00\n        /* \"#utility.yul\":7118:7185   */\n      tag_146\n        /* \"#utility.yul\":7182:7184   */\n      0x0a\n        /* \"#utility.yul\":7177:7180   */\n      dup4\n        /* \"#utility.yul\":7118:7185   */\n      tag_66\n      jump\t// in\n    tag_146:\n        /* \"#utility.yul\":7111:7185   */\n      swap2\n      pop\n        /* \"#utility.yul\":7194:7287   */\n      tag_147\n        /* \"#utility.yul\":7283:7286   */\n      dup3\n        /* \"#utility.yul\":7194:7287   */\n      tag_67\n      jump\t// in\n    tag_147:\n        /* \"#utility.yul\":7312:7314   */\n      0x20\n        /* \"#utility.yul\":7307:7310   */\n      dup3\n        /* \"#utility.yul\":7303:7315   */\n      add\n        /* \"#utility.yul\":7296:7315   */\n      swap1\n      pop\n        /* \"#utility.yul\":6955:7321   */\n      swap2\n      swap1\n      pop\n      jump\t// out\n        /* \"#utility.yul\":7327:7746   */\n    tag_20:\n        /* \"#utility.yul\":7493:7497   */\n      0x00\n        /* \"#utility.yul\":7531:7533   */\n      0x20\n        /* \"#utility.yul\":7520:7529   */\n      dup3\n        /* \"#utility.yul\":7516:7534   */\n      add\n        /* \"#utility.yul\":7508:7534   */\n      swap1\n      pop\n        /* \"#utility.yul\":7580:7589   */\n      dup2\n        /* \"#utility.yul\":7574:7578   */\n      dup2\n        /* \"#utility.yul\":7570:7590   */\n      sub\n        /* \"#utility.yul\":7566:7567   */\n      0x00\n        /* \"#utility.yul\":7555:7564   */\n      dup4\n        /* \"#utility.yul\":7551:7568   */\n      add\n        /* \"#utility.yul\":7544:7591   */\n      mstore\n        /* \"#utility.yul\":7608:7739   */\n      tag_149\n        /* \"#utility.yul\":7734:7738   */\n      dup2\n        /* \"#utility.yul\":7608:7739   */\n      tag_68\n      jump\t// in\n    tag_149:\n        /* \"#utility.yul\":7600:7739   */\n      swap1\n      pop\n        /* \"#utility.yul\":7327:7746   */\n      swap2\n      swap1\n      pop\n      jump\t// out\n        /* \"#utility.yul\":7752:7932   */\n    tag_69:\n        /* \"#utility.yul\":7800:7877   */\n      0x4e487b7100000000000000000000000000000000000000000000000000000000\n        /* \"#utility.yul\":7797:7798   */\n      0x00\n        /* \"#utility.yul\":7790:7878   */\n      mstore\n        /* \"#utility.yul\":7897:7901   */\n      0x11\n        /* \"#utility.yul\":7894:7895   */\n      0x04\n        /* \"#utility.yul\":7887:7902   */\n      mstore\n        /* \"#utility.yul\":7921:7925   */\n      0x24\n        /* \"#utility.yul\":7918:7919   */\n      0x00\n        /* \"#utility.yul\":7911:7926   */\n      revert\n        /* \"#utility.yul\":7938:8243   */\n    tag_25:\n        /* \"#utility.yul\":7978:7981   */\n      0x00\n        /* \"#utility.yul\":7997:8017   */\n      tag_152\n        /* \"#utility.yul\":8015:8016   */\n      dup3\n        /* \"#utility.yul\":7997:8017   */\n      tag_56\n      jump\t// in\n    tag_152:\n        /* \"#utility.yul\":7992:8017   */\n      swap2\n      pop\n        /* \"#utility.yul\":8031:8051   */\n      tag_153\n        /* \"#utility.yul\":8049:8050   */\n      dup4\n        /* \"#utility.yul\":8031:8051   */\n      tag_56\n      jump\t// in\n    tag_153:\n        /* \"#utility.yul\":8026:8051   */\n      swap3\n      pop\n        /* \"#utility.yul\":8185:8186   */\n      dup3\n        /* \"#utility.yul\":8117:8183   */\n      0xffffffffffffffffffffffffffffffffffffffffffffffffffffffffffffffff\n        /* \"#utility.yul\":8113:8187   */\n      sub\n        /* \"#utility.yul\":8110:8111   */\n      dup3\n        /* \"#utility.yul\":8107:8188   */\n      gt\n        /* \"#utility.yul\":8104:8211   */\n      iszero\n      tag_154\n      jumpi\n        /* \"#utility.yul\":8191:8209   */\n      tag_155\n      tag_69\n      jump\t// in\n    tag_155:\n        /* \"#utility.yul\":8104:8211   */\n    tag_154:\n        /* \"#utility.yul\":8235:8236   */\n      dup3\n        /* \"#utility.yul\":8232:8233   */\n      dup3\n        /* \"#utility.yul\":8228:8237   */\n      add\n        /* \"#utility.yul\":8221:8237   */\n      swap1\n      pop\n        /* \"#utility.yul\":7938:8243   */\n      swap3\n      swap2\n      pop\n      pop\n      jump\t// out\n        /* \"#utility.yul\":8249:8429   */\n    tag_70:\n        /* \"#utility.yul\":8297:8374   */\n      0x4e487b7100000000000000000000000000000000000000000000000000000000\n        /* \"#utility.yul\":8294:8295   */\n      0x00\n        /* \"#utility.yul\":8287:8375   */\n      mstore\n        /* \"#utility.yul\":8394:8398   */\n      0x22\n        /* \"#utility.yul\":8391:8392   */\n      0x04\n        /* \"#utility.yul\":8384:8399   */\n      mstore\n        /* \"#utility.yul\":8418:8422   */\n      0x24\n        /* \"#utility.yul\":8415:8416   */\n      0x00\n        /* \"#utility.yul\":8408:8423   */\n      revert\n        /* \"#utility.yul\":8435:8755   */\n    tag_30:\n        /* \"#utility.yul\":8479:8485   */\n      0x00\n        /* \"#utility.yul\":8516:8517   */\n      0x02\n        /* \"#utility.yul\":8510:8514   */\n      dup3\n        /* \"#utility.yul\":8506:8518   */\n      div\n        /* \"#utility.yul\":8496:8518   */\n      swap1\n      pop\n        /* \"#utility.yul\":8563:8564   */\n      0x01\n        /* \"#utility.yul\":8557:8561   */\n      dup3\n        /* \"#utility.yul\":8553:8565   */\n      and\n        /* \"#utility.yul\":8584:8602   */\n      dup1\n        /* \"#utility.yul\":8574:8655   */\n      tag_158\n      jumpi\n        /* \"#utility.yul\":8640:8644   */\n      0x7f\n        /* \"#utility.yul\":8632:8638   */\n      dup3\n        /* \"#utility.yul\":8628:8645   */\n      and\n        /* \"#utility.yul\":8618:8645   */\n      swap2\n      pop\n        /* \"#utility.yul\":8574:8655   */\n    tag_158:\n        /* \"#utility.yul\":8702:8704   */\n      0x20\n        /* \"#utility.yul\":8694:8700   */\n      dup3\n        /* \"#utility.yul\":8691:8705   */\n      lt\n        /* \"#utility.yul\":8671:8689   */\n      dup2\n        /* \"#utility.yul\":8668:8706   */\n      eq\n        /* \"#utility.yul\":8665:8749   */\n      iszero\n      tag_159\n      jumpi\n        /* \"#utility.yul\":8721:8739   */\n      tag_160\n      tag_70\n      jump\t// in\n    tag_160:\n        /* \"#utility.yul\":8665:8749   */\n    tag_159:\n        /* \"#utility.yul\":8486:8755   */\n      pop\n        /* \"#utility.yul\":8435:8755   */\n      swap2\n      swap1\n      pop\n      jump\t// out\n\n    auxdata: 0xa26469706673582212208d6ce441a6d70d9a275aa82b8854113c98d0ea8fec78bc4dc54b376accc59e8164736f6c634300080a0033\n}\n",
				"bytecode": {
					"linkReferences": {},
					"object": "608060405234801561001057600080fd5b50336000806101000a81548173ffffffffffffffffffffffffffffffffffffffff021916908373ffffffffffffffffffffffffffffffffffffffff160217905550600180819055506040518060400160405280600681526020017f5066697a65720000000000000000000000000000000000000000000000000000815250600260008060ff16815260200190815260200160002090805190602001906100b79291906101e0565b506040518060400160405280600781526020017f4d6f6465726e610000000000000000000000000000000000000000000000000081525060026000600160ff16815260200190815260200160002090805190602001906101189291906101e0565b506040518060400160405280600b81526020017f41737472615a656e65636100000000000000000000000000000000000000000081525060026000600260ff16815260200190815260200160002090805190602001906101799291906101e0565b506040518060400160405280600781526020017f4a616e7373656e0000000000000000000000000000000000000000000000000081525060026000600360ff16815260200190815260200160002090805190602001906101da9291906101e0565b506102e4565b8280546101ec906102b2565b90600052602060002090601f01602090048101928261020e5760008555610255565b82601f1061022757805160ff1916838001178555610255565b82800160010185558215610255579182015b82811115610254578251825591602001919060010190610239565b5b5090506102629190610266565b5090565b5b8082111561027f576000816000905550600101610267565b5090565b7f4e487b7100000000000000000000000000000000000000000000000000000000600052602260045260246000fd5b600060028204905060018216806102ca57607f821691505b602082108114156102de576102dd610283565b5b50919050565b6107e0806102f36000396000f3fe608060405234801561001057600080fd5b50600436106100365760003560e01c8063617ae3641461003b578063ccdad14b1461006b575b600080fd5b6100556004803603810190610050919061041b565b61009b565b60405161006291906104aa565b60405180910390f35b610085600480360381019061008091906104c5565b610224565b6040516100929190610625565b60405180910390f35b60003373ffffffffffffffffffffffffffffffffffffffff1660008054906101000a900473ffffffffffffffffffffffffffffffffffffffff1673ffffffffffffffffffffffffffffffffffffffff161461012b576040517f08c379a0000000000000000000000000000000000000000000000000000000008152600401610122906106a4565b60405180910390fd5b6000600360008773ffffffffffffffffffffffffffffffffffffffff1673ffffffffffffffffffffffffffffffffffffffff1681526020019081526020016000209050600081600001541461017f57600080fd5b6001548160000181905550338160010160006101000a81548173ffffffffffffffffffffffffffffffffffffffff021916908373ffffffffffffffffffffffffffffffffffffffff160217905550848160010160146101000a81548160ff021916908360ff16021790555083838260020191906101fd929190610231565b50600180600082825461021091906106f3565b925050819055506001915050949350505050565b61022c6102b7565b919050565b82805461023d90610778565b90600052602060002090601f01602090048101928261025f57600085556102a6565b82601f1061027857803560ff19168380011785556102a6565b828001600101855582156102a6579182015b828111156102a557823582559160200191906001019061028a565b5b5090506102b391906102f8565b5090565b604051806080016040528060008152602001600073ffffffffffffffffffffffffffffffffffffffff168152602001600060ff168152602001606081525090565b5b808211156103115760008160009055506001016102f9565b5090565b600080fd5b600080fd5b600073ffffffffffffffffffffffffffffffffffffffff82169050919050565b600061034a8261031f565b9050919050565b61035a8161033f565b811461036557600080fd5b50565b60008135905061037781610351565b92915050565b600060ff82169050919050565b6103938161037d565b811461039e57600080fd5b50565b6000813590506103b08161038a565b92915050565b600080fd5b600080fd5b600080fd5b60008083601f8401126103db576103da6103b6565b5b8235905067ffffffffffffffff8111156103f8576103f76103bb565b5b602083019150836001820283011115610414576104136103c0565b5b9250929050565b6000806000806060858703121561043557610434610315565b5b600061044387828801610368565b9450506020610454878288016103a1565b935050604085013567ffffffffffffffff8111156104755761047461031a565b5b610481878288016103c5565b925092505092959194509250565b60008115159050919050565b6104a48161048f565b82525050565b60006020820190506104bf600083018461049b565b92915050565b6000602082840312156104db576104da610315565b5b60006104e984828501610368565b91505092915050565b6000819050919050565b610505816104f2565b82525050565b6105148161033f565b82525050565b6105238161037d565b82525050565b600081519050919050565b600082825260208201905092915050565b60005b83811015610563578082015181840152602081019050610548565b83811115610572576000848401525b50505050565b6000601f19601f8301169050919050565b600061059482610529565b61059e8185610534565b93506105ae818560208601610545565b6105b781610578565b840191505092915050565b60006080830160008301516105da60008601826104fc565b5060208301516105ed602086018261050b565b506040830151610600604086018261051a565b50606083015184820360608601526106188282610589565b9150508091505092915050565b6000602082019050818103600083015261063f81846105c2565b905092915050565b600082825260208201905092915050565b7f4e6f742049737375657200000000000000000000000000000000000000000000600082015250565b600061068e600a83610647565b915061069982610658565b602082019050919050565b600060208201905081810360008301526106bd81610681565b9050919050565b7f4e487b7100000000000000000000000000000000000000000000000000000000600052601160045260246000fd5b60006106fe826104f2565b9150610709836104f2565b9250827fffffffffffffffffffffffffffffffffffffffffffffffffffffffffffffffff0382111561073e5761073d6106c4565b5b828201905092915050565b7f4e487b7100000000000000000000000000000000000000000000000000000000600052602260045260246000fd5b6000600282049050600182168061079057607f821691505b602082108114156107a4576107a3610749565b5b5091905056fea26469706673582212208d6ce441a6d70d9a275aa82b8854113c98d0ea8fec78bc4dc54b376accc59e8164736f6c634300080a0033",
					"opcodes": "PUSH1 0x80 PUSH1 0x40 MSTORE CALLVALUE DUP1 ISZERO PUSH2 0x10 JUMPI PUSH1 0x0 DUP1 REVERT JUMPDEST POP CALLER PUSH1 0x0 DUP1 PUSH2 0x100 EXP DUP2 SLOAD DUP2 PUSH20 0xFFFFFFFFFFFFFFFFFFFFFFFFFFFFFFFFFFFFFFFF MUL NOT AND SWAP1 DUP4 PUSH20 0xFFFFFFFFFFFFFFFFFFFFFFFFFFFFFFFFFFFFFFFF AND MUL OR SWAP1 SSTORE POP PUSH1 0x1 DUP1 DUP2 SWAP1 SSTORE POP PUSH1 0x40 MLOAD DUP1 PUSH1 0x40 ADD PUSH1 0x40 MSTORE DUP1 PUSH1 0x6 DUP2 MSTORE PUSH1 0x20 ADD PUSH32 0x5066697A65720000000000000000000000000000000000000000000000000000 DUP2 MSTORE POP PUSH1 0x2 PUSH1 0x0 DUP1 PUSH1 0xFF AND DUP2 MSTORE PUSH1 0x20 ADD SWAP1 DUP2 MSTORE PUSH1 0x20 ADD PUSH1 0x0 KECCAK256 SWAP1 DUP1 MLOAD SWAP1 PUSH1 0x20 ADD SWAP1 PUSH2 0xB7 SWAP3 SWAP2 SWAP1 PUSH2 0x1E0 JUMP JUMPDEST POP PUSH1 0x40 MLOAD DUP1 PUSH1 0x40 ADD PUSH1 0x40 MSTORE DUP1 PUSH1 0x7 DUP2 MSTORE PUSH1 0x20 ADD PUSH32 0x4D6F6465726E6100000000000000000000000000000000000000000000000000 DUP2 MSTORE POP PUSH1 0x2 PUSH1 0x0 PUSH1 0x1 PUSH1 0xFF AND DUP2 MSTORE PUSH1 0x20 ADD SWAP1 DUP2 MSTORE PUSH1 0x20 ADD PUSH1 0x0 KECCAK256 SWAP1 DUP1 MLOAD SWAP1 PUSH1 0x20 ADD SWAP1 PUSH2 0x118 SWAP3 SWAP2 SWAP1 PUSH2 0x1E0 JUMP JUMPDEST POP PUSH1 0x40 MLOAD DUP1 PUSH1 0x40 ADD PUSH1 0x40 MSTORE DUP1 PUSH1 0xB DUP2 MSTORE PUSH1 0x20 ADD PUSH32 0x41737472615A656E656361000000000000000000000000000000000000000000 DUP2 MSTORE POP PUSH1 0x2 PUSH1 0x0 PUSH1 0x2 PUSH1 0xFF AND DUP2 MSTORE PUSH1 0x20 ADD SWAP1 DUP2 MSTORE PUSH1 0x20 ADD PUSH1 0x0 KECCAK256 SWAP1 DUP1 MLOAD SWAP1 PUSH1 0x20 ADD SWAP1 PUSH2 0x179 SWAP3 SWAP2 SWAP1 PUSH2 0x1E0 JUMP JUMPDEST POP PUSH1 0x40 MLOAD DUP1 PUSH1 0x40 ADD PUSH1 0x40 MSTORE DUP1 PUSH1 0x7 DUP2 MSTORE PUSH1 0x20 ADD PUSH32 0x4A616E7373656E00000000000000000000000000000000000000000000000000 DUP2 MSTORE POP PUSH1 0x2 PUSH1 0x0 PUSH1 0x3 PUSH1 0xFF AND DUP2 MSTORE PUSH1 0x20 ADD SWAP1 DUP2 MSTORE PUSH1 0x20 ADD PUSH1 0x0 KECCAK256 SWAP1 DUP1 MLOAD SWAP1 PUSH1 0x20 ADD SWAP1 PUSH2 0x1DA SWAP3 SWAP2 SWAP1 PUSH2 0x1E0 JUMP JUMPDEST POP PUSH2 0x2E4 JUMP JUMPDEST DUP3 DUP1 SLOAD PUSH2 0x1EC SWAP1 PUSH2 0x2B2 JUMP JUMPDEST SWAP1 PUSH1 0x0 MSTORE PUSH1 0x20 PUSH1 0x0 KECCAK256 SWAP1 PUSH1 0x1F ADD PUSH1 0x20 SWAP1 DIV DUP2 ADD SWAP3 DUP3 PUSH2 0x20E JUMPI PUSH1 0x0 DUP6 SSTORE PUSH2 0x255 JUMP JUMPDEST DUP3 PUSH1 0x1F LT PUSH2 0x227 JUMPI DUP1 MLOAD PUSH1 0xFF NOT AND DUP4 DUP1 ADD OR DUP6 SSTORE PUSH2 0x255 JUMP JUMPDEST DUP3 DUP1 ADD PUSH1 0x1 ADD DUP6 SSTORE DUP3 ISZERO PUSH2 0x255 JUMPI SWAP2 DUP3 ADD JUMPDEST DUP3 DUP2 GT ISZERO PUSH2 0x254 JUMPI DUP3 MLOAD DUP3 SSTORE SWAP2 PUSH1 0x20 ADD SWAP2 SWAP1 PUSH1 0x1 ADD SWAP1 PUSH2 0x239 JUMP JUMPDEST JUMPDEST POP SWAP1 POP PUSH2 0x262 SWAP2 SWAP1 PUSH2 0x266 JUMP JUMPDEST POP SWAP1 JUMP JUMPDEST JUMPDEST DUP1 DUP3 GT ISZERO PUSH2 0x27F JUMPI PUSH1 0x0 DUP2 PUSH1 0x0 SWAP1 SSTORE POP PUSH1 0x1 ADD PUSH2 0x267 JUMP JUMPDEST POP SWAP1 JUMP JUMPDEST PUSH32 0x4E487B7100000000000000000000000000000000000000000000000000000000 PUSH1 0x0 MSTORE PUSH1 0x22 PUSH1 0x4 MSTORE PUSH1 0x24 PUSH1 0x0 REVERT JUMPDEST PUSH1 0x0 PUSH1 0x2 DUP3 DIV SWAP1 POP PUSH1 0x1 DUP3 AND DUP1 PUSH2 0x2CA JUMPI PUSH1 0x7F DUP3 AND SWAP2 POP JUMPDEST PUSH1 0x20 DUP3 LT DUP2 EQ ISZERO PUSH2 0x2DE JUMPI PUSH2 0x2DD PUSH2 0x283 JUMP JUMPDEST JUMPDEST POP SWAP2 SWAP1 POP JUMP JUMPDEST PUSH2 0x7E0 DUP1 PUSH2 0x2F3 PUSH1 0x0 CODECOPY PUSH1 0x0 RETURN INVALID PUSH1 0x80 PUSH1 0x40 MSTORE CALLVALUE DUP1 ISZERO PUSH2 0x10 JUMPI PUSH1 0x0 DUP1 REVERT JUMPDEST POP PUSH1 0x4 CALLDATASIZE LT PUSH2 0x36 JUMPI PUSH1 0x0 CALLDATALOAD PUSH1 0xE0 SHR DUP1 PUSH4 0x617AE364 EQ PUSH2 0x3B JUMPI DUP1 PUSH4 0xCCDAD14B EQ PUSH2 0x6B JUMPI JUMPDEST PUSH1 0x0 DUP1 REVERT JUMPDEST PUSH2 0x55 PUSH1 0x4 DUP1 CALLDATASIZE SUB DUP2 ADD SWAP1 PUSH2 0x50 SWAP2 SWAP1 PUSH2 0x41B JUMP JUMPDEST PUSH2 0x9B JUMP JUMPDEST PUSH1 0x40 MLOAD PUSH2 0x62 SWAP2 SWAP1 PUSH2 0x4AA JUMP JUMPDEST PUSH1 0x40 MLOAD DUP1 SWAP2 SUB SWAP1 RETURN JUMPDEST PUSH2 0x85 PUSH1 0x4 DUP1 CALLDATASIZE SUB DUP2 ADD SWAP1 PUSH2 0x80 SWAP2 SWAP1 PUSH2 0x4C5 JUMP JUMPDEST PUSH2 0x224 JUMP JUMPDEST PUSH1 0x40 MLOAD PUSH2 0x92 SWAP2 SWAP1 PUSH2 0x625 JUMP JUMPDEST PUSH1 0x40 MLOAD DUP1 SWAP2 SUB SWAP1 RETURN JUMPDEST PUSH1 0x0 CALLER PUSH20 0xFFFFFFFFFFFFFFFFFFFFFFFFFFFFFFFFFFFFFFFF AND PUSH1 0x0 DUP1 SLOAD SWAP1 PUSH2 0x100 EXP SWAP1 DIV PUSH20 0xFFFFFFFFFFFFFFFFFFFFFFFFFFFFFFFFFFFFFFFF AND PUSH20 0xFFFFFFFFFFFFFFFFFFFFFFFFFFFFFFFFFFFFFFFF AND EQ PUSH2 0x12B JUMPI PUSH1 0x40 MLOAD PUSH32 0x8C379A000000000000000000000000000000000000000000000000000000000 DUP2 MSTORE PUSH1 0x4 ADD PUSH2 0x122 SWAP1 PUSH2 0x6A4 JUMP JUMPDEST PUSH1 0x40 MLOAD DUP1 SWAP2 SUB SWAP1 REVERT JUMPDEST PUSH1 0x0 PUSH1 0x3 PUSH1 0x0 DUP8 PUSH20 0xFFFFFFFFFFFFFFFFFFFFFFFFFFFFFFFFFFFFFFFF AND PUSH20 0xFFFFFFFFFFFFFFFFFFFFFFFFFFFFFFFFFFFFFFFF AND DUP2 MSTORE PUSH1 0x20 ADD SWAP1 DUP2 MSTORE PUSH1 0x20 ADD PUSH1 0x0 KECCAK256 SWAP1 POP PUSH1 0x0 DUP2 PUSH1 0x0 ADD SLOAD EQ PUSH2 0x17F JUMPI PUSH1 0x0 DUP1 REVERT JUMPDEST PUSH1 0x1 SLOAD DUP2 PUSH1 0x0 ADD DUP2 SWAP1 SSTORE POP CALLER DUP2 PUSH1 0x1 ADD PUSH1 0x0 PUSH2 0x100 EXP DUP2 SLOAD DUP2 PUSH20 0xFFFFFFFFFFFFFFFFFFFFFFFFFFFFFFFFFFFFFFFF MUL NOT AND SWAP1 DUP4 PUSH20 0xFFFFFFFFFFFFFFFFFFFFFFFFFFFFFFFFFFFFFFFF AND MUL OR SWAP1 SSTORE POP DUP5 DUP2 PUSH1 0x1 ADD PUSH1 0x14 PUSH2 0x100 EXP DUP2 SLOAD DUP2 PUSH1 0xFF MUL NOT AND SWAP1 DUP4 PUSH1 0xFF AND MUL OR SWAP1 SSTORE POP DUP4 DUP4 DUP3 PUSH1 0x2 ADD SWAP2 SWAP1 PUSH2 0x1FD SWAP3 SWAP2 SWAP1 PUSH2 0x231 JUMP JUMPDEST POP PUSH1 0x1 DUP1 PUSH1 0x0 DUP3 DUP3 SLOAD PUSH2 0x210 SWAP2 SWAP1 PUSH2 0x6F3 JUMP JUMPDEST SWAP3 POP POP DUP2 SWAP1 SSTORE POP PUSH1 0x1 SWAP2 POP POP SWAP5 SWAP4 POP POP POP POP JUMP JUMPDEST PUSH2 0x22C PUSH2 0x2B7 JUMP JUMPDEST SWAP2 SWAP1 POP JUMP JUMPDEST DUP3 DUP1 SLOAD PUSH2 0x23D SWAP1 PUSH2 0x778 JUMP JUMPDEST SWAP1 PUSH1 0x0 MSTORE PUSH1 0x20 PUSH1 0x0 KECCAK256 SWAP1 PUSH1 0x1F ADD PUSH1 0x20 SWAP1 DIV DUP2 ADD SWAP3 DUP3 PUSH2 0x25F JUMPI PUSH1 0x0 DUP6 SSTORE PUSH2 0x2A6 JUMP JUMPDEST DUP3 PUSH1 0x1F LT PUSH2 0x278 JUMPI DUP1 CALLDATALOAD PUSH1 0xFF NOT AND DUP4 DUP1 ADD OR DUP6 SSTORE PUSH2 0x2A6 JUMP JUMPDEST DUP3 DUP1 ADD PUSH1 0x1 ADD DUP6 SSTORE DUP3 ISZERO PUSH2 0x2A6 JUMPI SWAP2 DUP3 ADD JUMPDEST DUP3 DUP2 GT ISZERO PUSH2 0x2A5 JUMPI DUP3 CALLDATALOAD DUP3 SSTORE SWAP2 PUSH1 0x20 ADD SWAP2 SWAP1 PUSH1 0x1 ADD SWAP1 PUSH2 0x28A JUMP JUMPDEST JUMPDEST POP SWAP1 POP PUSH2 0x2B3 SWAP2 SWAP1 PUSH2 0x2F8 JUMP JUMPDEST POP SWAP1 JUMP JUMPDEST PUSH1 0x40 MLOAD DUP1 PUSH1 0x80 ADD PUSH1 0x40 MSTORE DUP1 PUSH1 0x0 DUP2 MSTORE PUSH1 0x20 ADD PUSH1 0x0 PUSH20 0xFFFFFFFFFFFFFFFFFFFFFFFFFFFFFFFFFFFFFFFF AND DUP2 MSTORE PUSH1 0x20 ADD PUSH1 0x0 PUSH1 0xFF AND DUP2 MSTORE PUSH1 0x20 ADD PUSH1 0x60 DUP2 MSTORE POP SWAP1 JUMP JUMPDEST JUMPDEST DUP1 DUP3 GT ISZERO PUSH2 0x311 JUMPI PUSH1 0x0 DUP2 PUSH1 0x0 SWAP1 SSTORE POP PUSH1 0x1 ADD PUSH2 0x2F9 JUMP JUMPDEST POP SWAP1 JUMP JUMPDEST PUSH1 0x0 DUP1 REVERT JUMPDEST PUSH1 0x0 DUP1 REVERT JUMPDEST PUSH1 0x0 PUSH20 0xFFFFFFFFFFFFFFFFFFFFFFFFFFFFFFFFFFFFFFFF DUP3 AND SWAP1 POP SWAP2 SWAP1 POP JUMP JUMPDEST PUSH1 0x0 PUSH2 0x34A DUP3 PUSH2 0x31F JUMP JUMPDEST SWAP1 POP SWAP2 SWAP1 POP JUMP JUMPDEST PUSH2 0x35A DUP2 PUSH2 0x33F JUMP JUMPDEST DUP2 EQ PUSH2 0x365 JUMPI PUSH1 0x0 DUP1 REVERT JUMPDEST POP JUMP JUMPDEST PUSH1 0x0 DUP2 CALLDATALOAD SWAP1 POP PUSH2 0x377 DUP2 PUSH2 0x351 JUMP JUMPDEST SWAP3 SWAP2 POP POP JUMP JUMPDEST PUSH1 0x0 PUSH1 0xFF DUP3 AND SWAP1 POP SWAP2 SWAP1 POP JUMP JUMPDEST PUSH2 0x393 DUP2 PUSH2 0x37D JUMP JUMPDEST DUP2 EQ PUSH2 0x39E JUMPI PUSH1 0x0 DUP1 REVERT JUMPDEST POP JUMP JUMPDEST PUSH1 0x0 DUP2 CALLDATALOAD SWAP1 POP PUSH2 0x3B0 DUP2 PUSH2 0x38A JUMP JUMPDEST SWAP3 SWAP2 POP POP JUMP JUMPDEST PUSH1 0x0 DUP1 REVERT JUMPDEST PUSH1 0x0 DUP1 REVERT JUMPDEST PUSH1 0x0 DUP1 REVERT JUMPDEST PUSH1 0x0 DUP1 DUP4 PUSH1 0x1F DUP5 ADD SLT PUSH2 0x3DB JUMPI PUSH2 0x3DA PUSH2 0x3B6 JUMP JUMPDEST JUMPDEST DUP3 CALLDATALOAD SWAP1 POP PUSH8 0xFFFFFFFFFFFFFFFF DUP2 GT ISZERO PUSH2 0x3F8 JUMPI PUSH2 0x3F7 PUSH2 0x3BB JUMP JUMPDEST JUMPDEST PUSH1 0x20 DUP4 ADD SWAP2 POP DUP4 PUSH1 0x1 DUP3 MUL DUP4 ADD GT ISZERO PUSH2 0x414 JUMPI PUSH2 0x413 PUSH2 0x3C0 JUMP JUMPDEST JUMPDEST SWAP3 POP SWAP3 SWAP1 POP JUMP JUMPDEST PUSH1 0x0 DUP1 PUSH1 0x0 DUP1 PUSH1 0x60 DUP6 DUP8 SUB SLT ISZERO PUSH2 0x435 JUMPI PUSH2 0x434 PUSH2 0x315 JUMP JUMPDEST JUMPDEST PUSH1 0x0 PUSH2 0x443 DUP8 DUP3 DUP9 ADD PUSH2 0x368 JUMP JUMPDEST SWAP5 POP POP PUSH1 0x20 PUSH2 0x454 DUP8 DUP3 DUP9 ADD PUSH2 0x3A1 JUMP JUMPDEST SWAP4 POP POP PUSH1 0x40 DUP6 ADD CALLDATALOAD PUSH8 0xFFFFFFFFFFFFFFFF DUP2 GT ISZERO PUSH2 0x475 JUMPI PUSH2 0x474 PUSH2 0x31A JUMP JUMPDEST JUMPDEST PUSH2 0x481 DUP8 DUP3 DUP9 ADD PUSH2 0x3C5 JUMP JUMPDEST SWAP3 POP SWAP3 POP POP SWAP3 SWAP6 SWAP2 SWAP5 POP SWAP3 POP JUMP JUMPDEST PUSH1 0x0 DUP2 ISZERO ISZERO SWAP1 POP SWAP2 SWAP1 POP JUMP JUMPDEST PUSH2 0x4A4 DUP2 PUSH2 0x48F JUMP JUMPDEST DUP3 MSTORE POP POP JUMP JUMPDEST PUSH1 0x0 PUSH1 0x20 DUP3 ADD SWAP1 POP PUSH2 0x4BF PUSH1 0x0 DUP4 ADD DUP5 PUSH2 0x49B JUMP JUMPDEST SWAP3 SWAP2 POP POP JUMP JUMPDEST PUSH1 0x0 PUSH1 0x20 DUP3 DUP5 SUB SLT ISZERO PUSH2 0x4DB JUMPI PUSH2 0x4DA PUSH2 0x315 JUMP JUMPDEST JUMPDEST PUSH1 0x0 PUSH2 0x4E9 DUP5 DUP3 DUP6 ADD PUSH2 0x368 JUMP JUMPDEST SWAP2 POP POP SWAP3 SWAP2 POP POP JUMP JUMPDEST PUSH1 0x0 DUP2 SWAP1 POP SWAP2 SWAP1 POP JUMP JUMPDEST PUSH2 0x505 DUP2 PUSH2 0x4F2 JUMP JUMPDEST DUP3 MSTORE POP POP JUMP JUMPDEST PUSH2 0x514 DUP2 PUSH2 0x33F JUMP JUMPDEST DUP3 MSTORE POP POP JUMP JUMPDEST PUSH2 0x523 DUP2 PUSH2 0x37D JUMP JUMPDEST DUP3 MSTORE POP POP JUMP JUMPDEST PUSH1 0x0 DUP2 MLOAD SWAP1 POP SWAP2 SWAP1 POP JUMP JUMPDEST PUSH1 0x0 DUP3 DUP3 MSTORE PUSH1 0x20 DUP3 ADD SWAP1 POP SWAP3 SWAP2 POP POP JUMP JUMPDEST PUSH1 0x0 JUMPDEST DUP4 DUP2 LT ISZERO PUSH2 0x563 JUMPI DUP1 DUP3 ADD MLOAD DUP2 DUP5 ADD MSTORE PUSH1 0x20 DUP2 ADD SWAP1 POP PUSH2 0x548 JUMP JUMPDEST DUP4 DUP2 GT ISZERO PUSH2 0x572 JUMPI PUSH1 0x0 DUP5 DUP5 ADD MSTORE JUMPDEST POP POP POP POP JUMP JUMPDEST PUSH1 0x0 PUSH1 0x1F NOT PUSH1 0x1F DUP4 ADD AND SWAP1 POP SWAP2 SWAP1 POP JUMP JUMPDEST PUSH1 0x0 PUSH2 0x594 DUP3 PUSH2 0x529 JUMP JUMPDEST PUSH2 0x59E DUP2 DUP6 PUSH2 0x534 JUMP JUMPDEST SWAP4 POP PUSH2 0x5AE DUP2 DUP6 PUSH1 0x20 DUP7 ADD PUSH2 0x545 JUMP JUMPDEST PUSH2 0x5B7 DUP2 PUSH2 0x578 JUMP JUMPDEST DUP5 ADD SWAP2 POP POP SWAP3 SWAP2 POP POP JUMP JUMPDEST PUSH1 0x0 PUSH1 0x80 DUP4 ADD PUSH1 0x0 DUP4 ADD MLOAD PUSH2 0x5DA PUSH1 0x0 DUP7 ADD DUP3 PUSH2 0x4FC JUMP JUMPDEST POP PUSH1 0x20 DUP4 ADD MLOAD PUSH2 0x5ED PUSH1 0x20 DUP7 ADD DUP3 PUSH2 0x50B JUMP JUMPDEST POP PUSH1 0x40 DUP4 ADD MLOAD PUSH2 0x600 PUSH1 0x40 DUP7 ADD DUP3 PUSH2 0x51A JUMP JUMPDEST POP PUSH1 0x60 DUP4 ADD MLOAD DUP5 DUP3 SUB PUSH1 0x60 DUP7 ADD MSTORE PUSH2 0x618 DUP3 DUP3 PUSH2 0x589 JUMP JUMPDEST SWAP2 POP POP DUP1 SWAP2 POP POP SWAP3 SWAP2 POP POP JUMP JUMPDEST PUSH1 0x0 PUSH1 0x20 DUP3 ADD SWAP1 POP DUP2 DUP2 SUB PUSH1 0x0 DUP4 ADD MSTORE PUSH2 0x63F DUP2 DUP5 PUSH2 0x5C2 JUMP JUMPDEST SWAP1 POP SWAP3 SWAP2 POP POP JUMP JUMPDEST PUSH1 0x0 DUP3 DUP3 MSTORE PUSH1 0x20 DUP3 ADD SWAP1 POP SWAP3 SWAP2 POP POP JUMP JUMPDEST PUSH32 0x4E6F742049737375657200000000000000000000000000000000000000000000 PUSH1 0x0 DUP3 ADD MSTORE POP JUMP JUMPDEST PUSH1 0x0 PUSH2 0x68E PUSH1 0xA DUP4 PUSH2 0x647 JUMP JUMPDEST SWAP2 POP PUSH2 0x699 DUP3 PUSH2 0x658 JUMP JUMPDEST PUSH1 0x20 DUP3 ADD SWAP1 POP SWAP2 SWAP1 POP JUMP JUMPDEST PUSH1 0x0 PUSH1 0x20 DUP3 ADD SWAP1 POP DUP2 DUP2 SUB PUSH1 0x0 DUP4 ADD MSTORE PUSH2 0x6BD DUP2 PUSH2 0x681 JUMP JUMPDEST SWAP1 POP SWAP2 SWAP1 POP JUMP JUMPDEST PUSH32 0x4E487B7100000000000000000000000000000000000000000000000000000000 PUSH1 0x0 MSTORE PUSH1 0x11 PUSH1 0x4 MSTORE PUSH1 0x24 PUSH1 0x0 REVERT JUMPDEST PUSH1 0x0 PUSH2 0x6FE DUP3 PUSH2 0x4F2 JUMP JUMPDEST SWAP2 POP PUSH2 0x709 DUP4 PUSH2 0x4F2 JUMP JUMPDEST SWAP3 POP DUP3 PUSH32 0xFFFFFFFFFFFFFFFFFFFFFFFFFFFFFFFFFFFFFFFFFFFFFFFFFFFFFFFFFFFFFFFF SUB DUP3 GT ISZERO PUSH2 0x73E JUMPI PUSH2 0x73D PUSH2 0x6C4 JUMP JUMPDEST JUMPDEST DUP3 DUP3 ADD SWAP1 POP SWAP3 SWAP2 POP POP JUMP JUMPDEST PUSH32 0x4E487B7100000000000000000000000000000000000000000000000000000000 PUSH1 0x0 MSTORE PUSH1 0x22 PUSH1 0x4 MSTORE PUSH1 0x24 PUSH1 0x0 REVERT JUMPDEST PUSH1 0x0 PUSH1 0x2 DUP3 DIV SWAP1 POP PUSH1 0x1 DUP3 AND DUP1 PUSH2 0x790 JUMPI PUSH1 0x7F DUP3 AND SWAP2 POP JUMPDEST PUSH1 0x20 DUP3 LT DUP2 EQ ISZERO PUSH2 0x7A4 JUMPI PUSH2 0x7A3 PUSH2 0x749 JUMP JUMPDEST JUMPDEST POP SWAP2 SWAP1 POP JUMP INVALID LOG2 PUSH5 0x6970667358 0x22 SLT KECCAK256 DUP14 PUSH13 0xE441A6D70D9A275AA82B885411 EXTCODECOPY SWAP9 0xD0 0xEA DUP16 0xEC PUSH25 0xBC4DC54B376ACCC59E8164736F6C634300080A003300000000 "
				},
				"gasEstimates": {
					"creation": {
						"codeDepositCost": "403200",
						"executionCost": "infinite",
						"totalCost": "infinite"
					},
					"external": {
						"claimCredential(address,uint8,string)": "infinite",
						"getCredential(address)": "infinite"
					}
				},
				"methodIdentifiers": {
					"claimCredential(address,uint8,string)": "617ae364",
					"getCredential(address)": "ccdad14b"
				}
			},
			"userdoc": {
				"kind": "user",
				"methods": {},
				"version": 1
			}
		}
	}
}