{
	"did-vaccine.sol": {
		"VaccineCredential": {
			"abi": [
				{
					"inputs": [],
					"stateMutability": "nonpayable",
					"type": "constructor"
				},
				{
					"inputs": [
						{
							"internalType": "address",
							"name": "_applicantAddress",
							"type": "address"
						},
						{
							"internalType": "uint8",
							"name": "_vaccineType",
							"type": "uint8"
						}
					],
					"name": "claimCredential",
					"outputs": [
						{
							"internalType": "bool",
							"name": "",
							"type": "bool"
						}
					],
					"stateMutability": "nonpayable",
					"type": "function"
				},
				{
					"inputs": [
						{
							"internalType": "address",
							"name": "_applicantAddress",
							"type": "address"
						}
					],
					"name": "getCredential",
					"outputs": [
						{
							"components": [
								{
									"internalType": "uint256",
									"name": "id",
									"type": "uint256"
								},
								{
									"internalType": "uint256",
									"name": "verifiedTime",
									"type": "uint256"
								},
								{
									"internalType": "address",
									"name": "issuer",
									"type": "address"
								},
								{
									"internalType": "uint8",
									"name": "vaccineType",
									"type": "uint8"
								}
							],
							"internalType": "struct VaccineCredential.Credential",
							"name": "",
							"type": "tuple"
						}
					],
					"stateMutability": "view",
					"type": "function"
				}
			],
			"devdoc": {
				"kind": "dev",
				"methods": {},
				"version": 1
			},
			"evm": {
				"assembly": "    /* \"did-vaccine.sol\":61:1264  contract VaccineCredential {... */\n  mstore(0x40, 0x80)\n    /* \"did-vaccine.sol\":398:623  constructor() {... */\n  callvalue\n  dup1\n  iszero\n  tag_1\n  jumpi\n  0x00\n  dup1\n  revert\ntag_1:\n  pop\n    /* \"did-vaccine.sol\":438:448  msg.sender */\n  caller\n    /* \"did-vaccine.sol\":422:435  issuerAddress */\n  0x00\n  dup1\n    /* \"did-vaccine.sol\":422:448  issuerAddress = msg.sender */\n  0x0100\n  exp\n  dup2\n  sload\n  dup2\n  0xffffffffffffffffffffffffffffffffffffffff\n  mul\n  not\n  and\n  swap1\n  dup4\n  0xffffffffffffffffffffffffffffffffffffffff\n  and\n  mul\n  or\n  swap1\n  sstore\n  pop\n    /* \"did-vaccine.sol\":468:469  1 */\n  0x01\n    /* \"did-vaccine.sol\":458:465  idCount */\n  dup1\n    /* \"did-vaccine.sol\":458:469  idCount = 1 */\n  dup2\n  swap1\n  sstore\n  pop\n    /* \"did-vaccine.sol\":479:504  vaccineEnum[0] = \"Pfizer\" */\n  mload(0x40)\n  dup1\n  0x40\n  add\n  0x40\n  mstore\n  dup1\n  0x06\n  dup2\n  mstore\n  0x20\n  add\n  0x5066697a65720000000000000000000000000000000000000000000000000000\n  dup2\n  mstore\n  pop\n    /* \"did-vaccine.sol\":479:490  vaccineEnum */\n  0x02\n    /* \"did-vaccine.sol\":479:493  vaccineEnum[0] */\n  0x00\n    /* \"did-vaccine.sol\":491:492  0 */\n  dup1\n    /* \"did-vaccine.sol\":479:493  vaccineEnum[0] */\n  0xff\n  and\n  dup2\n  mstore\n  0x20\n  add\n  swap1\n  dup2\n  mstore\n  0x20\n  add\n  0x00\n  keccak256\n    /* \"did-vaccine.sol\":479:504  vaccineEnum[0] = \"Pfizer\" */\n  swap1\n  dup1\n  mload\n  swap1\n  0x20\n  add\n  swap1\n  tag_4\n  swap3\n  swap2\n  swap1\n  tag_5\n  jump\t// in\ntag_4:\n  pop\n    /* \"did-vaccine.sol\":514:540  vaccineEnum[1] = \"Moderna\" */\n  mload(0x40)\n  dup1\n  0x40\n  add\n  0x40\n  mstore\n  dup1\n  0x07\n  dup2\n  mstore\n  0x20\n  add\n  0x4d6f6465726e6100000000000000000000000000000000000000000000000000\n  dup2\n  mstore\n  pop\n    /* \"did-vaccine.sol\":514:525  vaccineEnum */\n  0x02\n    /* \"did-vaccine.sol\":514:528  vaccineEnum[1] */\n  0x00\n    /* \"did-vaccine.sol\":526:527  1 */\n  0x01\n    /* \"did-vaccine.sol\":514:528  vaccineEnum[1] */\n  0xff\n  and\n  dup2\n  mstore\n  0x20\n  add\n  swap1\n  dup2\n  mstore\n  0x20\n  add\n  0x00\n  keccak256\n    /* \"did-vaccine.sol\":514:540  vaccineEnum[1] = \"Moderna\" */\n  swap1\n  dup1\n  mload\n  swap1\n  0x20\n  add\n  swap1\n  tag_6\n  swap3\n  swap2\n  swap1\n  tag_5\n  jump\t// in\ntag_6:\n  pop\n    /* \"did-vaccine.sol\":550:580  vaccineEnum[2] = \"AstraZeneca\" */\n  mload(0x40)\n  dup1\n  0x40\n  add\n  0x40\n  mstore\n  dup1\n  0x0b\n  dup2\n  mstore\n  0x20\n  add\n  0x41737472615a656e656361000000000000000000000000000000000000000000\n  dup2\n  mstore\n  pop\n    /* \"did-vaccine.sol\":550:561  vaccineEnum */\n  0x02\n    /* \"did-vaccine.sol\":550:564  vaccineEnum[2] */\n  0x00\n    /* \"did-vaccine.sol\":562:563  2 */\n  0x02\n    /* \"did-vaccine.sol\":550:564  vaccineEnum[2] */\n  0xff\n  and\n  dup2\n  mstore\n  0x20\n  add\n  swap1\n  dup2\n  mstore\n  0x20\n  add\n  0x00\n  keccak256\n    /* \"did-vaccine.sol\":550:580  vaccineEnum[2] = \"AstraZeneca\" */\n  swap1\n  dup1\n  mload\n  swap1\n  0x20\n  add\n  swap1\n  tag_7\n  swap3\n  swap2\n  swap1\n  tag_5\n  jump\t// in\ntag_7:\n  pop\n    /* \"did-vaccine.sol\":590:616  vaccineEnum[3] = \"Janssen\" */\n  mload(0x40)\n  dup1\n  0x40\n  add\n  0x40\n  mstore\n  dup1\n  0x07\n  dup2\n  mstore\n  0x20\n  add\n  0x4a616e7373656e00000000000000000000000000000000000000000000000000\n  dup2\n  mstore\n  pop\n    /* \"did-vaccine.sol\":590:601  vaccineEnum */\n  0x02\n    /* \"did-vaccine.sol\":590:604  vaccineEnum[3] */\n  0x00\n    /* \"did-vaccine.sol\":602:603  3 */\n  0x03\n    /* \"did-vaccine.sol\":590:604  vaccineEnum[3] */\n  0xff\n  and\n  dup2\n  mstore\n  0x20\n  add\n  swap1\n  dup2\n  mstore\n  0x20\n  add\n  0x00\n  keccak256\n    /* \"did-vaccine.sol\":590:616  vaccineEnum[3] = \"Janssen\" */\n  swap1\n  dup1\n  mload\n  swap1\n  0x20\n  add\n  swap1\n  tag_8\n  swap3\n  swap2\n  swap1\n  tag_5\n  jump\t// in\ntag_8:\n  pop\n    /* \"did-vaccine.sol\":61:1264  contract VaccineCredential {... */\n  jump(tag_9)\ntag_5:\n  dup3\n  dup1\n  sload\n  tag_10\n  swap1\n  tag_11\n  jump\t// in\ntag_10:\n  swap1\n  0x00\n  mstore\n  keccak256(0x00, 0x20)\n  swap1\n  0x1f\n  add\n  0x20\n  swap1\n  div\n  dup2\n  add\n  swap3\n  dup3\n  tag_13\n  jumpi\n  0x00\n  dup6\n  sstore\n  jump(tag_12)\ntag_13:\n  dup3\n  0x1f\n  lt\n  tag_14\n  jumpi\n  dup1\n  mload\n  not(0xff)\n  and\n  dup4\n  dup1\n  add\n  or\n  dup6\n  sstore\n  jump(tag_12)\ntag_14:\n  dup3\n  dup1\n  add\n  0x01\n  add\n  dup6\n  sstore\n  dup3\n  iszero\n  tag_12\n  jumpi\n  swap2\n  dup3\n  add\ntag_15:\n  dup3\n  dup2\n  gt\n  iszero\n  tag_16\n  jumpi\n  dup3\n  mload\n  dup3\n  sstore\n  swap2\n  0x20\n  add\n  swap2\n  swap1\n  0x01\n  add\n  swap1\n  jump(tag_15)\ntag_16:\ntag_12:\n  pop\n  swap1\n  pop\n  tag_17\n  swap2\n  swap1\n  tag_18\n  jump\t// in\ntag_17:\n  pop\n  swap1\n  jump\t// out\ntag_18:\ntag_19:\n  dup1\n  dup3\n  gt\n  iszero\n  tag_20\n  jumpi\n  0x00\n  dup2\n  0x00\n  swap1\n  sstore\n  pop\n  0x01\n  add\n  jump(tag_19)\ntag_20:\n  pop\n  swap1\n  jump\t// out\n    /* \"#utility.yul\":7:187   */\ntag_21:\n    /* \"#utility.yul\":55:132   */\n  0x4e487b7100000000000000000000000000000000000000000000000000000000\n    /* \"#utility.yul\":52:53   */\n  0x00\n    /* \"#utility.yul\":45:133   */\n  mstore\n    /* \"#utility.yul\":152:156   */\n  0x22\n    /* \"#utility.yul\":149:150   */\n  0x04\n    /* \"#utility.yul\":142:157   */\n  mstore\n    /* \"#utility.yul\":176:180   */\n  0x24\n    /* \"#utility.yul\":173:174   */\n  0x00\n    /* \"#utility.yul\":166:181   */\n  revert\n    /* \"#utility.yul\":193:513   */\ntag_11:\n    /* \"#utility.yul\":237:243   */\n  0x00\n    /* \"#utility.yul\":274:275   */\n  0x02\n    /* \"#utility.yul\":268:272   */\n  dup3\n    /* \"#utility.yul\":264:276   */\n  div\n    /* \"#utility.yul\":254:276   */\n  swap1\n  pop\n    /* \"#utility.yul\":321:322   */\n  0x01\n    /* \"#utility.yul\":315:319   */\n  dup3\n    /* \"#utility.yul\":311:323   */\n  and\n    /* \"#utility.yul\":342:360   */\n  dup1\n    /* \"#utility.yul\":332:413   */\n  tag_25\n  jumpi\n    /* \"#utility.yul\":398:402   */\n  0x7f\n    /* \"#utility.yul\":390:396   */\n  dup3\n    /* \"#utility.yul\":386:403   */\n  and\n    /* \"#utility.yul\":376:403   */\n  swap2\n  pop\n    /* \"#utility.yul\":332:413   */\ntag_25:\n    /* \"#utility.yul\":460:462   */\n  0x20\n    /* \"#utility.yul\":452:458   */\n  dup3\n    /* \"#utility.yul\":449:463   */\n  lt\n    /* \"#utility.yul\":429:447   */\n  dup2\n    /* \"#utility.yul\":426:464   */\n  eq\n    /* \"#utility.yul\":423:507   */\n  iszero\n  tag_26\n  jumpi\n    /* \"#utility.yul\":479:497   */\n  tag_27\n  tag_21\n  jump\t// in\ntag_27:\n    /* \"#utility.yul\":423:507   */\ntag_26:\n    /* \"#utility.yul\":244:513   */\n  pop\n    /* \"#utility.yul\":193:513   */\n  swap2\n  swap1\n  pop\n  jump\t// out\n    /* \"did-vaccine.sol\":61:1264  contract VaccineCredential {... */\ntag_9:\n  dataSize(sub_0)\n  dup1\n  dataOffset(sub_0)\n  0x00\n  codecopy\n  0x00\n  return\nstop\n\nsub_0: assembly {\n        /* \"did-vaccine.sol\":61:1264  contract VaccineCredential {... */\n      mstore(0x40, 0x80)\n      callvalue\n      dup1\n      iszero\n      tag_1\n      jumpi\n      0x00\n      dup1\n      revert\n    tag_1:\n      pop\n      jumpi(tag_2, lt(calldatasize, 0x04))\n      shr(0xe0, calldataload(0x00))\n      dup1\n      0xccdad14b\n      eq\n      tag_3\n      jumpi\n      dup1\n      0xdefa395e\n      eq\n      tag_4\n      jumpi\n    tag_2:\n      0x00\n      dup1\n      revert\n        /* \"did-vaccine.sol\":1119:1262  function getCredential(address _applicantAddress) public view returns(Credential memory) {... */\n    tag_3:\n      tag_5\n      0x04\n      dup1\n      calldatasize\n      sub\n      dup2\n      add\n      swap1\n      tag_6\n      swap2\n      swap1\n      tag_7\n      jump\t// in\n    tag_6:\n      tag_8\n      jump\t// in\n    tag_5:\n      mload(0x40)\n      tag_9\n      swap2\n      swap1\n      tag_10\n      jump\t// in\n    tag_9:\n      mload(0x40)\n      dup1\n      swap2\n      sub\n      swap1\n      return\n        /* \"did-vaccine.sol\":629:1113  function claimCredential(address _applicantAddress, uint8 _vaccineType) public returns(bool) {... */\n    tag_4:\n      tag_11\n      0x04\n      dup1\n      calldatasize\n      sub\n      dup2\n      add\n      swap1\n      tag_12\n      swap2\n      swap1\n      tag_13\n      jump\t// in\n    tag_12:\n      tag_14\n      jump\t// in\n    tag_11:\n      mload(0x40)\n      tag_15\n      swap2\n      swap1\n      tag_16\n      jump\t// in\n    tag_15:\n      mload(0x40)\n      dup1\n      swap2\n      sub\n      swap1\n      return\n        /* \"did-vaccine.sol\":1119:1262  function getCredential(address _applicantAddress) public view returns(Credential memory) {... */\n    tag_8:\n        /* \"did-vaccine.sol\":1189:1206  Credential memory */\n      tag_17\n      tag_18\n      jump\t// in\n    tag_17:\n        /* \"did-vaccine.sol\":1225:1236  credentials */\n      0x03\n        /* \"did-vaccine.sol\":1225:1255  credentials[_applicantAddress] */\n      0x00\n        /* \"did-vaccine.sol\":1237:1254  _applicantAddress */\n      dup4\n        /* \"did-vaccine.sol\":1225:1255  credentials[_applicantAddress] */\n      0xffffffffffffffffffffffffffffffffffffffff\n      and\n      0xffffffffffffffffffffffffffffffffffffffff\n      and\n      dup2\n      mstore\n      0x20\n      add\n      swap1\n      dup2\n      mstore\n      0x20\n      add\n      0x00\n      keccak256\n        /* \"did-vaccine.sol\":1218:1255  return credentials[_applicantAddress] */\n      mload(0x40)\n      dup1\n      0x80\n      add\n      0x40\n      mstore\n      swap1\n      dup2\n      0x00\n      dup3\n      add\n      sload\n      dup2\n      mstore\n      0x20\n      add\n      0x01\n      dup3\n      add\n      sload\n      dup2\n      mstore\n      0x20\n      add\n      0x02\n      dup3\n      add\n      0x00\n      swap1\n      sload\n      swap1\n      0x0100\n      exp\n      swap1\n      div\n      0xffffffffffffffffffffffffffffffffffffffff\n      and\n      0xffffffffffffffffffffffffffffffffffffffff\n      and\n      0xffffffffffffffffffffffffffffffffffffffff\n      and\n      dup2\n      mstore\n      0x20\n      add\n      0x02\n      dup3\n      add\n      0x14\n      swap1\n      sload\n      swap1\n      0x0100\n      exp\n      swap1\n      div\n      0xff\n      and\n      0xff\n      and\n      0xff\n      and\n      dup2\n      mstore\n      pop\n      pop\n      swap1\n      pop\n        /* \"did-vaccine.sol\":1119:1262  function getCredential(address _applicantAddress) public view returns(Credential memory) {... */\n      swap2\n      swap1\n      pop\n      jump\t// out\n        /* \"did-vaccine.sol\":629:1113  function claimCredential(address _applicantAddress, uint8 _vaccineType) public returns(bool) {... */\n    tag_14:\n        /* \"did-vaccine.sol\":716:720  bool */\n      0x00\n        /* \"did-vaccine.sol\":757:767  msg.sender */\n      caller\n        /* \"did-vaccine.sol\":740:767  issuerAddress == msg.sender */\n      0xffffffffffffffffffffffffffffffffffffffff\n      and\n        /* \"did-vaccine.sol\":740:753  issuerAddress */\n      0x00\n      dup1\n      sload\n      swap1\n      0x0100\n      exp\n      swap1\n      div\n      0xffffffffffffffffffffffffffffffffffffffff\n      and\n        /* \"did-vaccine.sol\":740:767  issuerAddress == msg.sender */\n      0xffffffffffffffffffffffffffffffffffffffff\n      and\n      eq\n        /* \"did-vaccine.sol\":732:782  require(issuerAddress == msg.sender, \"Not Issuer\") */\n      tag_21\n      jumpi\n      mload(0x40)\n      0x08c379a000000000000000000000000000000000000000000000000000000000\n      dup2\n      mstore\n      0x04\n      add\n      tag_22\n      swap1\n      tag_23\n      jump\t// in\n    tag_22:\n      mload(0x40)\n      dup1\n      swap2\n      sub\n      swap1\n      revert\n    tag_21:\n        /* \"did-vaccine.sol\":792:821  Credential storage credential */\n      0x00\n        /* \"did-vaccine.sol\":824:835  credentials */\n      0x03\n        /* \"did-vaccine.sol\":824:854  credentials[_applicantAddress] */\n      0x00\n        /* \"did-vaccine.sol\":836:853  _applicantAddress */\n      dup6\n        /* \"did-vaccine.sol\":824:854  credentials[_applicantAddress] */\n      0xffffffffffffffffffffffffffffffffffffffff\n      and\n      0xffffffffffffffffffffffffffffffffffffffff\n      and\n      dup2\n      mstore\n      0x20\n      add\n      swap1\n      dup2\n      mstore\n      0x20\n      add\n      0x00\n      keccak256\n        /* \"did-vaccine.sol\":792:854  Credential storage credential = credentials[_applicantAddress] */\n      swap1\n      pop\n        /* \"did-vaccine.sol\":889:890  0 */\n      0x00\n        /* \"did-vaccine.sol\":872:882  credential */\n      dup2\n        /* \"did-vaccine.sol\":872:885  credential.id */\n      0x00\n      add\n      sload\n        /* \"did-vaccine.sol\":872:890  credential.id == 0 */\n      eq\n        /* \"did-vaccine.sol\":864:891  require(credential.id == 0) */\n      tag_24\n      jumpi\n      0x00\n      dup1\n      revert\n    tag_24:\n        /* \"did-vaccine.sol\":917:924  idCount */\n      sload(0x01)\n        /* \"did-vaccine.sol\":901:911  credential */\n      dup2\n        /* \"did-vaccine.sol\":901:914  credential.id */\n      0x00\n      add\n        /* \"did-vaccine.sol\":901:924  credential.id = idCount */\n      dup2\n      swap1\n      sstore\n      pop\n        /* \"did-vaccine.sol\":954:964  msg.sender */\n      caller\n        /* \"did-vaccine.sol\":934:944  credential */\n      dup2\n        /* \"did-vaccine.sol\":934:951  credential.issuer */\n      0x02\n      add\n      0x00\n        /* \"did-vaccine.sol\":934:964  credential.issuer = msg.sender */\n      0x0100\n      exp\n      dup2\n      sload\n      dup2\n      0xffffffffffffffffffffffffffffffffffffffff\n      mul\n      not\n      and\n      swap1\n      dup4\n      0xffffffffffffffffffffffffffffffffffffffff\n      and\n      mul\n      or\n      swap1\n      sstore\n      pop\n        /* \"did-vaccine.sol\":999:1011  _vaccineType */\n      dup3\n        /* \"did-vaccine.sol\":974:984  credential */\n      dup2\n        /* \"did-vaccine.sol\":974:996  credential.vaccineType */\n      0x02\n      add\n      0x14\n        /* \"did-vaccine.sol\":974:1011  credential.vaccineType = _vaccineType */\n      0x0100\n      exp\n      dup2\n      sload\n      dup2\n      0xff\n      mul\n      not\n      and\n      swap1\n      dup4\n      0xff\n      and\n      mul\n      or\n      swap1\n      sstore\n      pop\n        /* \"did-vaccine.sol\":1047:1062  block.timestamp */\n      timestamp\n        /* \"did-vaccine.sol\":1021:1031  credential */\n      dup2\n        /* \"did-vaccine.sol\":1021:1044  credential.verifiedTime */\n      0x01\n      add\n        /* \"did-vaccine.sol\":1021:1062  credential.verifiedTime = block.timestamp */\n      dup2\n      swap1\n      sstore\n      pop\n        /* \"did-vaccine.sol\":1084:1085  1 */\n      0x01\n        /* \"did-vaccine.sol\":1073:1080  idCount */\n      dup1\n      0x00\n        /* \"did-vaccine.sol\":1073:1085  idCount += 1 */\n      dup3\n      dup3\n      sload\n      tag_25\n      swap2\n      swap1\n      tag_26\n      jump\t// in\n    tag_25:\n      swap3\n      pop\n      pop\n      dup2\n      swap1\n      sstore\n      pop\n        /* \"did-vaccine.sol\":1102:1106  true */\n      0x01\n        /* \"did-vaccine.sol\":1095:1106  return true */\n      swap2\n      pop\n      pop\n        /* \"did-vaccine.sol\":629:1113  function claimCredential(address _applicantAddress, uint8 _vaccineType) public returns(bool) {... */\n      swap3\n      swap2\n      pop\n      pop\n      jump\t// out\n    tag_18:\n      mload(0x40)\n      dup1\n      0x80\n      add\n      0x40\n      mstore\n      dup1\n      0x00\n      dup2\n      mstore\n      0x20\n      add\n      0x00\n      dup2\n      mstore\n      0x20\n      add\n      and(0xffffffffffffffffffffffffffffffffffffffff, 0x00)\n      dup2\n      mstore\n      0x20\n      add\n      and(0xff, 0x00)\n      dup2\n      mstore\n      pop\n      swap1\n      jump\t// out\n        /* \"#utility.yul\":88:205   */\n    tag_28:\n        /* \"#utility.yul\":197:198   */\n      0x00\n        /* \"#utility.yul\":194:195   */\n      dup1\n        /* \"#utility.yul\":187:199   */\n      revert\n        /* \"#utility.yul\":334:460   */\n    tag_30:\n        /* \"#utility.yul\":371:378   */\n      0x00\n        /* \"#utility.yul\":411:453   */\n      0xffffffffffffffffffffffffffffffffffffffff\n        /* \"#utility.yul\":404:409   */\n      dup3\n        /* \"#utility.yul\":400:454   */\n      and\n        /* \"#utility.yul\":389:454   */\n      swap1\n      pop\n        /* \"#utility.yul\":334:460   */\n      swap2\n      swap1\n      pop\n      jump\t// out\n        /* \"#utility.yul\":466:562   */\n    tag_31:\n        /* \"#utility.yul\":503:510   */\n      0x00\n        /* \"#utility.yul\":532:556   */\n      tag_54\n        /* \"#utility.yul\":550:555   */\n      dup3\n        /* \"#utility.yul\":532:556   */\n      tag_30\n      jump\t// in\n    tag_54:\n        /* \"#utility.yul\":521:556   */\n      swap1\n      pop\n        /* \"#utility.yul\":466:562   */\n      swap2\n      swap1\n      pop\n      jump\t// out\n        /* \"#utility.yul\":568:690   */\n    tag_32:\n        /* \"#utility.yul\":641:665   */\n      tag_56\n        /* \"#utility.yul\":659:664   */\n      dup2\n        /* \"#utility.yul\":641:665   */\n      tag_31\n      jump\t// in\n    tag_56:\n        /* \"#utility.yul\":634:639   */\n      dup2\n        /* \"#utility.yul\":631:666   */\n      eq\n        /* \"#utility.yul\":621:684   */\n      tag_57\n      jumpi\n        /* \"#utility.yul\":680:681   */\n      0x00\n        /* \"#utility.yul\":677:678   */\n      dup1\n        /* \"#utility.yul\":670:682   */\n      revert\n        /* \"#utility.yul\":621:684   */\n    tag_57:\n        /* \"#utility.yul\":568:690   */\n      pop\n      jump\t// out\n        /* \"#utility.yul\":696:835   */\n    tag_33:\n        /* \"#utility.yul\":742:747   */\n      0x00\n        /* \"#utility.yul\":780:786   */\n      dup2\n        /* \"#utility.yul\":767:787   */\n      calldataload\n        /* \"#utility.yul\":758:787   */\n      swap1\n      pop\n        /* \"#utility.yul\":796:829   */\n      tag_59\n        /* \"#utility.yul\":823:828   */\n      dup2\n        /* \"#utility.yul\":796:829   */\n      tag_32\n      jump\t// in\n    tag_59:\n        /* \"#utility.yul\":696:835   */\n      swap3\n      swap2\n      pop\n      pop\n      jump\t// out\n        /* \"#utility.yul\":841:1170   */\n    tag_7:\n        /* \"#utility.yul\":900:906   */\n      0x00\n        /* \"#utility.yul\":949:951   */\n      0x20\n        /* \"#utility.yul\":937:946   */\n      dup3\n        /* \"#utility.yul\":928:935   */\n      dup5\n        /* \"#utility.yul\":924:947   */\n      sub\n        /* \"#utility.yul\":920:952   */\n      slt\n        /* \"#utility.yul\":917:1036   */\n      iszero\n      tag_61\n      jumpi\n        /* \"#utility.yul\":955:1034   */\n      tag_62\n      tag_28\n      jump\t// in\n    tag_62:\n        /* \"#utility.yul\":917:1036   */\n    tag_61:\n        /* \"#utility.yul\":1075:1076   */\n      0x00\n        /* \"#utility.yul\":1100:1153   */\n      tag_63\n        /* \"#utility.yul\":1145:1152   */\n      dup5\n        /* \"#utility.yul\":1136:1142   */\n      dup3\n        /* \"#utility.yul\":1125:1134   */\n      dup6\n        /* \"#utility.yul\":1121:1143   */\n      add\n        /* \"#utility.yul\":1100:1153   */\n      tag_33\n      jump\t// in\n    tag_63:\n        /* \"#utility.yul\":1090:1153   */\n      swap2\n      pop\n        /* \"#utility.yul\":1046:1163   */\n      pop\n        /* \"#utility.yul\":841:1170   */\n      swap3\n      swap2\n      pop\n      pop\n      jump\t// out\n        /* \"#utility.yul\":1176:1253   */\n    tag_34:\n        /* \"#utility.yul\":1213:1220   */\n      0x00\n        /* \"#utility.yul\":1242:1247   */\n      dup2\n        /* \"#utility.yul\":1231:1247   */\n      swap1\n      pop\n        /* \"#utility.yul\":1176:1253   */\n      swap2\n      swap1\n      pop\n      jump\t// out\n        /* \"#utility.yul\":1259:1367   */\n    tag_35:\n        /* \"#utility.yul\":1336:1360   */\n      tag_66\n        /* \"#utility.yul\":1354:1359   */\n      dup2\n        /* \"#utility.yul\":1336:1360   */\n      tag_34\n      jump\t// in\n    tag_66:\n        /* \"#utility.yul\":1331:1334   */\n      dup3\n        /* \"#utility.yul\":1324:1361   */\n      mstore\n        /* \"#utility.yul\":1259:1367   */\n      pop\n      pop\n      jump\t// out\n        /* \"#utility.yul\":1373:1481   */\n    tag_36:\n        /* \"#utility.yul\":1450:1474   */\n      tag_68\n        /* \"#utility.yul\":1468:1473   */\n      dup2\n        /* \"#utility.yul\":1450:1474   */\n      tag_31\n      jump\t// in\n    tag_68:\n        /* \"#utility.yul\":1445:1448   */\n      dup3\n        /* \"#utility.yul\":1438:1475   */\n      mstore\n        /* \"#utility.yul\":1373:1481   */\n      pop\n      pop\n      jump\t// out\n        /* \"#utility.yul\":1487:1573   */\n    tag_37:\n        /* \"#utility.yul\":1522:1529   */\n      0x00\n        /* \"#utility.yul\":1562:1566   */\n      0xff\n        /* \"#utility.yul\":1555:1560   */\n      dup3\n        /* \"#utility.yul\":1551:1567   */\n      and\n        /* \"#utility.yul\":1540:1567   */\n      swap1\n      pop\n        /* \"#utility.yul\":1487:1573   */\n      swap2\n      swap1\n      pop\n      jump\t// out\n        /* \"#utility.yul\":1579:1681   */\n    tag_38:\n        /* \"#utility.yul\":1652:1674   */\n      tag_71\n        /* \"#utility.yul\":1668:1673   */\n      dup2\n        /* \"#utility.yul\":1652:1674   */\n      tag_37\n      jump\t// in\n    tag_71:\n        /* \"#utility.yul\":1647:1650   */\n      dup3\n        /* \"#utility.yul\":1640:1675   */\n      mstore\n        /* \"#utility.yul\":1579:1681   */\n      pop\n      pop\n      jump\t// out\n        /* \"#utility.yul\":1769:2637   */\n    tag_39:\n        /* \"#utility.yul\":1918:1922   */\n      0x80\n        /* \"#utility.yul\":1913:1916   */\n      dup3\n        /* \"#utility.yul\":1909:1923   */\n      add\n        /* \"#utility.yul\":2003:2007   */\n      0x00\n        /* \"#utility.yul\":1996:2001   */\n      dup3\n        /* \"#utility.yul\":1992:2008   */\n      add\n        /* \"#utility.yul\":1986:2009   */\n      mload\n        /* \"#utility.yul\":2022:2085   */\n      tag_73\n        /* \"#utility.yul\":2079:2083   */\n      0x00\n        /* \"#utility.yul\":2074:2077   */\n      dup6\n        /* \"#utility.yul\":2070:2084   */\n      add\n        /* \"#utility.yul\":2056:2068   */\n      dup3\n        /* \"#utility.yul\":2022:2085   */\n      tag_35\n      jump\t// in\n    tag_73:\n        /* \"#utility.yul\":1933:2095   */\n      pop\n        /* \"#utility.yul\":2185:2189   */\n      0x20\n        /* \"#utility.yul\":2178:2183   */\n      dup3\n        /* \"#utility.yul\":2174:2190   */\n      add\n        /* \"#utility.yul\":2168:2191   */\n      mload\n        /* \"#utility.yul\":2204:2267   */\n      tag_74\n        /* \"#utility.yul\":2261:2265   */\n      0x20\n        /* \"#utility.yul\":2256:2259   */\n      dup6\n        /* \"#utility.yul\":2252:2266   */\n      add\n        /* \"#utility.yul\":2238:2250   */\n      dup3\n        /* \"#utility.yul\":2204:2267   */\n      tag_35\n      jump\t// in\n    tag_74:\n        /* \"#utility.yul\":2105:2277   */\n      pop\n        /* \"#utility.yul\":2361:2365   */\n      0x40\n        /* \"#utility.yul\":2354:2359   */\n      dup3\n        /* \"#utility.yul\":2350:2366   */\n      add\n        /* \"#utility.yul\":2344:2367   */\n      mload\n        /* \"#utility.yul\":2380:2443   */\n      tag_75\n        /* \"#utility.yul\":2437:2441   */\n      0x40\n        /* \"#utility.yul\":2432:2435   */\n      dup6\n        /* \"#utility.yul\":2428:2442   */\n      add\n        /* \"#utility.yul\":2414:2426   */\n      dup3\n        /* \"#utility.yul\":2380:2443   */\n      tag_36\n      jump\t// in\n    tag_75:\n        /* \"#utility.yul\":2287:2453   */\n      pop\n        /* \"#utility.yul\":2542:2546   */\n      0x60\n        /* \"#utility.yul\":2535:2540   */\n      dup3\n        /* \"#utility.yul\":2531:2547   */\n      add\n        /* \"#utility.yul\":2525:2548   */\n      mload\n        /* \"#utility.yul\":2561:2620   */\n      tag_76\n        /* \"#utility.yul\":2614:2618   */\n      0x60\n        /* \"#utility.yul\":2609:2612   */\n      dup6\n        /* \"#utility.yul\":2605:2619   */\n      add\n        /* \"#utility.yul\":2591:2603   */\n      dup3\n        /* \"#utility.yul\":2561:2620   */\n      tag_38\n      jump\t// in\n    tag_76:\n        /* \"#utility.yul\":2463:2630   */\n      pop\n        /* \"#utility.yul\":1887:2637   */\n      pop\n        /* \"#utility.yul\":1769:2637   */\n      pop\n      pop\n      jump\t// out\n        /* \"#utility.yul\":2643:2970   */\n    tag_10:\n        /* \"#utility.yul\":2788:2792   */\n      0x00\n        /* \"#utility.yul\":2826:2829   */\n      0x80\n        /* \"#utility.yul\":2815:2824   */\n      dup3\n        /* \"#utility.yul\":2811:2830   */\n      add\n        /* \"#utility.yul\":2803:2830   */\n      swap1\n      pop\n        /* \"#utility.yul\":2840:2963   */\n      tag_78\n        /* \"#utility.yul\":2960:2961   */\n      0x00\n        /* \"#utility.yul\":2949:2958   */\n      dup4\n        /* \"#utility.yul\":2945:2962   */\n      add\n        /* \"#utility.yul\":2936:2942   */\n      dup5\n        /* \"#utility.yul\":2840:2963   */\n      tag_39\n      jump\t// in\n    tag_78:\n        /* \"#utility.yul\":2643:2970   */\n      swap3\n      swap2\n      pop\n      pop\n      jump\t// out\n        /* \"#utility.yul\":2976:3094   */\n    tag_40:\n        /* \"#utility.yul\":3047:3069   */\n      tag_80\n        /* \"#utility.yul\":3063:3068   */\n      dup2\n        /* \"#utility.yul\":3047:3069   */\n      tag_37\n      jump\t// in\n    tag_80:\n        /* \"#utility.yul\":3040:3045   */\n      dup2\n        /* \"#utility.yul\":3037:3070   */\n      eq\n        /* \"#utility.yul\":3027:3088   */\n      tag_81\n      jumpi\n        /* \"#utility.yul\":3084:3085   */\n      0x00\n        /* \"#utility.yul\":3081:3082   */\n      dup1\n        /* \"#utility.yul\":3074:3086   */\n      revert\n        /* \"#utility.yul\":3027:3088   */\n    tag_81:\n        /* \"#utility.yul\":2976:3094   */\n      pop\n      jump\t// out\n        /* \"#utility.yul\":3100:3235   */\n    tag_41:\n        /* \"#utility.yul\":3144:3149   */\n      0x00\n        /* \"#utility.yul\":3182:3188   */\n      dup2\n        /* \"#utility.yul\":3169:3189   */\n      calldataload\n        /* \"#utility.yul\":3160:3189   */\n      swap1\n      pop\n        /* \"#utility.yul\":3198:3229   */\n      tag_83\n        /* \"#utility.yul\":3223:3228   */\n      dup2\n        /* \"#utility.yul\":3198:3229   */\n      tag_40\n      jump\t// in\n    tag_83:\n        /* \"#utility.yul\":3100:3235   */\n      swap3\n      swap2\n      pop\n      pop\n      jump\t// out\n        /* \"#utility.yul\":3241:3711   */\n    tag_13:\n        /* \"#utility.yul\":3307:3313   */\n      0x00\n        /* \"#utility.yul\":3315:3321   */\n      dup1\n        /* \"#utility.yul\":3364:3366   */\n      0x40\n        /* \"#utility.yul\":3352:3361   */\n      dup4\n        /* \"#utility.yul\":3343:3350   */\n      dup6\n        /* \"#utility.yul\":3339:3362   */\n      sub\n        /* \"#utility.yul\":3335:3367   */\n      slt\n        /* \"#utility.yul\":3332:3451   */\n      iszero\n      tag_85\n      jumpi\n        /* \"#utility.yul\":3370:3449   */\n      tag_86\n      tag_28\n      jump\t// in\n    tag_86:\n        /* \"#utility.yul\":3332:3451   */\n    tag_85:\n        /* \"#utility.yul\":3490:3491   */\n      0x00\n        /* \"#utility.yul\":3515:3568   */\n      tag_87\n        /* \"#utility.yul\":3560:3567   */\n      dup6\n        /* \"#utility.yul\":3551:3557   */\n      dup3\n        /* \"#utility.yul\":3540:3549   */\n      dup7\n        /* \"#utility.yul\":3536:3558   */\n      add\n        /* \"#utility.yul\":3515:3568   */\n      tag_33\n      jump\t// in\n    tag_87:\n        /* \"#utility.yul\":3505:3568   */\n      swap3\n      pop\n        /* \"#utility.yul\":3461:3578   */\n      pop\n        /* \"#utility.yul\":3617:3619   */\n      0x20\n        /* \"#utility.yul\":3643:3694   */\n      tag_88\n        /* \"#utility.yul\":3686:3693   */\n      dup6\n        /* \"#utility.yul\":3677:3683   */\n      dup3\n        /* \"#utility.yul\":3666:3675   */\n      dup7\n        /* \"#utility.yul\":3662:3684   */\n      add\n        /* \"#utility.yul\":3643:3694   */\n      tag_41\n      jump\t// in\n    tag_88:\n        /* \"#utility.yul\":3633:3694   */\n      swap2\n      pop\n        /* \"#utility.yul\":3588:3704   */\n      pop\n        /* \"#utility.yul\":3241:3711   */\n      swap3\n      pop\n      swap3\n      swap1\n      pop\n      jump\t// out\n        /* \"#utility.yul\":3717:3807   */\n    tag_42:\n        /* \"#utility.yul\":3751:3758   */\n      0x00\n        /* \"#utility.yul\":3794:3799   */\n      dup2\n        /* \"#utility.yul\":3787:3800   */\n      iszero\n        /* \"#utility.yul\":3780:3801   */\n      iszero\n        /* \"#utility.yul\":3769:3801   */\n      swap1\n      pop\n        /* \"#utility.yul\":3717:3807   */\n      swap2\n      swap1\n      pop\n      jump\t// out\n        /* \"#utility.yul\":3813:3922   */\n    tag_43:\n        /* \"#utility.yul\":3894:3915   */\n      tag_91\n        /* \"#utility.yul\":3909:3914   */\n      dup2\n        /* \"#utility.yul\":3894:3915   */\n      tag_42\n      jump\t// in\n    tag_91:\n        /* \"#utility.yul\":3889:3892   */\n      dup3\n        /* \"#utility.yul\":3882:3916   */\n      mstore\n        /* \"#utility.yul\":3813:3922   */\n      pop\n      pop\n      jump\t// out\n        /* \"#utility.yul\":3928:4138   */\n    tag_16:\n        /* \"#utility.yul\":4015:4019   */\n      0x00\n        /* \"#utility.yul\":4053:4055   */\n      0x20\n        /* \"#utility.yul\":4042:4051   */\n      dup3\n        /* \"#utility.yul\":4038:4056   */\n      add\n        /* \"#utility.yul\":4030:4056   */\n      swap1\n      pop\n        /* \"#utility.yul\":4066:4131   */\n      tag_93\n        /* \"#utility.yul\":4128:4129   */\n      0x00\n        /* \"#utility.yul\":4117:4126   */\n      dup4\n        /* \"#utility.yul\":4113:4130   */\n      add\n        /* \"#utility.yul\":4104:4110   */\n      dup5\n        /* \"#utility.yul\":4066:4131   */\n      tag_43\n      jump\t// in\n    tag_93:\n        /* \"#utility.yul\":3928:4138   */\n      swap3\n      swap2\n      pop\n      pop\n      jump\t// out\n        /* \"#utility.yul\":4144:4313   */\n    tag_44:\n        /* \"#utility.yul\":4228:4239   */\n      0x00\n        /* \"#utility.yul\":4262:4268   */\n      dup3\n        /* \"#utility.yul\":4257:4260   */\n      dup3\n        /* \"#utility.yul\":4250:4269   */\n      mstore\n        /* \"#utility.yul\":4302:4306   */\n      0x20\n        /* \"#utility.yul\":4297:4300   */\n      dup3\n        /* \"#utility.yul\":4293:4307   */\n      add\n        /* \"#utility.yul\":4278:4307   */\n      swap1\n      pop\n        /* \"#utility.yul\":4144:4313   */\n      swap3\n      swap2\n      pop\n      pop\n      jump\t// out\n        /* \"#utility.yul\":4319:4479   */\n    tag_45:\n        /* \"#utility.yul\":4459:4471   */\n      0x4e6f742049737375657200000000000000000000000000000000000000000000\n        /* \"#utility.yul\":4455:4456   */\n      0x00\n        /* \"#utility.yul\":4447:4453   */\n      dup3\n        /* \"#utility.yul\":4443:4457   */\n      add\n        /* \"#utility.yul\":4436:4472   */\n      mstore\n        /* \"#utility.yul\":4319:4479   */\n      pop\n      jump\t// out\n        /* \"#utility.yul\":4485:4851   */\n    tag_46:\n        /* \"#utility.yul\":4627:4630   */\n      0x00\n        /* \"#utility.yul\":4648:4715   */\n      tag_97\n        /* \"#utility.yul\":4712:4714   */\n      0x0a\n        /* \"#utility.yul\":4707:4710   */\n      dup4\n        /* \"#utility.yul\":4648:4715   */\n      tag_44\n      jump\t// in\n    tag_97:\n        /* \"#utility.yul\":4641:4715   */\n      swap2\n      pop\n        /* \"#utility.yul\":4724:4817   */\n      tag_98\n        /* \"#utility.yul\":4813:4816   */\n      dup3\n        /* \"#utility.yul\":4724:4817   */\n      tag_45\n      jump\t// in\n    tag_98:\n        /* \"#utility.yul\":4842:4844   */\n      0x20\n        /* \"#utility.yul\":4837:4840   */\n      dup3\n        /* \"#utility.yul\":4833:4845   */\n      add\n        /* \"#utility.yul\":4826:4845   */\n      swap1\n      pop\n        /* \"#utility.yul\":4485:4851   */\n      swap2\n      swap1\n      pop\n      jump\t// out\n        /* \"#utility.yul\":4857:5276   */\n    tag_23:\n        /* \"#utility.yul\":5023:5027   */\n      0x00\n        /* \"#utility.yul\":5061:5063   */\n      0x20\n        /* \"#utility.yul\":5050:5059   */\n      dup3\n        /* \"#utility.yul\":5046:5064   */\n      add\n        /* \"#utility.yul\":5038:5064   */\n      swap1\n      pop\n        /* \"#utility.yul\":5110:5119   */\n      dup2\n        /* \"#utility.yul\":5104:5108   */\n      dup2\n        /* \"#utility.yul\":5100:5120   */\n      sub\n        /* \"#utility.yul\":5096:5097   */\n      0x00\n        /* \"#utility.yul\":5085:5094   */\n      dup4\n        /* \"#utility.yul\":5081:5098   */\n      add\n        /* \"#utility.yul\":5074:5121   */\n      mstore\n        /* \"#utility.yul\":5138:5269   */\n      tag_100\n        /* \"#utility.yul\":5264:5268   */\n      dup2\n        /* \"#utility.yul\":5138:5269   */\n      tag_46\n      jump\t// in\n    tag_100:\n        /* \"#utility.yul\":5130:5269   */\n      swap1\n      pop\n        /* \"#utility.yul\":4857:5276   */\n      swap2\n      swap1\n      pop\n      jump\t// out\n        /* \"#utility.yul\":5282:5462   */\n    tag_47:\n        /* \"#utility.yul\":5330:5407   */\n      0x4e487b7100000000000000000000000000000000000000000000000000000000\n        /* \"#utility.yul\":5327:5328   */\n      0x00\n        /* \"#utility.yul\":5320:5408   */\n      mstore\n        /* \"#utility.yul\":5427:5431   */\n      0x11\n        /* \"#utility.yul\":5424:5425   */\n      0x04\n        /* \"#utility.yul\":5417:5432   */\n      mstore\n        /* \"#utility.yul\":5451:5455   */\n      0x24\n        /* \"#utility.yul\":5448:5449   */\n      0x00\n        /* \"#utility.yul\":5441:5456   */\n      revert\n        /* \"#utility.yul\":5468:5773   */\n    tag_26:\n        /* \"#utility.yul\":5508:5511   */\n      0x00\n        /* \"#utility.yul\":5527:5547   */\n      tag_103\n        /* \"#utility.yul\":5545:5546   */\n      dup3\n        /* \"#utility.yul\":5527:5547   */\n      tag_34\n      jump\t// in\n    tag_103:\n        /* \"#utility.yul\":5522:5547   */\n      swap2\n      pop\n        /* \"#utility.yul\":5561:5581   */\n      tag_104\n        /* \"#utility.yul\":5579:5580   */\n      dup4\n        /* \"#utility.yul\":5561:5581   */\n      tag_34\n      jump\t// in\n    tag_104:\n        /* \"#utility.yul\":5556:5581   */\n      swap3\n      pop\n        /* \"#utility.yul\":5715:5716   */\n      dup3\n        /* \"#utility.yul\":5647:5713   */\n      0xffffffffffffffffffffffffffffffffffffffffffffffffffffffffffffffff\n        /* \"#utility.yul\":5643:5717   */\n      sub\n        /* \"#utility.yul\":5640:5641   */\n      dup3\n        /* \"#utility.yul\":5637:5718   */\n      gt\n        /* \"#utility.yul\":5634:5741   */\n      iszero\n      tag_105\n      jumpi\n        /* \"#utility.yul\":5721:5739   */\n      tag_106\n      tag_47\n      jump\t// in\n    tag_106:\n        /* \"#utility.yul\":5634:5741   */\n    tag_105:\n        /* \"#utility.yul\":5765:5766   */\n      dup3\n        /* \"#utility.yul\":5762:5763   */\n      dup3\n        /* \"#utility.yul\":5758:5767   */\n      add\n        /* \"#utility.yul\":5751:5767   */\n      swap1\n      pop\n        /* \"#utility.yul\":5468:5773   */\n      swap3\n      swap2\n      pop\n      pop\n      jump\t// out\n\n    auxdata: 0xa26469706673582212204eb2e07b6d26b994901cc4f59ce7b1fe41fb773dea7ecfaca234969f6cd974f664736f6c634300080a0033\n}\n",
				"bytecode": {
					"linkReferences": {},
					"object": "608060405234801561001057600080fd5b50336000806101000a81548173ffffffffffffffffffffffffffffffffffffffff021916908373ffffffffffffffffffffffffffffffffffffffff160217905550600180819055506040518060400160405280600681526020017f5066697a65720000000000000000000000000000000000000000000000000000815250600260008060ff16815260200190815260200160002090805190602001906100b79291906101e0565b506040518060400160405280600781526020017f4d6f6465726e610000000000000000000000000000000000000000000000000081525060026000600160ff16815260200190815260200160002090805190602001906101189291906101e0565b506040518060400160405280600b81526020017f41737472615a656e65636100000000000000000000000000000000000000000081525060026000600260ff16815260200190815260200160002090805190602001906101799291906101e0565b506040518060400160405280600781526020017f4a616e7373656e0000000000000000000000000000000000000000000000000081525060026000600360ff16815260200190815260200160002090805190602001906101da9291906101e0565b506102e4565b8280546101ec906102b2565b90600052602060002090601f01602090048101928261020e5760008555610255565b82601f1061022757805160ff1916838001178555610255565b82800160010185558215610255579182015b82811115610254578251825591602001919060010190610239565b5b5090506102629190610266565b5090565b5b8082111561027f576000816000905550600101610267565b5090565b7f4e487b7100000000000000000000000000000000000000000000000000000000600052602260045260246000fd5b600060028204905060018216806102ca57607f821691505b602082108114156102de576102dd610283565b5b50919050565b610656806102f36000396000f3fe608060405234801561001057600080fd5b50600436106100365760003560e01c8063ccdad14b1461003b578063defa395e1461006b575b600080fd5b6100556004803603810190610050919061039b565b61009b565b6040516100629190610461565b60405180910390f35b610085600480360381019061008091906104a8565b61017b565b6040516100929190610503565b60405180910390f35b6100a36102f7565b600360008373ffffffffffffffffffffffffffffffffffffffff1673ffffffffffffffffffffffffffffffffffffffff16815260200190815260200160002060405180608001604052908160008201548152602001600182015481526020016002820160009054906101000a900473ffffffffffffffffffffffffffffffffffffffff1673ffffffffffffffffffffffffffffffffffffffff1673ffffffffffffffffffffffffffffffffffffffff1681526020016002820160149054906101000a900460ff1660ff1660ff16815250509050919050565b60003373ffffffffffffffffffffffffffffffffffffffff1660008054906101000a900473ffffffffffffffffffffffffffffffffffffffff1673ffffffffffffffffffffffffffffffffffffffff161461020b576040517f08c379a00000000000000000000000000000000000000000000000000000000081526004016102029061057b565b60405180910390fd5b6000600360008573ffffffffffffffffffffffffffffffffffffffff1673ffffffffffffffffffffffffffffffffffffffff1681526020019081526020016000209050600081600001541461025f57600080fd5b6001548160000181905550338160020160006101000a81548173ffffffffffffffffffffffffffffffffffffffff021916908373ffffffffffffffffffffffffffffffffffffffff160217905550828160020160146101000a81548160ff021916908360ff16021790555042816001018190555060018060008282546102e591906105ca565b92505081905550600191505092915050565b60405180608001604052806000815260200160008152602001600073ffffffffffffffffffffffffffffffffffffffff168152602001600060ff1681525090565b600080fd5b600073ffffffffffffffffffffffffffffffffffffffff82169050919050565b60006103688261033d565b9050919050565b6103788161035d565b811461038357600080fd5b50565b6000813590506103958161036f565b92915050565b6000602082840312156103b1576103b0610338565b5b60006103bf84828501610386565b91505092915050565b6000819050919050565b6103db816103c8565b82525050565b6103ea8161035d565b82525050565b600060ff82169050919050565b610406816103f0565b82525050565b60808201600082015161042260008501826103d2565b50602082015161043560208501826103d2565b50604082015161044860408501826103e1565b50606082015161045b60608501826103fd565b50505050565b6000608082019050610476600083018461040c565b92915050565b610485816103f0565b811461049057600080fd5b50565b6000813590506104a28161047c565b92915050565b600080604083850312156104bf576104be610338565b5b60006104cd85828601610386565b92505060206104de85828601610493565b9150509250929050565b60008115159050919050565b6104fd816104e8565b82525050565b600060208201905061051860008301846104f4565b92915050565b600082825260208201905092915050565b7f4e6f742049737375657200000000000000000000000000000000000000000000600082015250565b6000610565600a8361051e565b91506105708261052f565b602082019050919050565b6000602082019050818103600083015261059481610558565b9050919050565b7f4e487b7100000000000000000000000000000000000000000000000000000000600052601160045260246000fd5b60006105d5826103c8565b91506105e0836103c8565b9250827fffffffffffffffffffffffffffffffffffffffffffffffffffffffffffffffff038211156106155761061461059b565b5b82820190509291505056fea26469706673582212204eb2e07b6d26b994901cc4f59ce7b1fe41fb773dea7ecfaca234969f6cd974f664736f6c634300080a0033",
					"opcodes": "PUSH1 0x80 PUSH1 0x40 MSTORE CALLVALUE DUP1 ISZERO PUSH2 0x10 JUMPI PUSH1 0x0 DUP1 REVERT JUMPDEST POP CALLER PUSH1 0x0 DUP1 PUSH2 0x100 EXP DUP2 SLOAD DUP2 PUSH20 0xFFFFFFFFFFFFFFFFFFFFFFFFFFFFFFFFFFFFFFFF MUL NOT AND SWAP1 DUP4 PUSH20 0xFFFFFFFFFFFFFFFFFFFFFFFFFFFFFFFFFFFFFFFF AND MUL OR SWAP1 SSTORE POP PUSH1 0x1 DUP1 DUP2 SWAP1 SSTORE POP PUSH1 0x40 MLOAD DUP1 PUSH1 0x40 ADD PUSH1 0x40 MSTORE DUP1 PUSH1 0x6 DUP2 MSTORE PUSH1 0x20 ADD PUSH32 0x5066697A65720000000000000000000000000000000000000000000000000000 DUP2 MSTORE POP PUSH1 0x2 PUSH1 0x0 DUP1 PUSH1 0xFF AND DUP2 MSTORE PUSH1 0x20 ADD SWAP1 DUP2 MSTORE PUSH1 0x20 ADD PUSH1 0x0 KECCAK256 SWAP1 DUP1 MLOAD SWAP1 PUSH1 0x20 ADD SWAP1 PUSH2 0xB7 SWAP3 SWAP2 SWAP1 PUSH2 0x1E0 JUMP JUMPDEST POP PUSH1 0x40 MLOAD DUP1 PUSH1 0x40 ADD PUSH1 0x40 MSTORE DUP1 PUSH1 0x7 DUP2 MSTORE PUSH1 0x20 ADD PUSH32 0x4D6F6465726E6100000000000000000000000000000000000000000000000000 DUP2 MSTORE POP PUSH1 0x2 PUSH1 0x0 PUSH1 0x1 PUSH1 0xFF AND DUP2 MSTORE PUSH1 0x20 ADD SWAP1 DUP2 MSTORE PUSH1 0x20 ADD PUSH1 0x0 KECCAK256 SWAP1 DUP1 MLOAD SWAP1 PUSH1 0x20 ADD SWAP1 PUSH2 0x118 SWAP3 SWAP2 SWAP1 PUSH2 0x1E0 JUMP JUMPDEST POP PUSH1 0x40 MLOAD DUP1 PUSH1 0x40 ADD PUSH1 0x40 MSTORE DUP1 PUSH1 0xB DUP2 MSTORE PUSH1 0x20 ADD PUSH32 0x41737472615A656E656361000000000000000000000000000000000000000000 DUP2 MSTORE POP PUSH1 0x2 PUSH1 0x0 PUSH1 0x2 PUSH1 0xFF AND DUP2 MSTORE PUSH1 0x20 ADD SWAP1 DUP2 MSTORE PUSH1 0x20 ADD PUSH1 0x0 KECCAK256 SWAP1 DUP1 MLOAD SWAP1 PUSH1 0x20 ADD SWAP1 PUSH2 0x179 SWAP3 SWAP2 SWAP1 PUSH2 0x1E0 JUMP JUMPDEST POP PUSH1 0x40 MLOAD DUP1 PUSH1 0x40 ADD PUSH1 0x40 MSTORE DUP1 PUSH1 0x7 DUP2 MSTORE PUSH1 0x20 ADD PUSH32 0x4A616E7373656E00000000000000000000000000000000000000000000000000 DUP2 MSTORE POP PUSH1 0x2 PUSH1 0x0 PUSH1 0x3 PUSH1 0xFF AND DUP2 MSTORE PUSH1 0x20 ADD SWAP1 DUP2 MSTORE PUSH1 0x20 ADD PUSH1 0x0 KECCAK256 SWAP1 DUP1 MLOAD SWAP1 PUSH1 0x20 ADD SWAP1 PUSH2 0x1DA SWAP3 SWAP2 SWAP1 PUSH2 0x1E0 JUMP JUMPDEST POP PUSH2 0x2E4 JUMP JUMPDEST DUP3 DUP1 SLOAD PUSH2 0x1EC SWAP1 PUSH2 0x2B2 JUMP JUMPDEST SWAP1 PUSH1 0x0 MSTORE PUSH1 0x20 PUSH1 0x0 KECCAK256 SWAP1 PUSH1 0x1F ADD PUSH1 0x20 SWAP1 DIV DUP2 ADD SWAP3 DUP3 PUSH2 0x20E JUMPI PUSH1 0x0 DUP6 SSTORE PUSH2 0x255 JUMP JUMPDEST DUP3 PUSH1 0x1F LT PUSH2 0x227 JUMPI DUP1 MLOAD PUSH1 0xFF NOT AND DUP4 DUP1 ADD OR DUP6 SSTORE PUSH2 0x255 JUMP JUMPDEST DUP3 DUP1 ADD PUSH1 0x1 ADD DUP6 SSTORE DUP3 ISZERO PUSH2 0x255 JUMPI SWAP2 DUP3 ADD JUMPDEST DUP3 DUP2 GT ISZERO PUSH2 0x254 JUMPI DUP3 MLOAD DUP3 SSTORE SWAP2 PUSH1 0x20 ADD SWAP2 SWAP1 PUSH1 0x1 ADD SWAP1 PUSH2 0x239 JUMP JUMPDEST JUMPDEST POP SWAP1 POP PUSH2 0x262 SWAP2 SWAP1 PUSH2 0x266 JUMP JUMPDEST POP SWAP1 JUMP JUMPDEST JUMPDEST DUP1 DUP3 GT ISZERO PUSH2 0x27F JUMPI PUSH1 0x0 DUP2 PUSH1 0x0 SWAP1 SSTORE POP PUSH1 0x1 ADD PUSH2 0x267 JUMP JUMPDEST POP SWAP1 JUMP JUMPDEST PUSH32 0x4E487B7100000000000000000000000000000000000000000000000000000000 PUSH1 0x0 MSTORE PUSH1 0x22 PUSH1 0x4 MSTORE PUSH1 0x24 PUSH1 0x0 REVERT JUMPDEST PUSH1 0x0 PUSH1 0x2 DUP3 DIV SWAP1 POP PUSH1 0x1 DUP3 AND DUP1 PUSH2 0x2CA JUMPI PUSH1 0x7F DUP3 AND SWAP2 POP JUMPDEST PUSH1 0x20 DUP3 LT DUP2 EQ ISZERO PUSH2 0x2DE JUMPI PUSH2 0x2DD PUSH2 0x283 JUMP JUMPDEST JUMPDEST POP SWAP2 SWAP1 POP JUMP JUMPDEST PUSH2 0x656 DUP1 PUSH2 0x2F3 PUSH1 0x0 CODECOPY PUSH1 0x0 RETURN INVALID PUSH1 0x80 PUSH1 0x40 MSTORE CALLVALUE DUP1 ISZERO PUSH2 0x10 JUMPI PUSH1 0x0 DUP1 REVERT JUMPDEST POP PUSH1 0x4 CALLDATASIZE LT PUSH2 0x36 JUMPI PUSH1 0x0 CALLDATALOAD PUSH1 0xE0 SHR DUP1 PUSH4 0xCCDAD14B EQ PUSH2 0x3B JUMPI DUP1 PUSH4 0xDEFA395E EQ PUSH2 0x6B JUMPI JUMPDEST PUSH1 0x0 DUP1 REVERT JUMPDEST PUSH2 0x55 PUSH1 0x4 DUP1 CALLDATASIZE SUB DUP2 ADD SWAP1 PUSH2 0x50 SWAP2 SWAP1 PUSH2 0x39B JUMP JUMPDEST PUSH2 0x9B JUMP JUMPDEST PUSH1 0x40 MLOAD PUSH2 0x62 SWAP2 SWAP1 PUSH2 0x461 JUMP JUMPDEST PUSH1 0x40 MLOAD DUP1 SWAP2 SUB SWAP1 RETURN JUMPDEST PUSH2 0x85 PUSH1 0x4 DUP1 CALLDATASIZE SUB DUP2 ADD SWAP1 PUSH2 0x80 SWAP2 SWAP1 PUSH2 0x4A8 JUMP JUMPDEST PUSH2 0x17B JUMP JUMPDEST PUSH1 0x40 MLOAD PUSH2 0x92 SWAP2 SWAP1 PUSH2 0x503 JUMP JUMPDEST PUSH1 0x40 MLOAD DUP1 SWAP2 SUB SWAP1 RETURN JUMPDEST PUSH2 0xA3 PUSH2 0x2F7 JUMP JUMPDEST PUSH1 0x3 PUSH1 0x0 DUP4 PUSH20 0xFFFFFFFFFFFFFFFFFFFFFFFFFFFFFFFFFFFFFFFF AND PUSH20 0xFFFFFFFFFFFFFFFFFFFFFFFFFFFFFFFFFFFFFFFF AND DUP2 MSTORE PUSH1 0x20 ADD SWAP1 DUP2 MSTORE PUSH1 0x20 ADD PUSH1 0x0 KECCAK256 PUSH1 0x40 MLOAD DUP1 PUSH1 0x80 ADD PUSH1 0x40 MSTORE SWAP1 DUP2 PUSH1 0x0 DUP3 ADD SLOAD DUP2 MSTORE PUSH1 0x20 ADD PUSH1 0x1 DUP3 ADD SLOAD DUP2 MSTORE PUSH1 0x20 ADD PUSH1 0x2 DUP3 ADD PUSH1 0x0 SWAP1 SLOAD SWAP1 PUSH2 0x100 EXP SWAP1 DIV PUSH20 0xFFFFFFFFFFFFFFFFFFFFFFFFFFFFFFFFFFFFFFFF AND PUSH20 0xFFFFFFFFFFFFFFFFFFFFFFFFFFFFFFFFFFFFFFFF AND PUSH20 0xFFFFFFFFFFFFFFFFFFFFFFFFFFFFFFFFFFFFFFFF AND DUP2 MSTORE PUSH1 0x20 ADD PUSH1 0x2 DUP3 ADD PUSH1 0x14 SWAP1 SLOAD SWAP1 PUSH2 0x100 EXP SWAP1 DIV PUSH1 0xFF AND PUSH1 0xFF AND PUSH1 0xFF AND DUP2 MSTORE POP POP SWAP1 POP SWAP2 SWAP1 POP JUMP JUMPDEST PUSH1 0x0 CALLER PUSH20 0xFFFFFFFFFFFFFFFFFFFFFFFFFFFFFFFFFFFFFFFF AND PUSH1 0x0 DUP1 SLOAD SWAP1 PUSH2 0x100 EXP SWAP1 DIV PUSH20 0xFFFFFFFFFFFFFFFFFFFFFFFFFFFFFFFFFFFFFFFF AND PUSH20 0xFFFFFFFFFFFFFFFFFFFFFFFFFFFFFFFFFFFFFFFF AND EQ PUSH2 0x20B JUMPI PUSH1 0x40 MLOAD PUSH32 0x8C379A000000000000000000000000000000000000000000000000000000000 DUP2 MSTORE PUSH1 0x4 ADD PUSH2 0x202 SWAP1 PUSH2 0x57B JUMP JUMPDEST PUSH1 0x40 MLOAD DUP1 SWAP2 SUB SWAP1 REVERT JUMPDEST PUSH1 0x0 PUSH1 0x3 PUSH1 0x0 DUP6 PUSH20 0xFFFFFFFFFFFFFFFFFFFFFFFFFFFFFFFFFFFFFFFF AND PUSH20 0xFFFFFFFFFFFFFFFFFFFFFFFFFFFFFFFFFFFFFFFF AND DUP2 MSTORE PUSH1 0x20 ADD SWAP1 DUP2 MSTORE PUSH1 0x20 ADD PUSH1 0x0 KECCAK256 SWAP1 POP PUSH1 0x0 DUP2 PUSH1 0x0 ADD SLOAD EQ PUSH2 0x25F JUMPI PUSH1 0x0 DUP1 REVERT JUMPDEST PUSH1 0x1 SLOAD DUP2 PUSH1 0x0 ADD DUP2 SWAP1 SSTORE POP CALLER DUP2 PUSH1 0x2 ADD PUSH1 0x0 PUSH2 0x100 EXP DUP2 SLOAD DUP2 PUSH20 0xFFFFFFFFFFFFFFFFFFFFFFFFFFFFFFFFFFFFFFFF MUL NOT AND SWAP1 DUP4 PUSH20 0xFFFFFFFFFFFFFFFFFFFFFFFFFFFFFFFFFFFFFFFF AND MUL OR SWAP1 SSTORE POP DUP3 DUP2 PUSH1 0x2 ADD PUSH1 0x14 PUSH2 0x100 EXP DUP2 SLOAD DUP2 PUSH1 0xFF MUL NOT AND SWAP1 DUP4 PUSH1 0xFF AND MUL OR SWAP1 SSTORE POP TIMESTAMP DUP2 PUSH1 0x1 ADD DUP2 SWAP1 SSTORE POP PUSH1 0x1 DUP1 PUSH1 0x0 DUP3 DUP3 SLOAD PUSH2 0x2E5 SWAP2 SWAP1 PUSH2 0x5CA JUMP JUMPDEST SWAP3 POP POP DUP2 SWAP1 SSTORE POP PUSH1 0x1 SWAP2 POP POP SWAP3 SWAP2 POP POP JUMP JUMPDEST PUSH1 0x40 MLOAD DUP1 PUSH1 0x80 ADD PUSH1 0x40 MSTORE DUP1 PUSH1 0x0 DUP2 MSTORE PUSH1 0x20 ADD PUSH1 0x0 DUP2 MSTORE PUSH1 0x20 ADD PUSH1 0x0 PUSH20 0xFFFFFFFFFFFFFFFFFFFFFFFFFFFFFFFFFFFFFFFF AND DUP2 MSTORE PUSH1 0x20 ADD PUSH1 0x0 PUSH1 0xFF AND DUP2 MSTORE POP SWAP1 JUMP JUMPDEST PUSH1 0x0 DUP1 REVERT JUMPDEST PUSH1 0x0 PUSH20 0xFFFFFFFFFFFFFFFFFFFFFFFFFFFFFFFFFFFFFFFF DUP3 AND SWAP1 POP SWAP2 SWAP1 POP JUMP JUMPDEST PUSH1 0x0 PUSH2 0x368 DUP3 PUSH2 0x33D JUMP JUMPDEST SWAP1 POP SWAP2 SWAP1 POP JUMP JUMPDEST PUSH2 0x378 DUP2 PUSH2 0x35D JUMP JUMPDEST DUP2 EQ PUSH2 0x383 JUMPI PUSH1 0x0 DUP1 REVERT JUMPDEST POP JUMP JUMPDEST PUSH1 0x0 DUP2 CALLDATALOAD SWAP1 POP PUSH2 0x395 DUP2 PUSH2 0x36F JUMP JUMPDEST SWAP3 SWAP2 POP POP JUMP JUMPDEST PUSH1 0x0 PUSH1 0x20 DUP3 DUP5 SUB SLT ISZERO PUSH2 0x3B1 JUMPI PUSH2 0x3B0 PUSH2 0x338 JUMP JUMPDEST JUMPDEST PUSH1 0x0 PUSH2 0x3BF DUP5 DUP3 DUP6 ADD PUSH2 0x386 JUMP JUMPDEST SWAP2 POP POP SWAP3 SWAP2 POP POP JUMP JUMPDEST PUSH1 0x0 DUP2 SWAP1 POP SWAP2 SWAP1 POP JUMP JUMPDEST PUSH2 0x3DB DUP2 PUSH2 0x3C8 JUMP JUMPDEST DUP3 MSTORE POP POP JUMP JUMPDEST PUSH2 0x3EA DUP2 PUSH2 0x35D JUMP JUMPDEST DUP3 MSTORE POP POP JUMP JUMPDEST PUSH1 0x0 PUSH1 0xFF DUP3 AND SWAP1 POP SWAP2 SWAP1 POP JUMP JUMPDEST PUSH2 0x406 DUP2 PUSH2 0x3F0 JUMP JUMPDEST DUP3 MSTORE POP POP JUMP JUMPDEST PUSH1 0x80 DUP3 ADD PUSH1 0x0 DUP3 ADD MLOAD PUSH2 0x422 PUSH1 0x0 DUP6 ADD DUP3 PUSH2 0x3D2 JUMP JUMPDEST POP PUSH1 0x20 DUP3 ADD MLOAD PUSH2 0x435 PUSH1 0x20 DUP6 ADD DUP3 PUSH2 0x3D2 JUMP JUMPDEST POP PUSH1 0x40 DUP3 ADD MLOAD PUSH2 0x448 PUSH1 0x40 DUP6 ADD DUP3 PUSH2 0x3E1 JUMP JUMPDEST POP PUSH1 0x60 DUP3 ADD MLOAD PUSH2 0x45B PUSH1 0x60 DUP6 ADD DUP3 PUSH2 0x3FD JUMP JUMPDEST POP POP POP POP JUMP JUMPDEST PUSH1 0x0 PUSH1 0x80 DUP3 ADD SWAP1 POP PUSH2 0x476 PUSH1 0x0 DUP4 ADD DUP5 PUSH2 0x40C JUMP JUMPDEST SWAP3 SWAP2 POP POP JUMP JUMPDEST PUSH2 0x485 DUP2 PUSH2 0x3F0 JUMP JUMPDEST DUP2 EQ PUSH2 0x490 JUMPI PUSH1 0x0 DUP1 REVERT JUMPDEST POP JUMP JUMPDEST PUSH1 0x0 DUP2 CALLDATALOAD SWAP1 POP PUSH2 0x4A2 DUP2 PUSH2 0x47C JUMP JUMPDEST SWAP3 SWAP2 POP POP JUMP JUMPDEST PUSH1 0x0 DUP1 PUSH1 0x40 DUP4 DUP6 SUB SLT ISZERO PUSH2 0x4BF JUMPI PUSH2 0x4BE PUSH2 0x338 JUMP JUMPDEST JUMPDEST PUSH1 0x0 PUSH2 0x4CD DUP6 DUP3 DUP7 ADD PUSH2 0x386 JUMP JUMPDEST SWAP3 POP POP PUSH1 0x20 PUSH2 0x4DE DUP6 DUP3 DUP7 ADD PUSH2 0x493 JUMP JUMPDEST SWAP2 POP POP SWAP3 POP SWAP3 SWAP1 POP JUMP JUMPDEST PUSH1 0x0 DUP2 ISZERO ISZERO SWAP1 POP SWAP2 SWAP1 POP JUMP JUMPDEST PUSH2 0x4FD DUP2 PUSH2 0x4E8 JUMP JUMPDEST DUP3 MSTORE POP POP JUMP JUMPDEST PUSH1 0x0 PUSH1 0x20 DUP3 ADD SWAP1 POP PUSH2 0x518 PUSH1 0x0 DUP4 ADD DUP5 PUSH2 0x4F4 JUMP JUMPDEST SWAP3 SWAP2 POP POP JUMP JUMPDEST PUSH1 0x0 DUP3 DUP3 MSTORE PUSH1 0x20 DUP3 ADD SWAP1 POP SWAP3 SWAP2 POP POP JUMP JUMPDEST PUSH32 0x4E6F742049737375657200000000000000000000000000000000000000000000 PUSH1 0x0 DUP3 ADD MSTORE POP JUMP JUMPDEST PUSH1 0x0 PUSH2 0x565 PUSH1 0xA DUP4 PUSH2 0x51E JUMP JUMPDEST SWAP2 POP PUSH2 0x570 DUP3 PUSH2 0x52F JUMP JUMPDEST PUSH1 0x20 DUP3 ADD SWAP1 POP SWAP2 SWAP1 POP JUMP JUMPDEST PUSH1 0x0 PUSH1 0x20 DUP3 ADD SWAP1 POP DUP2 DUP2 SUB PUSH1 0x0 DUP4 ADD MSTORE PUSH2 0x594 DUP2 PUSH2 0x558 JUMP JUMPDEST SWAP1 POP SWAP2 SWAP1 POP JUMP JUMPDEST PUSH32 0x4E487B7100000000000000000000000000000000000000000000000000000000 PUSH1 0x0 MSTORE PUSH1 0x11 PUSH1 0x4 MSTORE PUSH1 0x24 PUSH1 0x0 REVERT JUMPDEST PUSH1 0x0 PUSH2 0x5D5 DUP3 PUSH2 0x3C8 JUMP JUMPDEST SWAP2 POP PUSH2 0x5E0 DUP4 PUSH2 0x3C8 JUMP JUMPDEST SWAP3 POP DUP3 PUSH32 0xFFFFFFFFFFFFFFFFFFFFFFFFFFFFFFFFFFFFFFFFFFFFFFFFFFFFFFFFFFFFFFFF SUB DUP3 GT ISZERO PUSH2 0x615 JUMPI PUSH2 0x614 PUSH2 0x59B JUMP JUMPDEST JUMPDEST DUP3 DUP3 ADD SWAP1 POP SWAP3 SWAP2 POP POP JUMP INVALID LOG2 PUSH5 0x6970667358 0x22 SLT KECCAK256 0x4E 0xB2 0xE0 PUSH28 0x6D26B994901CC4F59CE7B1FE41FB773DEA7ECFACA234969F6CD974F6 PUSH5 0x736F6C6343 STOP ADDMOD EXP STOP CALLER "
				},
				"gasEstimates": {
					"creation": {
						"codeDepositCost": "324400",
						"executionCost": "infinite",
						"totalCost": "infinite"
					},
					"external": {
						"claimCredential(address,uint8)": "infinite",
						"getCredential(address)": "infinite"
					}
				},
				"methodIdentifiers": {
					"claimCredential(address,uint8)": "defa395e",
					"getCredential(address)": "ccdad14b"
				}
			},
			"userdoc": {
				"kind": "user",
				"methods": {},
				"version": 1
			}
		}
	}
}