{
	"did-vaccine.sol": {
		"VaccineCredential": {
			"abi": [
				{
					"inputs": [],
					"stateMutability": "nonpayable",
					"type": "constructor"
				},
				{
					"inputs": [
						{
							"internalType": "address",
							"name": "_applicantAddress",
							"type": "address"
						},
						{
							"internalType": "uint8",
							"name": "_vaccineType",
							"type": "uint8"
						},
						{
							"internalType": "string",
							"name": "_value",
							"type": "string"
						}
					],
					"name": "claimCredential",
					"outputs": [
						{
							"internalType": "bool",
							"name": "",
							"type": "bool"
						}
					],
					"stateMutability": "nonpayable",
					"type": "function"
				}
			],
			"devdoc": {
				"kind": "dev",
				"methods": {},
				"version": 1
			},
			"evm": {
				"assembly": "    /* \"did-vaccine.sol\":61:1103  contract VaccineCredential {... */\n  mstore(0x40, 0x80)\n    /* \"did-vaccine.sol\":390:615  constructor() {... */\n  callvalue\n  dup1\n  iszero\n  tag_1\n  jumpi\n  0x00\n  dup1\n  revert\ntag_1:\n  pop\n    /* \"did-vaccine.sol\":430:440  msg.sender */\n  caller\n    /* \"did-vaccine.sol\":414:427  issuerAddress */\n  0x00\n  dup1\n    /* \"did-vaccine.sol\":414:440  issuerAddress = msg.sender */\n  0x0100\n  exp\n  dup2\n  sload\n  dup2\n  0xffffffffffffffffffffffffffffffffffffffff\n  mul\n  not\n  and\n  swap1\n  dup4\n  0xffffffffffffffffffffffffffffffffffffffff\n  and\n  mul\n  or\n  swap1\n  sstore\n  pop\n    /* \"did-vaccine.sol\":460:461  1 */\n  0x01\n    /* \"did-vaccine.sol\":450:457  idCount */\n  dup1\n    /* \"did-vaccine.sol\":450:461  idCount = 1 */\n  dup2\n  swap1\n  sstore\n  pop\n    /* \"did-vaccine.sol\":471:496  vaccineEnum[0] = \"Pfizer\" */\n  mload(0x40)\n  dup1\n  0x40\n  add\n  0x40\n  mstore\n  dup1\n  0x06\n  dup2\n  mstore\n  0x20\n  add\n  0x5066697a65720000000000000000000000000000000000000000000000000000\n  dup2\n  mstore\n  pop\n    /* \"did-vaccine.sol\":471:482  vaccineEnum */\n  0x02\n    /* \"did-vaccine.sol\":471:485  vaccineEnum[0] */\n  0x00\n    /* \"did-vaccine.sol\":483:484  0 */\n  dup1\n    /* \"did-vaccine.sol\":471:485  vaccineEnum[0] */\n  0xff\n  and\n  dup2\n  mstore\n  0x20\n  add\n  swap1\n  dup2\n  mstore\n  0x20\n  add\n  0x00\n  keccak256\n    /* \"did-vaccine.sol\":471:496  vaccineEnum[0] = \"Pfizer\" */\n  swap1\n  dup1\n  mload\n  swap1\n  0x20\n  add\n  swap1\n  tag_4\n  swap3\n  swap2\n  swap1\n  tag_5\n  jump\t// in\ntag_4:\n  pop\n    /* \"did-vaccine.sol\":506:532  vaccineEnum[1] = \"Moderna\" */\n  mload(0x40)\n  dup1\n  0x40\n  add\n  0x40\n  mstore\n  dup1\n  0x07\n  dup2\n  mstore\n  0x20\n  add\n  0x4d6f6465726e6100000000000000000000000000000000000000000000000000\n  dup2\n  mstore\n  pop\n    /* \"did-vaccine.sol\":506:517  vaccineEnum */\n  0x02\n    /* \"did-vaccine.sol\":506:520  vaccineEnum[1] */\n  0x00\n    /* \"did-vaccine.sol\":518:519  1 */\n  0x01\n    /* \"did-vaccine.sol\":506:520  vaccineEnum[1] */\n  0xff\n  and\n  dup2\n  mstore\n  0x20\n  add\n  swap1\n  dup2\n  mstore\n  0x20\n  add\n  0x00\n  keccak256\n    /* \"did-vaccine.sol\":506:532  vaccineEnum[1] = \"Moderna\" */\n  swap1\n  dup1\n  mload\n  swap1\n  0x20\n  add\n  swap1\n  tag_6\n  swap3\n  swap2\n  swap1\n  tag_5\n  jump\t// in\ntag_6:\n  pop\n    /* \"did-vaccine.sol\":542:572  vaccineEnum[2] = \"AstraZeneca\" */\n  mload(0x40)\n  dup1\n  0x40\n  add\n  0x40\n  mstore\n  dup1\n  0x0b\n  dup2\n  mstore\n  0x20\n  add\n  0x41737472615a656e656361000000000000000000000000000000000000000000\n  dup2\n  mstore\n  pop\n    /* \"did-vaccine.sol\":542:553  vaccineEnum */\n  0x02\n    /* \"did-vaccine.sol\":542:556  vaccineEnum[2] */\n  0x00\n    /* \"did-vaccine.sol\":554:555  2 */\n  0x02\n    /* \"did-vaccine.sol\":542:556  vaccineEnum[2] */\n  0xff\n  and\n  dup2\n  mstore\n  0x20\n  add\n  swap1\n  dup2\n  mstore\n  0x20\n  add\n  0x00\n  keccak256\n    /* \"did-vaccine.sol\":542:572  vaccineEnum[2] = \"AstraZeneca\" */\n  swap1\n  dup1\n  mload\n  swap1\n  0x20\n  add\n  swap1\n  tag_7\n  swap3\n  swap2\n  swap1\n  tag_5\n  jump\t// in\ntag_7:\n  pop\n    /* \"did-vaccine.sol\":582:608  vaccineEnum[3] = \"Janssen\" */\n  mload(0x40)\n  dup1\n  0x40\n  add\n  0x40\n  mstore\n  dup1\n  0x07\n  dup2\n  mstore\n  0x20\n  add\n  0x4a616e7373656e00000000000000000000000000000000000000000000000000\n  dup2\n  mstore\n  pop\n    /* \"did-vaccine.sol\":582:593  vaccineEnum */\n  0x02\n    /* \"did-vaccine.sol\":582:596  vaccineEnum[3] */\n  0x00\n    /* \"did-vaccine.sol\":594:595  3 */\n  0x03\n    /* \"did-vaccine.sol\":582:596  vaccineEnum[3] */\n  0xff\n  and\n  dup2\n  mstore\n  0x20\n  add\n  swap1\n  dup2\n  mstore\n  0x20\n  add\n  0x00\n  keccak256\n    /* \"did-vaccine.sol\":582:608  vaccineEnum[3] = \"Janssen\" */\n  swap1\n  dup1\n  mload\n  swap1\n  0x20\n  add\n  swap1\n  tag_8\n  swap3\n  swap2\n  swap1\n  tag_5\n  jump\t// in\ntag_8:\n  pop\n    /* \"did-vaccine.sol\":61:1103  contract VaccineCredential {... */\n  jump(tag_9)\ntag_5:\n  dup3\n  dup1\n  sload\n  tag_10\n  swap1\n  tag_11\n  jump\t// in\ntag_10:\n  swap1\n  0x00\n  mstore\n  keccak256(0x00, 0x20)\n  swap1\n  0x1f\n  add\n  0x20\n  swap1\n  div\n  dup2\n  add\n  swap3\n  dup3\n  tag_13\n  jumpi\n  0x00\n  dup6\n  sstore\n  jump(tag_12)\ntag_13:\n  dup3\n  0x1f\n  lt\n  tag_14\n  jumpi\n  dup1\n  mload\n  not(0xff)\n  and\n  dup4\n  dup1\n  add\n  or\n  dup6\n  sstore\n  jump(tag_12)\ntag_14:\n  dup3\n  dup1\n  add\n  0x01\n  add\n  dup6\n  sstore\n  dup3\n  iszero\n  tag_12\n  jumpi\n  swap2\n  dup3\n  add\ntag_15:\n  dup3\n  dup2\n  gt\n  iszero\n  tag_16\n  jumpi\n  dup3\n  mload\n  dup3\n  sstore\n  swap2\n  0x20\n  add\n  swap2\n  swap1\n  0x01\n  add\n  swap1\n  jump(tag_15)\ntag_16:\ntag_12:\n  pop\n  swap1\n  pop\n  tag_17\n  swap2\n  swap1\n  tag_18\n  jump\t// in\ntag_17:\n  pop\n  swap1\n  jump\t// out\ntag_18:\ntag_19:\n  dup1\n  dup3\n  gt\n  iszero\n  tag_20\n  jumpi\n  0x00\n  dup2\n  0x00\n  swap1\n  sstore\n  pop\n  0x01\n  add\n  jump(tag_19)\ntag_20:\n  pop\n  swap1\n  jump\t// out\n    /* \"#utility.yul\":7:187   */\ntag_21:\n    /* \"#utility.yul\":55:132   */\n  0x4e487b7100000000000000000000000000000000000000000000000000000000\n    /* \"#utility.yul\":52:53   */\n  0x00\n    /* \"#utility.yul\":45:133   */\n  mstore\n    /* \"#utility.yul\":152:156   */\n  0x22\n    /* \"#utility.yul\":149:150   */\n  0x04\n    /* \"#utility.yul\":142:157   */\n  mstore\n    /* \"#utility.yul\":176:180   */\n  0x24\n    /* \"#utility.yul\":173:174   */\n  0x00\n    /* \"#utility.yul\":166:181   */\n  revert\n    /* \"#utility.yul\":193:513   */\ntag_11:\n    /* \"#utility.yul\":237:243   */\n  0x00\n    /* \"#utility.yul\":274:275   */\n  0x02\n    /* \"#utility.yul\":268:272   */\n  dup3\n    /* \"#utility.yul\":264:276   */\n  div\n    /* \"#utility.yul\":254:276   */\n  swap1\n  pop\n    /* \"#utility.yul\":321:322   */\n  0x01\n    /* \"#utility.yul\":315:319   */\n  dup3\n    /* \"#utility.yul\":311:323   */\n  and\n    /* \"#utility.yul\":342:360   */\n  dup1\n    /* \"#utility.yul\":332:413   */\n  tag_25\n  jumpi\n    /* \"#utility.yul\":398:402   */\n  0x7f\n    /* \"#utility.yul\":390:396   */\n  dup3\n    /* \"#utility.yul\":386:403   */\n  and\n    /* \"#utility.yul\":376:403   */\n  swap2\n  pop\n    /* \"#utility.yul\":332:413   */\ntag_25:\n    /* \"#utility.yul\":460:462   */\n  0x20\n    /* \"#utility.yul\":452:458   */\n  dup3\n    /* \"#utility.yul\":449:463   */\n  lt\n    /* \"#utility.yul\":429:447   */\n  dup2\n    /* \"#utility.yul\":426:464   */\n  eq\n    /* \"#utility.yul\":423:507   */\n  iszero\n  tag_26\n  jumpi\n    /* \"#utility.yul\":479:497   */\n  tag_27\n  tag_21\n  jump\t// in\ntag_27:\n    /* \"#utility.yul\":423:507   */\ntag_26:\n    /* \"#utility.yul\":244:513   */\n  pop\n    /* \"#utility.yul\":193:513   */\n  swap2\n  swap1\n  pop\n  jump\t// out\n    /* \"did-vaccine.sol\":61:1103  contract VaccineCredential {... */\ntag_9:\n  dataSize(sub_0)\n  dup1\n  dataOffset(sub_0)\n  0x00\n  codecopy\n  0x00\n  return\nstop\n\nsub_0: assembly {\n        /* \"did-vaccine.sol\":61:1103  contract VaccineCredential {... */\n      mstore(0x40, 0x80)\n      callvalue\n      dup1\n      iszero\n      tag_1\n      jumpi\n      0x00\n      dup1\n      revert\n    tag_1:\n      pop\n      jumpi(tag_2, lt(calldatasize, 0x04))\n      shr(0xe0, calldataload(0x00))\n      dup1\n      0x617ae364\n      eq\n      tag_3\n      jumpi\n    tag_2:\n      0x00\n      dup1\n      revert\n        /* \"did-vaccine.sol\":621:1101  function claimCredential(address _applicantAddress, uint8 _vaccineType, string calldata _value) public returns(bool) {... */\n    tag_3:\n      tag_4\n      0x04\n      dup1\n      calldatasize\n      sub\n      dup2\n      add\n      swap1\n      tag_5\n      swap2\n      swap1\n      tag_6\n      jump\t// in\n    tag_5:\n      tag_7\n      jump\t// in\n    tag_4:\n      mload(0x40)\n      tag_8\n      swap2\n      swap1\n      tag_9\n      jump\t// in\n    tag_8:\n      mload(0x40)\n      dup1\n      swap2\n      sub\n      swap1\n      return\n    tag_7:\n        /* \"did-vaccine.sol\":732:736  bool */\n      0x00\n        /* \"did-vaccine.sol\":773:783  msg.sender */\n      caller\n        /* \"did-vaccine.sol\":756:783  issuerAddress == msg.sender */\n      0xffffffffffffffffffffffffffffffffffffffff\n      and\n        /* \"did-vaccine.sol\":756:769  issuerAddress */\n      0x00\n      dup1\n      sload\n      swap1\n      0x0100\n      exp\n      swap1\n      div\n      0xffffffffffffffffffffffffffffffffffffffff\n      and\n        /* \"did-vaccine.sol\":756:783  issuerAddress == msg.sender */\n      0xffffffffffffffffffffffffffffffffffffffff\n      and\n      eq\n        /* \"did-vaccine.sol\":748:798  require(issuerAddress == msg.sender, \"Not Issuer\") */\n      tag_11\n      jumpi\n      mload(0x40)\n      0x08c379a000000000000000000000000000000000000000000000000000000000\n      dup2\n      mstore\n      0x04\n      add\n      tag_12\n      swap1\n      tag_13\n      jump\t// in\n    tag_12:\n      mload(0x40)\n      dup1\n      swap2\n      sub\n      swap1\n      revert\n    tag_11:\n        /* \"did-vaccine.sol\":808:837  Credential storage credential */\n      0x00\n        /* \"did-vaccine.sol\":840:851  credentials */\n      0x03\n        /* \"did-vaccine.sol\":840:870  credentials[_applicantAddress] */\n      0x00\n        /* \"did-vaccine.sol\":852:869  _applicantAddress */\n      dup8\n        /* \"did-vaccine.sol\":840:870  credentials[_applicantAddress] */\n      0xffffffffffffffffffffffffffffffffffffffff\n      and\n      0xffffffffffffffffffffffffffffffffffffffff\n      and\n      dup2\n      mstore\n      0x20\n      add\n      swap1\n      dup2\n      mstore\n      0x20\n      add\n      0x00\n      keccak256\n        /* \"did-vaccine.sol\":808:870  Credential storage credential = credentials[_applicantAddress] */\n      swap1\n      pop\n        /* \"did-vaccine.sol\":905:906  0 */\n      0x00\n        /* \"did-vaccine.sol\":888:898  credential */\n      dup2\n        /* \"did-vaccine.sol\":888:901  credential.id */\n      0x00\n      add\n      sload\n        /* \"did-vaccine.sol\":888:906  credential.id == 0 */\n      eq\n        /* \"did-vaccine.sol\":880:907  require(credential.id == 0) */\n      tag_14\n      jumpi\n      0x00\n      dup1\n      revert\n    tag_14:\n        /* \"did-vaccine.sol\":933:940  idCount */\n      sload(0x01)\n        /* \"did-vaccine.sol\":917:927  credential */\n      dup2\n        /* \"did-vaccine.sol\":917:930  credential.id */\n      0x00\n      add\n        /* \"did-vaccine.sol\":917:940  credential.id = idCount */\n      dup2\n      swap1\n      sstore\n      pop\n        /* \"did-vaccine.sol\":970:980  msg.sender */\n      caller\n        /* \"did-vaccine.sol\":950:960  credential */\n      dup2\n        /* \"did-vaccine.sol\":950:967  credential.issuer */\n      0x01\n      add\n      0x00\n        /* \"did-vaccine.sol\":950:980  credential.issuer = msg.sender */\n      0x0100\n      exp\n      dup2\n      sload\n      dup2\n      0xffffffffffffffffffffffffffffffffffffffff\n      mul\n      not\n      and\n      swap1\n      dup4\n      0xffffffffffffffffffffffffffffffffffffffff\n      and\n      mul\n      or\n      swap1\n      sstore\n      pop\n        /* \"did-vaccine.sol\":1015:1027  _vaccineType */\n      dup5\n        /* \"did-vaccine.sol\":990:1000  credential */\n      dup2\n        /* \"did-vaccine.sol\":990:1012  credential.vaccineType */\n      0x01\n      add\n      0x14\n        /* \"did-vaccine.sol\":990:1027  credential.vaccineType = _vaccineType */\n      0x0100\n      exp\n      dup2\n      sload\n      dup2\n      0xff\n      mul\n      not\n      and\n      swap1\n      dup4\n      0xff\n      and\n      mul\n      or\n      swap1\n      sstore\n      pop\n        /* \"did-vaccine.sol\":1056:1062  _value */\n      dup4\n      dup4\n        /* \"did-vaccine.sol\":1037:1047  credential */\n      dup3\n        /* \"did-vaccine.sol\":1037:1053  credential.value */\n      0x02\n      add\n        /* \"did-vaccine.sol\":1037:1062  credential.value = _value */\n      swap2\n      swap1\n      tag_15\n      swap3\n      swap2\n      swap1\n      tag_16\n      jump\t// in\n    tag_15:\n      pop\n        /* \"did-vaccine.sol\":1084:1085  1 */\n      0x01\n        /* \"did-vaccine.sol\":1073:1080  idCount */\n      dup1\n      0x00\n        /* \"did-vaccine.sol\":1073:1085  idCount += 1 */\n      dup3\n      dup3\n      sload\n      tag_17\n      swap2\n      swap1\n      tag_18\n      jump\t// in\n    tag_17:\n      swap3\n      pop\n      pop\n      dup2\n      swap1\n      sstore\n      pop\n        /* \"did-vaccine.sol\":738:1101  {... */\n      pop\n        /* \"did-vaccine.sol\":621:1101  function claimCredential(address _applicantAddress, uint8 _vaccineType, string calldata _value) public returns(bool) {... */\n      swap5\n      swap4\n      pop\n      pop\n      pop\n      pop\n      jump\t// out\n    tag_16:\n      dup3\n      dup1\n      sload\n      tag_19\n      swap1\n      tag_20\n      jump\t// in\n    tag_19:\n      swap1\n      0x00\n      mstore\n      keccak256(0x00, 0x20)\n      swap1\n      0x1f\n      add\n      0x20\n      swap1\n      div\n      dup2\n      add\n      swap3\n      dup3\n      tag_22\n      jumpi\n      0x00\n      dup6\n      sstore\n      jump(tag_21)\n    tag_22:\n      dup3\n      0x1f\n      lt\n      tag_23\n      jumpi\n      dup1\n      calldataload\n      not(0xff)\n      and\n      dup4\n      dup1\n      add\n      or\n      dup6\n      sstore\n      jump(tag_21)\n    tag_23:\n      dup3\n      dup1\n      add\n      0x01\n      add\n      dup6\n      sstore\n      dup3\n      iszero\n      tag_21\n      jumpi\n      swap2\n      dup3\n      add\n    tag_24:\n      dup3\n      dup2\n      gt\n      iszero\n      tag_25\n      jumpi\n      dup3\n      calldataload\n      dup3\n      sstore\n      swap2\n      0x20\n      add\n      swap2\n      swap1\n      0x01\n      add\n      swap1\n      jump(tag_24)\n    tag_25:\n    tag_21:\n      pop\n      swap1\n      pop\n      tag_26\n      swap2\n      swap1\n      tag_27\n      jump\t// in\n    tag_26:\n      pop\n      swap1\n      jump\t// out\n    tag_27:\n    tag_28:\n      dup1\n      dup3\n      gt\n      iszero\n      tag_29\n      jumpi\n      0x00\n      dup2\n      0x00\n      swap1\n      sstore\n      pop\n      0x01\n      add\n      jump(tag_28)\n    tag_29:\n      pop\n      swap1\n      jump\t// out\n        /* \"#utility.yul\":88:205   */\n    tag_31:\n        /* \"#utility.yul\":197:198   */\n      0x00\n        /* \"#utility.yul\":194:195   */\n      dup1\n        /* \"#utility.yul\":187:199   */\n      revert\n        /* \"#utility.yul\":211:328   */\n    tag_32:\n        /* \"#utility.yul\":320:321   */\n      0x00\n        /* \"#utility.yul\":317:318   */\n      dup1\n        /* \"#utility.yul\":310:322   */\n      revert\n        /* \"#utility.yul\":334:460   */\n    tag_33:\n        /* \"#utility.yul\":371:378   */\n      0x00\n        /* \"#utility.yul\":411:453   */\n      0xffffffffffffffffffffffffffffffffffffffff\n        /* \"#utility.yul\":404:409   */\n      dup3\n        /* \"#utility.yul\":400:454   */\n      and\n        /* \"#utility.yul\":389:454   */\n      swap1\n      pop\n        /* \"#utility.yul\":334:460   */\n      swap2\n      swap1\n      pop\n      jump\t// out\n        /* \"#utility.yul\":466:562   */\n    tag_34:\n        /* \"#utility.yul\":503:510   */\n      0x00\n        /* \"#utility.yul\":532:556   */\n      tag_58\n        /* \"#utility.yul\":550:555   */\n      dup3\n        /* \"#utility.yul\":532:556   */\n      tag_33\n      jump\t// in\n    tag_58:\n        /* \"#utility.yul\":521:556   */\n      swap1\n      pop\n        /* \"#utility.yul\":466:562   */\n      swap2\n      swap1\n      pop\n      jump\t// out\n        /* \"#utility.yul\":568:690   */\n    tag_35:\n        /* \"#utility.yul\":641:665   */\n      tag_60\n        /* \"#utility.yul\":659:664   */\n      dup2\n        /* \"#utility.yul\":641:665   */\n      tag_34\n      jump\t// in\n    tag_60:\n        /* \"#utility.yul\":634:639   */\n      dup2\n        /* \"#utility.yul\":631:666   */\n      eq\n        /* \"#utility.yul\":621:684   */\n      tag_61\n      jumpi\n        /* \"#utility.yul\":680:681   */\n      0x00\n        /* \"#utility.yul\":677:678   */\n      dup1\n        /* \"#utility.yul\":670:682   */\n      revert\n        /* \"#utility.yul\":621:684   */\n    tag_61:\n        /* \"#utility.yul\":568:690   */\n      pop\n      jump\t// out\n        /* \"#utility.yul\":696:835   */\n    tag_36:\n        /* \"#utility.yul\":742:747   */\n      0x00\n        /* \"#utility.yul\":780:786   */\n      dup2\n        /* \"#utility.yul\":767:787   */\n      calldataload\n        /* \"#utility.yul\":758:787   */\n      swap1\n      pop\n        /* \"#utility.yul\":796:829   */\n      tag_63\n        /* \"#utility.yul\":823:828   */\n      dup2\n        /* \"#utility.yul\":796:829   */\n      tag_35\n      jump\t// in\n    tag_63:\n        /* \"#utility.yul\":696:835   */\n      swap3\n      swap2\n      pop\n      pop\n      jump\t// out\n        /* \"#utility.yul\":841:927   */\n    tag_37:\n        /* \"#utility.yul\":876:883   */\n      0x00\n        /* \"#utility.yul\":916:920   */\n      0xff\n        /* \"#utility.yul\":909:914   */\n      dup3\n        /* \"#utility.yul\":905:921   */\n      and\n        /* \"#utility.yul\":894:921   */\n      swap1\n      pop\n        /* \"#utility.yul\":841:927   */\n      swap2\n      swap1\n      pop\n      jump\t// out\n        /* \"#utility.yul\":933:1051   */\n    tag_38:\n        /* \"#utility.yul\":1004:1026   */\n      tag_66\n        /* \"#utility.yul\":1020:1025   */\n      dup2\n        /* \"#utility.yul\":1004:1026   */\n      tag_37\n      jump\t// in\n    tag_66:\n        /* \"#utility.yul\":997:1002   */\n      dup2\n        /* \"#utility.yul\":994:1027   */\n      eq\n        /* \"#utility.yul\":984:1045   */\n      tag_67\n      jumpi\n        /* \"#utility.yul\":1041:1042   */\n      0x00\n        /* \"#utility.yul\":1038:1039   */\n      dup1\n        /* \"#utility.yul\":1031:1043   */\n      revert\n        /* \"#utility.yul\":984:1045   */\n    tag_67:\n        /* \"#utility.yul\":933:1051   */\n      pop\n      jump\t// out\n        /* \"#utility.yul\":1057:1192   */\n    tag_39:\n        /* \"#utility.yul\":1101:1106   */\n      0x00\n        /* \"#utility.yul\":1139:1145   */\n      dup2\n        /* \"#utility.yul\":1126:1146   */\n      calldataload\n        /* \"#utility.yul\":1117:1146   */\n      swap1\n      pop\n        /* \"#utility.yul\":1155:1186   */\n      tag_69\n        /* \"#utility.yul\":1180:1185   */\n      dup2\n        /* \"#utility.yul\":1155:1186   */\n      tag_38\n      jump\t// in\n    tag_69:\n        /* \"#utility.yul\":1057:1192   */\n      swap3\n      swap2\n      pop\n      pop\n      jump\t// out\n        /* \"#utility.yul\":1198:1315   */\n    tag_40:\n        /* \"#utility.yul\":1307:1308   */\n      0x00\n        /* \"#utility.yul\":1304:1305   */\n      dup1\n        /* \"#utility.yul\":1297:1309   */\n      revert\n        /* \"#utility.yul\":1321:1438   */\n    tag_41:\n        /* \"#utility.yul\":1430:1431   */\n      0x00\n        /* \"#utility.yul\":1427:1428   */\n      dup1\n        /* \"#utility.yul\":1420:1432   */\n      revert\n        /* \"#utility.yul\":1444:1561   */\n    tag_42:\n        /* \"#utility.yul\":1553:1554   */\n      0x00\n        /* \"#utility.yul\":1550:1551   */\n      dup1\n        /* \"#utility.yul\":1543:1555   */\n      revert\n        /* \"#utility.yul\":1581:2134   */\n    tag_43:\n        /* \"#utility.yul\":1639:1647   */\n      0x00\n        /* \"#utility.yul\":1649:1655   */\n      dup1\n        /* \"#utility.yul\":1699:1702   */\n      dup4\n        /* \"#utility.yul\":1692:1696   */\n      0x1f\n        /* \"#utility.yul\":1684:1690   */\n      dup5\n        /* \"#utility.yul\":1680:1697   */\n      add\n        /* \"#utility.yul\":1676:1703   */\n      slt\n        /* \"#utility.yul\":1666:1788   */\n      tag_74\n      jumpi\n        /* \"#utility.yul\":1707:1786   */\n      tag_75\n      tag_40\n      jump\t// in\n    tag_75:\n        /* \"#utility.yul\":1666:1788   */\n    tag_74:\n        /* \"#utility.yul\":1820:1826   */\n      dup3\n        /* \"#utility.yul\":1807:1827   */\n      calldataload\n        /* \"#utility.yul\":1797:1827   */\n      swap1\n      pop\n        /* \"#utility.yul\":1850:1868   */\n      0xffffffffffffffff\n        /* \"#utility.yul\":1842:1848   */\n      dup2\n        /* \"#utility.yul\":1839:1869   */\n      gt\n        /* \"#utility.yul\":1836:1953   */\n      iszero\n      tag_76\n      jumpi\n        /* \"#utility.yul\":1872:1951   */\n      tag_77\n      tag_41\n      jump\t// in\n    tag_77:\n        /* \"#utility.yul\":1836:1953   */\n    tag_76:\n        /* \"#utility.yul\":1986:1990   */\n      0x20\n        /* \"#utility.yul\":1978:1984   */\n      dup4\n        /* \"#utility.yul\":1974:1991   */\n      add\n        /* \"#utility.yul\":1962:1991   */\n      swap2\n      pop\n        /* \"#utility.yul\":2040:2043   */\n      dup4\n        /* \"#utility.yul\":2032:2036   */\n      0x01\n        /* \"#utility.yul\":2024:2030   */\n      dup3\n        /* \"#utility.yul\":2020:2037   */\n      mul\n        /* \"#utility.yul\":2010:2018   */\n      dup4\n        /* \"#utility.yul\":2006:2038   */\n      add\n        /* \"#utility.yul\":2003:2044   */\n      gt\n        /* \"#utility.yul\":2000:2128   */\n      iszero\n      tag_78\n      jumpi\n        /* \"#utility.yul\":2047:2126   */\n      tag_79\n      tag_42\n      jump\t// in\n    tag_79:\n        /* \"#utility.yul\":2000:2128   */\n    tag_78:\n        /* \"#utility.yul\":1581:2134   */\n      swap3\n      pop\n      swap3\n      swap1\n      pop\n      jump\t// out\n        /* \"#utility.yul\":2140:2955   */\n    tag_6:\n        /* \"#utility.yul\":2227:2233   */\n      0x00\n        /* \"#utility.yul\":2235:2241   */\n      dup1\n        /* \"#utility.yul\":2243:2249   */\n      0x00\n        /* \"#utility.yul\":2251:2257   */\n      dup1\n        /* \"#utility.yul\":2300:2302   */\n      0x60\n        /* \"#utility.yul\":2288:2297   */\n      dup6\n        /* \"#utility.yul\":2279:2286   */\n      dup8\n        /* \"#utility.yul\":2275:2298   */\n      sub\n        /* \"#utility.yul\":2271:2303   */\n      slt\n        /* \"#utility.yul\":2268:2387   */\n      iszero\n      tag_81\n      jumpi\n        /* \"#utility.yul\":2306:2385   */\n      tag_82\n      tag_31\n      jump\t// in\n    tag_82:\n        /* \"#utility.yul\":2268:2387   */\n    tag_81:\n        /* \"#utility.yul\":2426:2427   */\n      0x00\n        /* \"#utility.yul\":2451:2504   */\n      tag_83\n        /* \"#utility.yul\":2496:2503   */\n      dup8\n        /* \"#utility.yul\":2487:2493   */\n      dup3\n        /* \"#utility.yul\":2476:2485   */\n      dup9\n        /* \"#utility.yul\":2472:2494   */\n      add\n        /* \"#utility.yul\":2451:2504   */\n      tag_36\n      jump\t// in\n    tag_83:\n        /* \"#utility.yul\":2441:2504   */\n      swap5\n      pop\n        /* \"#utility.yul\":2397:2514   */\n      pop\n        /* \"#utility.yul\":2553:2555   */\n      0x20\n        /* \"#utility.yul\":2579:2630   */\n      tag_84\n        /* \"#utility.yul\":2622:2629   */\n      dup8\n        /* \"#utility.yul\":2613:2619   */\n      dup3\n        /* \"#utility.yul\":2602:2611   */\n      dup9\n        /* \"#utility.yul\":2598:2620   */\n      add\n        /* \"#utility.yul\":2579:2630   */\n      tag_39\n      jump\t// in\n    tag_84:\n        /* \"#utility.yul\":2569:2630   */\n      swap4\n      pop\n        /* \"#utility.yul\":2524:2640   */\n      pop\n        /* \"#utility.yul\":2707:2709   */\n      0x40\n        /* \"#utility.yul\":2696:2705   */\n      dup6\n        /* \"#utility.yul\":2692:2710   */\n      add\n        /* \"#utility.yul\":2679:2711   */\n      calldataload\n        /* \"#utility.yul\":2738:2756   */\n      0xffffffffffffffff\n        /* \"#utility.yul\":2730:2736   */\n      dup2\n        /* \"#utility.yul\":2727:2757   */\n      gt\n        /* \"#utility.yul\":2724:2841   */\n      iszero\n      tag_85\n      jumpi\n        /* \"#utility.yul\":2760:2839   */\n      tag_86\n      tag_32\n      jump\t// in\n    tag_86:\n        /* \"#utility.yul\":2724:2841   */\n    tag_85:\n        /* \"#utility.yul\":2873:2938   */\n      tag_87\n        /* \"#utility.yul\":2930:2937   */\n      dup8\n        /* \"#utility.yul\":2921:2927   */\n      dup3\n        /* \"#utility.yul\":2910:2919   */\n      dup9\n        /* \"#utility.yul\":2906:2928   */\n      add\n        /* \"#utility.yul\":2873:2938   */\n      tag_43\n      jump\t// in\n    tag_87:\n        /* \"#utility.yul\":2855:2938   */\n      swap3\n      pop\n      swap3\n      pop\n        /* \"#utility.yul\":2650:2948   */\n      pop\n        /* \"#utility.yul\":2140:2955   */\n      swap3\n      swap6\n      swap2\n      swap5\n      pop\n      swap3\n      pop\n      jump\t// out\n        /* \"#utility.yul\":2961:3051   */\n    tag_44:\n        /* \"#utility.yul\":2995:3002   */\n      0x00\n        /* \"#utility.yul\":3038:3043   */\n      dup2\n        /* \"#utility.yul\":3031:3044   */\n      iszero\n        /* \"#utility.yul\":3024:3045   */\n      iszero\n        /* \"#utility.yul\":3013:3045   */\n      swap1\n      pop\n        /* \"#utility.yul\":2961:3051   */\n      swap2\n      swap1\n      pop\n      jump\t// out\n        /* \"#utility.yul\":3057:3166   */\n    tag_45:\n        /* \"#utility.yul\":3138:3159   */\n      tag_90\n        /* \"#utility.yul\":3153:3158   */\n      dup2\n        /* \"#utility.yul\":3138:3159   */\n      tag_44\n      jump\t// in\n    tag_90:\n        /* \"#utility.yul\":3133:3136   */\n      dup3\n        /* \"#utility.yul\":3126:3160   */\n      mstore\n        /* \"#utility.yul\":3057:3166   */\n      pop\n      pop\n      jump\t// out\n        /* \"#utility.yul\":3172:3382   */\n    tag_9:\n        /* \"#utility.yul\":3259:3263   */\n      0x00\n        /* \"#utility.yul\":3297:3299   */\n      0x20\n        /* \"#utility.yul\":3286:3295   */\n      dup3\n        /* \"#utility.yul\":3282:3300   */\n      add\n        /* \"#utility.yul\":3274:3300   */\n      swap1\n      pop\n        /* \"#utility.yul\":3310:3375   */\n      tag_92\n        /* \"#utility.yul\":3372:3373   */\n      0x00\n        /* \"#utility.yul\":3361:3370   */\n      dup4\n        /* \"#utility.yul\":3357:3374   */\n      add\n        /* \"#utility.yul\":3348:3354   */\n      dup5\n        /* \"#utility.yul\":3310:3375   */\n      tag_45\n      jump\t// in\n    tag_92:\n        /* \"#utility.yul\":3172:3382   */\n      swap3\n      swap2\n      pop\n      pop\n      jump\t// out\n        /* \"#utility.yul\":3388:3557   */\n    tag_46:\n        /* \"#utility.yul\":3472:3483   */\n      0x00\n        /* \"#utility.yul\":3506:3512   */\n      dup3\n        /* \"#utility.yul\":3501:3504   */\n      dup3\n        /* \"#utility.yul\":3494:3513   */\n      mstore\n        /* \"#utility.yul\":3546:3550   */\n      0x20\n        /* \"#utility.yul\":3541:3544   */\n      dup3\n        /* \"#utility.yul\":3537:3551   */\n      add\n        /* \"#utility.yul\":3522:3551   */\n      swap1\n      pop\n        /* \"#utility.yul\":3388:3557   */\n      swap3\n      swap2\n      pop\n      pop\n      jump\t// out\n        /* \"#utility.yul\":3563:3723   */\n    tag_47:\n        /* \"#utility.yul\":3703:3715   */\n      0x4e6f742049737375657200000000000000000000000000000000000000000000\n        /* \"#utility.yul\":3699:3700   */\n      0x00\n        /* \"#utility.yul\":3691:3697   */\n      dup3\n        /* \"#utility.yul\":3687:3701   */\n      add\n        /* \"#utility.yul\":3680:3716   */\n      mstore\n        /* \"#utility.yul\":3563:3723   */\n      pop\n      jump\t// out\n        /* \"#utility.yul\":3729:4095   */\n    tag_48:\n        /* \"#utility.yul\":3871:3874   */\n      0x00\n        /* \"#utility.yul\":3892:3959   */\n      tag_96\n        /* \"#utility.yul\":3956:3958   */\n      0x0a\n        /* \"#utility.yul\":3951:3954   */\n      dup4\n        /* \"#utility.yul\":3892:3959   */\n      tag_46\n      jump\t// in\n    tag_96:\n        /* \"#utility.yul\":3885:3959   */\n      swap2\n      pop\n        /* \"#utility.yul\":3968:4061   */\n      tag_97\n        /* \"#utility.yul\":4057:4060   */\n      dup3\n        /* \"#utility.yul\":3968:4061   */\n      tag_47\n      jump\t// in\n    tag_97:\n        /* \"#utility.yul\":4086:4088   */\n      0x20\n        /* \"#utility.yul\":4081:4084   */\n      dup3\n        /* \"#utility.yul\":4077:4089   */\n      add\n        /* \"#utility.yul\":4070:4089   */\n      swap1\n      pop\n        /* \"#utility.yul\":3729:4095   */\n      swap2\n      swap1\n      pop\n      jump\t// out\n        /* \"#utility.yul\":4101:4520   */\n    tag_13:\n        /* \"#utility.yul\":4267:4271   */\n      0x00\n        /* \"#utility.yul\":4305:4307   */\n      0x20\n        /* \"#utility.yul\":4294:4303   */\n      dup3\n        /* \"#utility.yul\":4290:4308   */\n      add\n        /* \"#utility.yul\":4282:4308   */\n      swap1\n      pop\n        /* \"#utility.yul\":4354:4363   */\n      dup2\n        /* \"#utility.yul\":4348:4352   */\n      dup2\n        /* \"#utility.yul\":4344:4364   */\n      sub\n        /* \"#utility.yul\":4340:4341   */\n      0x00\n        /* \"#utility.yul\":4329:4338   */\n      dup4\n        /* \"#utility.yul\":4325:4342   */\n      add\n        /* \"#utility.yul\":4318:4365   */\n      mstore\n        /* \"#utility.yul\":4382:4513   */\n      tag_99\n        /* \"#utility.yul\":4508:4512   */\n      dup2\n        /* \"#utility.yul\":4382:4513   */\n      tag_48\n      jump\t// in\n    tag_99:\n        /* \"#utility.yul\":4374:4513   */\n      swap1\n      pop\n        /* \"#utility.yul\":4101:4520   */\n      swap2\n      swap1\n      pop\n      jump\t// out\n        /* \"#utility.yul\":4526:4603   */\n    tag_49:\n        /* \"#utility.yul\":4563:4570   */\n      0x00\n        /* \"#utility.yul\":4592:4597   */\n      dup2\n        /* \"#utility.yul\":4581:4597   */\n      swap1\n      pop\n        /* \"#utility.yul\":4526:4603   */\n      swap2\n      swap1\n      pop\n      jump\t// out\n        /* \"#utility.yul\":4609:4789   */\n    tag_50:\n        /* \"#utility.yul\":4657:4734   */\n      0x4e487b7100000000000000000000000000000000000000000000000000000000\n        /* \"#utility.yul\":4654:4655   */\n      0x00\n        /* \"#utility.yul\":4647:4735   */\n      mstore\n        /* \"#utility.yul\":4754:4758   */\n      0x11\n        /* \"#utility.yul\":4751:4752   */\n      0x04\n        /* \"#utility.yul\":4744:4759   */\n      mstore\n        /* \"#utility.yul\":4778:4782   */\n      0x24\n        /* \"#utility.yul\":4775:4776   */\n      0x00\n        /* \"#utility.yul\":4768:4783   */\n      revert\n        /* \"#utility.yul\":4795:5100   */\n    tag_18:\n        /* \"#utility.yul\":4835:4838   */\n      0x00\n        /* \"#utility.yul\":4854:4874   */\n      tag_103\n        /* \"#utility.yul\":4872:4873   */\n      dup3\n        /* \"#utility.yul\":4854:4874   */\n      tag_49\n      jump\t// in\n    tag_103:\n        /* \"#utility.yul\":4849:4874   */\n      swap2\n      pop\n        /* \"#utility.yul\":4888:4908   */\n      tag_104\n        /* \"#utility.yul\":4906:4907   */\n      dup4\n        /* \"#utility.yul\":4888:4908   */\n      tag_49\n      jump\t// in\n    tag_104:\n        /* \"#utility.yul\":4883:4908   */\n      swap3\n      pop\n        /* \"#utility.yul\":5042:5043   */\n      dup3\n        /* \"#utility.yul\":4974:5040   */\n      0xffffffffffffffffffffffffffffffffffffffffffffffffffffffffffffffff\n        /* \"#utility.yul\":4970:5044   */\n      sub\n        /* \"#utility.yul\":4967:4968   */\n      dup3\n        /* \"#utility.yul\":4964:5045   */\n      gt\n        /* \"#utility.yul\":4961:5068   */\n      iszero\n      tag_105\n      jumpi\n        /* \"#utility.yul\":5048:5066   */\n      tag_106\n      tag_50\n      jump\t// in\n    tag_106:\n        /* \"#utility.yul\":4961:5068   */\n    tag_105:\n        /* \"#utility.yul\":5092:5093   */\n      dup3\n        /* \"#utility.yul\":5089:5090   */\n      dup3\n        /* \"#utility.yul\":5085:5094   */\n      add\n        /* \"#utility.yul\":5078:5094   */\n      swap1\n      pop\n        /* \"#utility.yul\":4795:5100   */\n      swap3\n      swap2\n      pop\n      pop\n      jump\t// out\n        /* \"#utility.yul\":5106:5286   */\n    tag_51:\n        /* \"#utility.yul\":5154:5231   */\n      0x4e487b7100000000000000000000000000000000000000000000000000000000\n        /* \"#utility.yul\":5151:5152   */\n      0x00\n        /* \"#utility.yul\":5144:5232   */\n      mstore\n        /* \"#utility.yul\":5251:5255   */\n      0x22\n        /* \"#utility.yul\":5248:5249   */\n      0x04\n        /* \"#utility.yul\":5241:5256   */\n      mstore\n        /* \"#utility.yul\":5275:5279   */\n      0x24\n        /* \"#utility.yul\":5272:5273   */\n      0x00\n        /* \"#utility.yul\":5265:5280   */\n      revert\n        /* \"#utility.yul\":5292:5612   */\n    tag_20:\n        /* \"#utility.yul\":5336:5342   */\n      0x00\n        /* \"#utility.yul\":5373:5374   */\n      0x02\n        /* \"#utility.yul\":5367:5371   */\n      dup3\n        /* \"#utility.yul\":5363:5375   */\n      div\n        /* \"#utility.yul\":5353:5375   */\n      swap1\n      pop\n        /* \"#utility.yul\":5420:5421   */\n      0x01\n        /* \"#utility.yul\":5414:5418   */\n      dup3\n        /* \"#utility.yul\":5410:5422   */\n      and\n        /* \"#utility.yul\":5441:5459   */\n      dup1\n        /* \"#utility.yul\":5431:5512   */\n      tag_109\n      jumpi\n        /* \"#utility.yul\":5497:5501   */\n      0x7f\n        /* \"#utility.yul\":5489:5495   */\n      dup3\n        /* \"#utility.yul\":5485:5502   */\n      and\n        /* \"#utility.yul\":5475:5502   */\n      swap2\n      pop\n        /* \"#utility.yul\":5431:5512   */\n    tag_109:\n        /* \"#utility.yul\":5559:5561   */\n      0x20\n        /* \"#utility.yul\":5551:5557   */\n      dup3\n        /* \"#utility.yul\":5548:5562   */\n      lt\n        /* \"#utility.yul\":5528:5546   */\n      dup2\n        /* \"#utility.yul\":5525:5563   */\n      eq\n        /* \"#utility.yul\":5522:5606   */\n      iszero\n      tag_110\n      jumpi\n        /* \"#utility.yul\":5578:5596   */\n      tag_111\n      tag_51\n      jump\t// in\n    tag_111:\n        /* \"#utility.yul\":5522:5606   */\n    tag_110:\n        /* \"#utility.yul\":5343:5612   */\n      pop\n        /* \"#utility.yul\":5292:5612   */\n      swap2\n      swap1\n      pop\n      jump\t// out\n\n    auxdata: 0xa2646970667358221220cd0c6292bc15f2b999d443c2a33348c2317c19bb10c3a6bbd0d2c0d903d9ec9f64736f6c634300080a0033\n}\n",
				"bytecode": {
					"linkReferences": {},
					"object": "608060405234801561001057600080fd5b50336000806101000a81548173ffffffffffffffffffffffffffffffffffffffff021916908373ffffffffffffffffffffffffffffffffffffffff160217905550600180819055506040518060400160405280600681526020017f5066697a65720000000000000000000000000000000000000000000000000000815250600260008060ff16815260200190815260200160002090805190602001906100b79291906101e0565b506040518060400160405280600781526020017f4d6f6465726e610000000000000000000000000000000000000000000000000081525060026000600160ff16815260200190815260200160002090805190602001906101189291906101e0565b506040518060400160405280600b81526020017f41737472615a656e65636100000000000000000000000000000000000000000081525060026000600260ff16815260200190815260200160002090805190602001906101799291906101e0565b506040518060400160405280600781526020017f4a616e7373656e0000000000000000000000000000000000000000000000000081525060026000600360ff16815260200190815260200160002090805190602001906101da9291906101e0565b506102e4565b8280546101ec906102b2565b90600052602060002090601f01602090048101928261020e5760008555610255565b82601f1061022757805160ff1916838001178555610255565b82800160010185558215610255579182015b82811115610254578251825591602001919060010190610239565b5b5090506102629190610266565b5090565b5b8082111561027f576000816000905550600101610267565b5090565b7f4e487b7100000000000000000000000000000000000000000000000000000000600052602260045260246000fd5b600060028204905060018216806102ca57607f821691505b602082108114156102de576102dd610283565b5b50919050565b6105db806102f36000396000f3fe608060405234801561001057600080fd5b506004361061002b5760003560e01c8063617ae36414610030575b600080fd5b61004a6004803603810190610045919061038e565b610060565b604051610057919061041d565b60405180910390f35b60003373ffffffffffffffffffffffffffffffffffffffff1660008054906101000a900473ffffffffffffffffffffffffffffffffffffffff1673ffffffffffffffffffffffffffffffffffffffff16146100f0576040517f08c379a00000000000000000000000000000000000000000000000000000000081526004016100e790610495565b60405180910390fd5b6000600360008773ffffffffffffffffffffffffffffffffffffffff1673ffffffffffffffffffffffffffffffffffffffff1681526020019081526020016000209050600081600001541461014457600080fd5b6001548160000181905550338160010160006101000a81548173ffffffffffffffffffffffffffffffffffffffff021916908373ffffffffffffffffffffffffffffffffffffffff160217905550848160010160146101000a81548160ff021916908360ff16021790555083838260020191906101c29291906101e5565b5060018060008282546101d591906104ee565b9250508190555050949350505050565b8280546101f190610573565b90600052602060002090601f016020900481019282610213576000855561025a565b82601f1061022c57803560ff191683800117855561025a565b8280016001018555821561025a579182015b8281111561025957823582559160200191906001019061023e565b5b509050610267919061026b565b5090565b5b8082111561028457600081600090555060010161026c565b5090565b600080fd5b600080fd5b600073ffffffffffffffffffffffffffffffffffffffff82169050919050565b60006102bd82610292565b9050919050565b6102cd816102b2565b81146102d857600080fd5b50565b6000813590506102ea816102c4565b92915050565b600060ff82169050919050565b610306816102f0565b811461031157600080fd5b50565b600081359050610323816102fd565b92915050565b600080fd5b600080fd5b600080fd5b60008083601f84011261034e5761034d610329565b5b8235905067ffffffffffffffff81111561036b5761036a61032e565b5b60208301915083600182028301111561038757610386610333565b5b9250929050565b600080600080606085870312156103a8576103a7610288565b5b60006103b6878288016102db565b94505060206103c787828801610314565b935050604085013567ffffffffffffffff8111156103e8576103e761028d565b5b6103f487828801610338565b925092505092959194509250565b60008115159050919050565b61041781610402565b82525050565b6000602082019050610432600083018461040e565b92915050565b600082825260208201905092915050565b7f4e6f742049737375657200000000000000000000000000000000000000000000600082015250565b600061047f600a83610438565b915061048a82610449565b602082019050919050565b600060208201905081810360008301526104ae81610472565b9050919050565b6000819050919050565b7f4e487b7100000000000000000000000000000000000000000000000000000000600052601160045260246000fd5b60006104f9826104b5565b9150610504836104b5565b9250827fffffffffffffffffffffffffffffffffffffffffffffffffffffffffffffffff03821115610539576105386104bf565b5b828201905092915050565b7f4e487b7100000000000000000000000000000000000000000000000000000000600052602260045260246000fd5b6000600282049050600182168061058b57607f821691505b6020821081141561059f5761059e610544565b5b5091905056fea2646970667358221220cd0c6292bc15f2b999d443c2a33348c2317c19bb10c3a6bbd0d2c0d903d9ec9f64736f6c634300080a0033",
					"opcodes": "PUSH1 0x80 PUSH1 0x40 MSTORE CALLVALUE DUP1 ISZERO PUSH2 0x10 JUMPI PUSH1 0x0 DUP1 REVERT JUMPDEST POP CALLER PUSH1 0x0 DUP1 PUSH2 0x100 EXP DUP2 SLOAD DUP2 PUSH20 0xFFFFFFFFFFFFFFFFFFFFFFFFFFFFFFFFFFFFFFFF MUL NOT AND SWAP1 DUP4 PUSH20 0xFFFFFFFFFFFFFFFFFFFFFFFFFFFFFFFFFFFFFFFF AND MUL OR SWAP1 SSTORE POP PUSH1 0x1 DUP1 DUP2 SWAP1 SSTORE POP PUSH1 0x40 MLOAD DUP1 PUSH1 0x40 ADD PUSH1 0x40 MSTORE DUP1 PUSH1 0x6 DUP2 MSTORE PUSH1 0x20 ADD PUSH32 0x5066697A65720000000000000000000000000000000000000000000000000000 DUP2 MSTORE POP PUSH1 0x2 PUSH1 0x0 DUP1 PUSH1 0xFF AND DUP2 MSTORE PUSH1 0x20 ADD SWAP1 DUP2 MSTORE PUSH1 0x20 ADD PUSH1 0x0 KECCAK256 SWAP1 DUP1 MLOAD SWAP1 PUSH1 0x20 ADD SWAP1 PUSH2 0xB7 SWAP3 SWAP2 SWAP1 PUSH2 0x1E0 JUMP JUMPDEST POP PUSH1 0x40 MLOAD DUP1 PUSH1 0x40 ADD PUSH1 0x40 MSTORE DUP1 PUSH1 0x7 DUP2 MSTORE PUSH1 0x20 ADD PUSH32 0x4D6F6465726E6100000000000000000000000000000000000000000000000000 DUP2 MSTORE POP PUSH1 0x2 PUSH1 0x0 PUSH1 0x1 PUSH1 0xFF AND DUP2 MSTORE PUSH1 0x20 ADD SWAP1 DUP2 MSTORE PUSH1 0x20 ADD PUSH1 0x0 KECCAK256 SWAP1 DUP1 MLOAD SWAP1 PUSH1 0x20 ADD SWAP1 PUSH2 0x118 SWAP3 SWAP2 SWAP1 PUSH2 0x1E0 JUMP JUMPDEST POP PUSH1 0x40 MLOAD DUP1 PUSH1 0x40 ADD PUSH1 0x40 MSTORE DUP1 PUSH1 0xB DUP2 MSTORE PUSH1 0x20 ADD PUSH32 0x41737472615A656E656361000000000000000000000000000000000000000000 DUP2 MSTORE POP PUSH1 0x2 PUSH1 0x0 PUSH1 0x2 PUSH1 0xFF AND DUP2 MSTORE PUSH1 0x20 ADD SWAP1 DUP2 MSTORE PUSH1 0x20 ADD PUSH1 0x0 KECCAK256 SWAP1 DUP1 MLOAD SWAP1 PUSH1 0x20 ADD SWAP1 PUSH2 0x179 SWAP3 SWAP2 SWAP1 PUSH2 0x1E0 JUMP JUMPDEST POP PUSH1 0x40 MLOAD DUP1 PUSH1 0x40 ADD PUSH1 0x40 MSTORE DUP1 PUSH1 0x7 DUP2 MSTORE PUSH1 0x20 ADD PUSH32 0x4A616E7373656E00000000000000000000000000000000000000000000000000 DUP2 MSTORE POP PUSH1 0x2 PUSH1 0x0 PUSH1 0x3 PUSH1 0xFF AND DUP2 MSTORE PUSH1 0x20 ADD SWAP1 DUP2 MSTORE PUSH1 0x20 ADD PUSH1 0x0 KECCAK256 SWAP1 DUP1 MLOAD SWAP1 PUSH1 0x20 ADD SWAP1 PUSH2 0x1DA SWAP3 SWAP2 SWAP1 PUSH2 0x1E0 JUMP JUMPDEST POP PUSH2 0x2E4 JUMP JUMPDEST DUP3 DUP1 SLOAD PUSH2 0x1EC SWAP1 PUSH2 0x2B2 JUMP JUMPDEST SWAP1 PUSH1 0x0 MSTORE PUSH1 0x20 PUSH1 0x0 KECCAK256 SWAP1 PUSH1 0x1F ADD PUSH1 0x20 SWAP1 DIV DUP2 ADD SWAP3 DUP3 PUSH2 0x20E JUMPI PUSH1 0x0 DUP6 SSTORE PUSH2 0x255 JUMP JUMPDEST DUP3 PUSH1 0x1F LT PUSH2 0x227 JUMPI DUP1 MLOAD PUSH1 0xFF NOT AND DUP4 DUP1 ADD OR DUP6 SSTORE PUSH2 0x255 JUMP JUMPDEST DUP3 DUP1 ADD PUSH1 0x1 ADD DUP6 SSTORE DUP3 ISZERO PUSH2 0x255 JUMPI SWAP2 DUP3 ADD JUMPDEST DUP3 DUP2 GT ISZERO PUSH2 0x254 JUMPI DUP3 MLOAD DUP3 SSTORE SWAP2 PUSH1 0x20 ADD SWAP2 SWAP1 PUSH1 0x1 ADD SWAP1 PUSH2 0x239 JUMP JUMPDEST JUMPDEST POP SWAP1 POP PUSH2 0x262 SWAP2 SWAP1 PUSH2 0x266 JUMP JUMPDEST POP SWAP1 JUMP JUMPDEST JUMPDEST DUP1 DUP3 GT ISZERO PUSH2 0x27F JUMPI PUSH1 0x0 DUP2 PUSH1 0x0 SWAP1 SSTORE POP PUSH1 0x1 ADD PUSH2 0x267 JUMP JUMPDEST POP SWAP1 JUMP JUMPDEST PUSH32 0x4E487B7100000000000000000000000000000000000000000000000000000000 PUSH1 0x0 MSTORE PUSH1 0x22 PUSH1 0x4 MSTORE PUSH1 0x24 PUSH1 0x0 REVERT JUMPDEST PUSH1 0x0 PUSH1 0x2 DUP3 DIV SWAP1 POP PUSH1 0x1 DUP3 AND DUP1 PUSH2 0x2CA JUMPI PUSH1 0x7F DUP3 AND SWAP2 POP JUMPDEST PUSH1 0x20 DUP3 LT DUP2 EQ ISZERO PUSH2 0x2DE JUMPI PUSH2 0x2DD PUSH2 0x283 JUMP JUMPDEST JUMPDEST POP SWAP2 SWAP1 POP JUMP JUMPDEST PUSH2 0x5DB DUP1 PUSH2 0x2F3 PUSH1 0x0 CODECOPY PUSH1 0x0 RETURN INVALID PUSH1 0x80 PUSH1 0x40 MSTORE CALLVALUE DUP1 ISZERO PUSH2 0x10 JUMPI PUSH1 0x0 DUP1 REVERT JUMPDEST POP PUSH1 0x4 CALLDATASIZE LT PUSH2 0x2B JUMPI PUSH1 0x0 CALLDATALOAD PUSH1 0xE0 SHR DUP1 PUSH4 0x617AE364 EQ PUSH2 0x30 JUMPI JUMPDEST PUSH1 0x0 DUP1 REVERT JUMPDEST PUSH2 0x4A PUSH1 0x4 DUP1 CALLDATASIZE SUB DUP2 ADD SWAP1 PUSH2 0x45 SWAP2 SWAP1 PUSH2 0x38E JUMP JUMPDEST PUSH2 0x60 JUMP JUMPDEST PUSH1 0x40 MLOAD PUSH2 0x57 SWAP2 SWAP1 PUSH2 0x41D JUMP JUMPDEST PUSH1 0x40 MLOAD DUP1 SWAP2 SUB SWAP1 RETURN JUMPDEST PUSH1 0x0 CALLER PUSH20 0xFFFFFFFFFFFFFFFFFFFFFFFFFFFFFFFFFFFFFFFF AND PUSH1 0x0 DUP1 SLOAD SWAP1 PUSH2 0x100 EXP SWAP1 DIV PUSH20 0xFFFFFFFFFFFFFFFFFFFFFFFFFFFFFFFFFFFFFFFF AND PUSH20 0xFFFFFFFFFFFFFFFFFFFFFFFFFFFFFFFFFFFFFFFF AND EQ PUSH2 0xF0 JUMPI PUSH1 0x40 MLOAD PUSH32 0x8C379A000000000000000000000000000000000000000000000000000000000 DUP2 MSTORE PUSH1 0x4 ADD PUSH2 0xE7 SWAP1 PUSH2 0x495 JUMP JUMPDEST PUSH1 0x40 MLOAD DUP1 SWAP2 SUB SWAP1 REVERT JUMPDEST PUSH1 0x0 PUSH1 0x3 PUSH1 0x0 DUP8 PUSH20 0xFFFFFFFFFFFFFFFFFFFFFFFFFFFFFFFFFFFFFFFF AND PUSH20 0xFFFFFFFFFFFFFFFFFFFFFFFFFFFFFFFFFFFFFFFF AND DUP2 MSTORE PUSH1 0x20 ADD SWAP1 DUP2 MSTORE PUSH1 0x20 ADD PUSH1 0x0 KECCAK256 SWAP1 POP PUSH1 0x0 DUP2 PUSH1 0x0 ADD SLOAD EQ PUSH2 0x144 JUMPI PUSH1 0x0 DUP1 REVERT JUMPDEST PUSH1 0x1 SLOAD DUP2 PUSH1 0x0 ADD DUP2 SWAP1 SSTORE POP CALLER DUP2 PUSH1 0x1 ADD PUSH1 0x0 PUSH2 0x100 EXP DUP2 SLOAD DUP2 PUSH20 0xFFFFFFFFFFFFFFFFFFFFFFFFFFFFFFFFFFFFFFFF MUL NOT AND SWAP1 DUP4 PUSH20 0xFFFFFFFFFFFFFFFFFFFFFFFFFFFFFFFFFFFFFFFF AND MUL OR SWAP1 SSTORE POP DUP5 DUP2 PUSH1 0x1 ADD PUSH1 0x14 PUSH2 0x100 EXP DUP2 SLOAD DUP2 PUSH1 0xFF MUL NOT AND SWAP1 DUP4 PUSH1 0xFF AND MUL OR SWAP1 SSTORE POP DUP4 DUP4 DUP3 PUSH1 0x2 ADD SWAP2 SWAP1 PUSH2 0x1C2 SWAP3 SWAP2 SWAP1 PUSH2 0x1E5 JUMP JUMPDEST POP PUSH1 0x1 DUP1 PUSH1 0x0 DUP3 DUP3 SLOAD PUSH2 0x1D5 SWAP2 SWAP1 PUSH2 0x4EE JUMP JUMPDEST SWAP3 POP POP DUP2 SWAP1 SSTORE POP POP SWAP5 SWAP4 POP POP POP POP JUMP JUMPDEST DUP3 DUP1 SLOAD PUSH2 0x1F1 SWAP1 PUSH2 0x573 JUMP JUMPDEST SWAP1 PUSH1 0x0 MSTORE PUSH1 0x20 PUSH1 0x0 KECCAK256 SWAP1 PUSH1 0x1F ADD PUSH1 0x20 SWAP1 DIV DUP2 ADD SWAP3 DUP3 PUSH2 0x213 JUMPI PUSH1 0x0 DUP6 SSTORE PUSH2 0x25A JUMP JUMPDEST DUP3 PUSH1 0x1F LT PUSH2 0x22C JUMPI DUP1 CALLDATALOAD PUSH1 0xFF NOT AND DUP4 DUP1 ADD OR DUP6 SSTORE PUSH2 0x25A JUMP JUMPDEST DUP3 DUP1 ADD PUSH1 0x1 ADD DUP6 SSTORE DUP3 ISZERO PUSH2 0x25A JUMPI SWAP2 DUP3 ADD JUMPDEST DUP3 DUP2 GT ISZERO PUSH2 0x259 JUMPI DUP3 CALLDATALOAD DUP3 SSTORE SWAP2 PUSH1 0x20 ADD SWAP2 SWAP1 PUSH1 0x1 ADD SWAP1 PUSH2 0x23E JUMP JUMPDEST JUMPDEST POP SWAP1 POP PUSH2 0x267 SWAP2 SWAP1 PUSH2 0x26B JUMP JUMPDEST POP SWAP1 JUMP JUMPDEST JUMPDEST DUP1 DUP3 GT ISZERO PUSH2 0x284 JUMPI PUSH1 0x0 DUP2 PUSH1 0x0 SWAP1 SSTORE POP PUSH1 0x1 ADD PUSH2 0x26C JUMP JUMPDEST POP SWAP1 JUMP JUMPDEST PUSH1 0x0 DUP1 REVERT JUMPDEST PUSH1 0x0 DUP1 REVERT JUMPDEST PUSH1 0x0 PUSH20 0xFFFFFFFFFFFFFFFFFFFFFFFFFFFFFFFFFFFFFFFF DUP3 AND SWAP1 POP SWAP2 SWAP1 POP JUMP JUMPDEST PUSH1 0x0 PUSH2 0x2BD DUP3 PUSH2 0x292 JUMP JUMPDEST SWAP1 POP SWAP2 SWAP1 POP JUMP JUMPDEST PUSH2 0x2CD DUP2 PUSH2 0x2B2 JUMP JUMPDEST DUP2 EQ PUSH2 0x2D8 JUMPI PUSH1 0x0 DUP1 REVERT JUMPDEST POP JUMP JUMPDEST PUSH1 0x0 DUP2 CALLDATALOAD SWAP1 POP PUSH2 0x2EA DUP2 PUSH2 0x2C4 JUMP JUMPDEST SWAP3 SWAP2 POP POP JUMP JUMPDEST PUSH1 0x0 PUSH1 0xFF DUP3 AND SWAP1 POP SWAP2 SWAP1 POP JUMP JUMPDEST PUSH2 0x306 DUP2 PUSH2 0x2F0 JUMP JUMPDEST DUP2 EQ PUSH2 0x311 JUMPI PUSH1 0x0 DUP1 REVERT JUMPDEST POP JUMP JUMPDEST PUSH1 0x0 DUP2 CALLDATALOAD SWAP1 POP PUSH2 0x323 DUP2 PUSH2 0x2FD JUMP JUMPDEST SWAP3 SWAP2 POP POP JUMP JUMPDEST PUSH1 0x0 DUP1 REVERT JUMPDEST PUSH1 0x0 DUP1 REVERT JUMPDEST PUSH1 0x0 DUP1 REVERT JUMPDEST PUSH1 0x0 DUP1 DUP4 PUSH1 0x1F DUP5 ADD SLT PUSH2 0x34E JUMPI PUSH2 0x34D PUSH2 0x329 JUMP JUMPDEST JUMPDEST DUP3 CALLDATALOAD SWAP1 POP PUSH8 0xFFFFFFFFFFFFFFFF DUP2 GT ISZERO PUSH2 0x36B JUMPI PUSH2 0x36A PUSH2 0x32E JUMP JUMPDEST JUMPDEST PUSH1 0x20 DUP4 ADD SWAP2 POP DUP4 PUSH1 0x1 DUP3 MUL DUP4 ADD GT ISZERO PUSH2 0x387 JUMPI PUSH2 0x386 PUSH2 0x333 JUMP JUMPDEST JUMPDEST SWAP3 POP SWAP3 SWAP1 POP JUMP JUMPDEST PUSH1 0x0 DUP1 PUSH1 0x0 DUP1 PUSH1 0x60 DUP6 DUP8 SUB SLT ISZERO PUSH2 0x3A8 JUMPI PUSH2 0x3A7 PUSH2 0x288 JUMP JUMPDEST JUMPDEST PUSH1 0x0 PUSH2 0x3B6 DUP8 DUP3 DUP9 ADD PUSH2 0x2DB JUMP JUMPDEST SWAP5 POP POP PUSH1 0x20 PUSH2 0x3C7 DUP8 DUP3 DUP9 ADD PUSH2 0x314 JUMP JUMPDEST SWAP4 POP POP PUSH1 0x40 DUP6 ADD CALLDATALOAD PUSH8 0xFFFFFFFFFFFFFFFF DUP2 GT ISZERO PUSH2 0x3E8 JUMPI PUSH2 0x3E7 PUSH2 0x28D JUMP JUMPDEST JUMPDEST PUSH2 0x3F4 DUP8 DUP3 DUP9 ADD PUSH2 0x338 JUMP JUMPDEST SWAP3 POP SWAP3 POP POP SWAP3 SWAP6 SWAP2 SWAP5 POP SWAP3 POP JUMP JUMPDEST PUSH1 0x0 DUP2 ISZERO ISZERO SWAP1 POP SWAP2 SWAP1 POP JUMP JUMPDEST PUSH2 0x417 DUP2 PUSH2 0x402 JUMP JUMPDEST DUP3 MSTORE POP POP JUMP JUMPDEST PUSH1 0x0 PUSH1 0x20 DUP3 ADD SWAP1 POP PUSH2 0x432 PUSH1 0x0 DUP4 ADD DUP5 PUSH2 0x40E JUMP JUMPDEST SWAP3 SWAP2 POP POP JUMP JUMPDEST PUSH1 0x0 DUP3 DUP3 MSTORE PUSH1 0x20 DUP3 ADD SWAP1 POP SWAP3 SWAP2 POP POP JUMP JUMPDEST PUSH32 0x4E6F742049737375657200000000000000000000000000000000000000000000 PUSH1 0x0 DUP3 ADD MSTORE POP JUMP JUMPDEST PUSH1 0x0 PUSH2 0x47F PUSH1 0xA DUP4 PUSH2 0x438 JUMP JUMPDEST SWAP2 POP PUSH2 0x48A DUP3 PUSH2 0x449 JUMP JUMPDEST PUSH1 0x20 DUP3 ADD SWAP1 POP SWAP2 SWAP1 POP JUMP JUMPDEST PUSH1 0x0 PUSH1 0x20 DUP3 ADD SWAP1 POP DUP2 DUP2 SUB PUSH1 0x0 DUP4 ADD MSTORE PUSH2 0x4AE DUP2 PUSH2 0x472 JUMP JUMPDEST SWAP1 POP SWAP2 SWAP1 POP JUMP JUMPDEST PUSH1 0x0 DUP2 SWAP1 POP SWAP2 SWAP1 POP JUMP JUMPDEST PUSH32 0x4E487B7100000000000000000000000000000000000000000000000000000000 PUSH1 0x0 MSTORE PUSH1 0x11 PUSH1 0x4 MSTORE PUSH1 0x24 PUSH1 0x0 REVERT JUMPDEST PUSH1 0x0 PUSH2 0x4F9 DUP3 PUSH2 0x4B5 JUMP JUMPDEST SWAP2 POP PUSH2 0x504 DUP4 PUSH2 0x4B5 JUMP JUMPDEST SWAP3 POP DUP3 PUSH32 0xFFFFFFFFFFFFFFFFFFFFFFFFFFFFFFFFFFFFFFFFFFFFFFFFFFFFFFFFFFFFFFFF SUB DUP3 GT ISZERO PUSH2 0x539 JUMPI PUSH2 0x538 PUSH2 0x4BF JUMP JUMPDEST JUMPDEST DUP3 DUP3 ADD SWAP1 POP SWAP3 SWAP2 POP POP JUMP JUMPDEST PUSH32 0x4E487B7100000000000000000000000000000000000000000000000000000000 PUSH1 0x0 MSTORE PUSH1 0x22 PUSH1 0x4 MSTORE PUSH1 0x24 PUSH1 0x0 REVERT JUMPDEST PUSH1 0x0 PUSH1 0x2 DUP3 DIV SWAP1 POP PUSH1 0x1 DUP3 AND DUP1 PUSH2 0x58B JUMPI PUSH1 0x7F DUP3 AND SWAP2 POP JUMPDEST PUSH1 0x20 DUP3 LT DUP2 EQ ISZERO PUSH2 0x59F JUMPI PUSH2 0x59E PUSH2 0x544 JUMP JUMPDEST JUMPDEST POP SWAP2 SWAP1 POP JUMP INVALID LOG2 PUSH5 0x6970667358 0x22 SLT KECCAK256 0xCD 0xC PUSH3 0x92BC15 CALLCODE 0xB9 SWAP10 0xD4 NUMBER 0xC2 LOG3 CALLER BASEFEE 0xC2 BALANCE PUSH29 0x19BB10C3A6BBD0D2C0D903D9EC9F64736F6C634300080A003300000000 "
				},
				"gasEstimates": {
					"creation": {
						"codeDepositCost": "299800",
						"executionCost": "infinite",
						"totalCost": "infinite"
					},
					"external": {
						"claimCredential(address,uint8,string)": "infinite"
					}
				},
				"methodIdentifiers": {
					"claimCredential(address,uint8,string)": "617ae364"
				}
			},
			"userdoc": {
				"kind": "user",
				"methods": {},
				"version": 1
			}
		}
	}
}